:100000006F008014130000001300000013000000B4
:100010001300000013000000130000001300000094
:1000200013000000130101F82320310023221100E6
:10003000232421002326310023284100232A5100B4
:10004000232C6100232E71002320810223229102A0
:100050002324A1022326B1022328C102232AD1028C
:10006000232CE102232EF102232001052322110576
:10007000232421052326310523284105232A510560
:10008000232C6105232E710523208107232291074C
:100090002324A1072326B1072328C107232AD10738
:1000A000232CE107232EF107130000000B4500026B
:1000B00097120040E78082B4130000001300000094
:1000C00013000000832041008321C10003220101AD
:1000D00083224101032381018323C10103240102FF
:1000E00083244102032581028325C10203260103E3
:1000F00083264103032781038327C10303280104C7
:1001000083284104032981048329C104032A0105AA
:10011000832A4105032B8105832BC105032C01068E
:10012000832C4106032D8106832DC106032E010772
:10013000832E4107032F8107832FC1071301010875
:100140000B00000013000000130500000B20050445
:10015000171100001301818617E50040130545B90A
:10016000970501409385C53D6308B5002320050030
:10017000130545006FF05FFF17D5004013050529F3
:100180001301C1FF97D5004093858528630EB50004
:1001900083260500130545002320A100E780060003
:1001A000032501006FF01FFE13014100971200406C
:0801B000E780C2BD6F000000F2
:020000044000BA
:10000000B7E7004003C757D0930710046304F70015
:10001000678000008327050037E700400327C7D02B
:1000200093879700B387E7402320F500678000009F
:10003000B7E7004003A647D1630806000327060080
:100040002320E50003A647D1B7E7004083A5C7D02A
:100050001306C6001305A0006F00500F130101FF27
:100060002320210137E9004023229100832749D131
:100070008324050023248100232611001304050096
:10008000138704009386070303A8070003A547000E
:1000900083A5870003A6C700232007012322A7000A
:1000A0002324B7002326C7009387070113070701FE
:1000B000E39CD7FC930750002326F40023A6F4000A
:1000C000832704001385040023A0F400EFF05FF6FB
:1000D00083A74400638A07048327040013050400F0
:1000E0001387070303A8070083A5470003A687001B
:1000F00083A6C700232005012322B5002324C500C1
:100100002326D5009387070113050501E39CE7FC2F
:100110008320C100032481008324410003290100BE
:1001200013010101678000009307600023A6F4001B
:100130000325840093858400EF005013832749D161
:1001400003A5C4001386C40083A707008320C10051
:100150000324810023A0F40003290100832441002B
:100160009305A000130101016F00407EB7E7004036
:1001700083C757D0B7E6004003A786D09387F7FB25
:1001800093B71700B3E7E70023A4F6D013072004C2
:10019000B7E700402382E7D0678000001307100410
:1001A000B7E70040A382E7D0B7E7004023A407D019
:1001B00067800000130101F613050003232E1108C8
:1001C0002328A1072326B107232C8108232A91087D
:1001D00023282109232631092324410923225109F7
:1001E00023206109232E7107232C8107232A9107DD
:1001F000EF001043B7E7004023A8A7D01305000382
:10020000EF001042B7E7004083A707D137ED004069
:10021000232AADD02320F500930720002324F500E6
:10022000B7B50040930780022326F5001306F001BE
:10023000938505212322050013050501EF100034E5
:1002400037B700409307877B032E877B03A34700C4
:1002500083A8870003A8C70083A5070103A6470159
:1002600083A6870103D7C70183C7E701B7ED004025
:1002700037B50040231EE102230FF1021387CDD3CF
:100280009307A00013054547232EF7642320C103DD
:100290002322610223241103232601032328B10210
:1002A000232AC102232CD102EF10004437B50040AD
:1002B00013050523EF104043B7B7004013854747A8
:1002C000EF108042B7E7004083A707D06380076440
:1002D00037B5004013050526EF100041B7B70040C1
:1002E00013854747EF10404037B500401305C52B35
:1002F000EF10803FB7B7004013854747EF10C03E6F
:1003000037B500409305800C1305452FEF10C03D15
:10031000EF00900F37B900408327897D37BC00403C
:10032000832C8C7F2326F100B7E7004023AEA7CEB5
:10033000B70701409387C744930910001309897DCB
:100340002324F100B7E40040B7EB00401304200081
:10035000EFF0DFE4EFF09FE18347E9010326490175
:10036000032E4900032389008328C90003280901BB
:10037000832689010357C901832EC100230FF1048D
:10038000930501049307100013050102232AC104F9
:10039000232EF100232A81002320D1052322C10529
:1003A000232461042326110523280105232CD104CD
:1003B000231EE104EF00806303264101133515007D
:1003C000B7E7004023A4A7D0634AC40293172600CE
:1003D000B387C7009387D7FF130506009305300046
:1003E00013068101232CF100EF0040560326410142
:1003F00013061600232AC100E35AC4FC8326810198
:10040000032581009385CDD3130A3000EF000055FA
:1004100003254DD1EFF09FC403C744D093070004D8
:1004200063FEE708930A10046F00400183C744D0BD
:10043000938A1A0093FAFA0F63E25709930530047E
:1004400013850A00EF0040588327C101E310F5FE31
:100450009305C10113050000EF00406193078C7FF5
:1004600083A8470003A8870003A5C70083A5070149
:1004700003A6470183A6870103D7C70183C7E70106
:10048000938A1A0023209105230FF10483C744D0D7
:1004900023221105232401052326A1042328B104C6
:1004A000232AC104232CD104231EE10423A63BD11B
:1004B00093FAFA0F138A0900E3F257F983274101EF
:1004C000032B810113054101330AFA0293891900B4
:1004D000B34A6A03232A5101EFF09FB29307900CAD
:1004E000E398F9E6EF00407237E70040232CA7CEEF
:1004F00037B50040130545322326E100EF10C01E3A
:10050000B7B7004013854747EF10001E37B50040CE
:1005100013054533EF10401DB7B70040138547471B
:10052000EF10801C83A5CBD037B500401305C5362E
:1005300037B40040EF10401B93055000130584387A
:10054000EF10801AB7E7004083A587D037B5004089
:100550001305453AEF104019930510001305843830
:10056000EF108018B7E7004083C557D037B500407B
:100570001305053CEF10401737B9004093051004F0
:100580001305C93DEF10401683C544D037B5004070
:100590001305853FEF104015930520041305C93D51
:1005A000EF108014B70701409387C7D383A5077363
:1005B00037B5004013054541EF1000139305700057
:1005C00013058438EF104012B7E700409387C7D374
:1005D00083A5C76537B5004013050543EF10C0106C
:1005E00037B500401305C544EF10001037B5004083
:1005F00013058547EF10400F83264DD1B7B7004054
:100600001385474883A506002324F10037BC00402A
:10061000EF10800D37B500401305054AEF10C00CF0
:1006200083264DD113054C4DB7BB004083A5460032
:10063000B7B9004037B90040EF10000B9305000038
:1006400013058438EF10400A83264DD113850B4FD4
:10065000B7BC004083A58600330A6A41B7B40040A6
:10066000EF1080089305200013058438EF10C007B1
:1006700083264DD11385C950B7ED004083A5C60030
:10068000EF1080069305100113058438EF10C005A4
:1006900083254DD11305895293850501EF10C004C0
:1006A00013854C54EF10400437B500401305C5576F
:1006B000EF108003B7E7004083A607D183278100AE
:1006C00083A5060013854748EF10000237B50040A8
:1006D00013050559EF104001B7E7004083A707D184
:1006E00013054C4D83A54700EF1000009305000053
:1006F00013058438EF00507FB7E7004083A707D188
:1007000013850B4F83A58700EF00107E9305100023
:1007100013058438EF00507DB7E7004083A707D169
:100720001385C95083A5C700EF00107C93052001F5
:1007300013058438EF00507BB7E7004083A507D14D
:100740001305895293850501EF00107A13854C54E7
:10075000EF0090798325410137B500401305055D11
:10076000EF0090789305500013058438EF00D077A0
:1007700093173A00B385474137B50040B3855541DB
:100780001305C55EEF0050769305D000130584383D
:10079000EF0090758325810137B500401305856012
:1007A000EF0090749305700013058438EF00D07348
:1007B0008325C10137B5004013054562EF00D072B3
:1007C0009305100013058438EF00107237B5004010
:1007D0009305010213050564EF00107137B5004061
:1007E0001305C565EF00507037B50040930501044F
:1007F00013054569EF00506F37B500401305056BD1
:10080000EF00906E13854447EF00106E0327C10080
:10081000832787CF37E700408325C7CFB385B7400D
:1008200023AABDCE9307301F63D0B71037B5004061
:1008300013050574EF00506B03A54DCFB7E90040D9
:1008400037E90040EF90C066130A0500EF905009A9
:10085000B7C7004003A687DD83A6C7DD37B40040D5
:10086000EFA00002EFA0500EB7C7004023A8A9CE0A
:1008700003A507DE93050A00EF90402F2326A9CE9B
:1008800037B5004013050575EF00106603A509CFC5
:10089000EF901005130605009386050013050478F4
:1008A000EF00906437B5004013058578EF00D06302
:1008B0000325C9CEEF90D0021306050093860500EC
:1008C00013050478EF00506213854447EF00D061B0
:1008D0008320C109032481098324410903290109D3
:1008E0008329C108032A8108832A4108032B0108B0
:1008F000832BC107032C8107832C4107032D01079C
:10090000832DC1061301010A6780000037B500403E
:100910001305C528EF00505DB7B700401385474762
:10092000EF00905C6FF05F9C37B500401305856E5B
:10093000EF00905B37B5004013050572EF00D05A09
:1009400013854447EF00505A6FF09FF813052500B8
:10095000B305B5002320B6006780000013085600D9
:100960009307800CB307F80213162600131728000C
:100970003305E5002320D5002322D500232C0507CD
:100980003387C7003387E50083260701232A070141
:10099000232C0701938616002328D7003717000061
:1009A000130707FA83260500B387E700B385F50030
:1009B000B385C50013075000B7E7004023AAD50050
:1009C00023A6E7D0678000001375F50F93F5F50FA8
:1009D0006306B5001305000067800000B7E700401C
:1009E000A382A7D01305100067800000130101FF48
:1009F00023248100232291002326110013040500E3
:100A00009384050083C5340003452400EFF0DFFB29
:100A1000E31A05FE9385040013050400EF0010524D
:100A20006354A0028320C1001307A000B7E7004071
:100A300013051000032481008324410023A6E7D07E
:100A400013010101678000008320C100130500002D
:100A50000324810083244100130101016780000009
:100A60001305E5FF1335150067800000130101FF32
:100A70002324810023229100232611001304050062
:100A800093840500EFF0DFFD630E050223A08400D0
:100A9000930710006300F4046306040413072000A6
:100AA000630EE404930740006314F40023A0E40001
:100AB0008320C1000324810083244100130101012C
:100AC000678000009307300023A0F4009307100014
:100AD000E314F4FCB7E7004003A7C7D09307400630
:100AE00063DAE7028320C10023A00400032481000D
:100AF0008324410013010101678000008320C100AD
:100B000023A0F40003248100832441001301010188
:100B1000678000008320C1009307300023A0F40009
:100B20000324810083244100130101016780000038
:100B3000B70710F023A0A7F067800000130500009E
:100B40006780000013050000678000006FF09FFFC2
:100B50001305000067800000130500006780000097
:100B6000B7E700409305050003A507CD6F004010CF
:100B7000130101FF23248100232611001304050023
:100B800003450500630A050013041400EFF05FFD40
:100B900003450400E31A05FE8320C10003248100FD
:100BA0001301010167800000130101FF232291005E
:100BB000232021012326110023248100130906008C
:100BC000B384C500630C06001384050003450400CC
:100BD00013041400EFF0DFF8E39A84FE8320C100D1
:100BE0001305090003248100832441000329010027
:100BF00013010101678000006780000037E50040B5
:100C0000130585D16F0000216FF05FFF2320B50031
:100C1000678000008327050023A4B70067800000D9
:100C2000832705009385F5FF93960601B3E6D5006B
:100C30001316860033E6C60023A6C70067800000AF
:100C40008327050003A54700135505011375F50F0C
:100C500067800000130101FF23261100EFF05FFE03
:100C60008320C100133515001301010167800000C6
:100C7000130101FF23248100232291002326110068
:100C8000130405009384050013050400EFF09FFC96
:100C9000E31C05FE832704008320C1000324810098
:100CA00023A0970083244100130101016780000005
:100CB0008327050003A74700938747006398050033
:100CC0001377E7FF23A0E700678000001367170092
:100CD00023A0E700678000008327050003A74700E3
:100CE00093874700639805001377D7FF23A0E70099
:100CF000678000001367270023A0E70067800000DB
:100D00008327050023A0B700678000008327050024
:100D100023A2B700678000008327050023A40700F3
:100D200067800000130101FF2326110023248100A6
:100D30002320B5009305000013040500EFF05FFCCD
:100D4000130504008320C100032481001301010165
:100D50006FF09FFC37E50040130101FFB70501F07C
:100D60001305C5D123261100EFF05FEA8320C100EF
:100D7000B70502F037E5004093850504130585D1DA
:100D8000130101016FF01FFA130101FF23248100F9
:100D900037E40040130584D19305F0FF23261100AA
:100DA000EFF0DFF6B7050100130584D19385150038
:100DB000EFF01FF537E400401305C4D1930560033D
:100DC000EFF05FE593061000130600001305C4D191
:100DD00093058000EFF0DFE41305C4D19305000014
:100DE000EFF09FEF1305C4D193050000EFF05FEC27
:100DF000EFF04FBC13052004EFF09FD38320C10018
:100E00001305000003248100130101016780000025
:100E10006FF05FF48327050003A58700678000005B
:100E2000B7E700409305050003A507CE6F0040011A
:100E3000B7E700409305050003A507CE6F40407655
:100E4000130101FD23229102232E310123261102D9
:100E50002324810223202103232C4101232A510131
:100E6000232861012326710123248101232291017A
:100E70009384B500930760019309050063FC971AFA
:100E800093F484FF63C4042463E2B424EF001001EC
:100E90009307701F63FC976C93D794009306000828
:100EA000130500049305F003639A072237D9004025
:100EB0001309094193962600B306D90003A44600FE
:100EC000938686FF638A8622832744001306F000F8
:100ED00093F7C7FF338797406340E60263520722C8
:100EE0000324C400638A86208327440093F7C7FF46
:100EF00033879740E354E6FE9386050003240901F7
:100F00001308890063020447832744001306F00096
:100F100093F7C7FF338797406342E644232A0901CA
:100F2000232809016354071E1307F01F6366F73C6B
:100F300093D737001386170013163600032749008E
:100F40003306C9000325060093D7274093051000F8
:100F5000B397F500B3E7E700130786FF2326E40005
:100F60002324A4002322F9002320860023268500C1
:100F700013D72640130610003316E60063E8C71A9D
:100F80003377F600631407021316160093F6C6FFB4
:100F90003377F60093864600631A0700131616008F
:100FA0003377F60093864600E30A07FE1305F00048
:100FB00093983600B38828019385080013830600B0
:100FC00003A4C500639A85006F00803A6354073C10
:100FD0000324C400638E85388327440093F7C7FF3A
:100FE00033879740E354E5FE8327C40083268400BB
:100FF00013E614002322C40023A6F60023A4D7007E
:10100000B3049400232A99002328990093671700BA
:1010100023A6040123A4040123A2F400B384E40062
:101020001385090023A0E400EF0080671305840006
:101030006F0080069304000163EAB408EF000066C5
:10104000930760009306200037D900401309094137
:1010500093972700B307F90003A44700138787FF7E
:101060006302E432832744008326C40003268400FD
:1010700093F7C7FFB307F40003A747002326D60062
:1010800023A4C600136717001385090023A2E700F5
:10109000EF000061130584008320C1020324810254
:1010A00083244102032901028329C101032A81010A
:1010B000832A4101032B0101832BC100032C8100F2
:1010C000832C410013010103678000009307C000D7
:1010D00023A0F900130500006FF01FFC1307400068
:1010E000636AF71E93D56400138595039316150064
:1010F000938585036FF09FDB930605006FF01FE07B
:101100008326C400032684006FF0DFF6B307F400E3
:1011100003A74700138509001367170023A2E70000
:10112000EF000058130584006FF01FF703248900B7
:101130008327440093FAC7FF63E89A00B3879A4075
:101140001307F0006344F716B7E7004003A787D200
:10115000B7EC004083A64CCD3387E4009307F0FF43
:10116000330B5401130A0701638CF600371A000091
:10117000130AFA00330A470137F7FFFF337AEA0010
:1011800013050A00EF8080379307F0FF930B0500EB
:10119000630EF524636A6525370C0140130C4C512E
:1011A00003270C003307EA002320EC0063087B339D
:1011B00083A64CCD9307F0FF6386F634338B6B41E7
:1011C0003307EB002320EC0013F77B00B717000078
:1011D000630A0700B38BEB4093878700938B8B00E8
:1011E000B387E740371700001307F7FF338A4B0137
:1011F000337AEA00338A474113050A00EF80003052
:101200009307F0FF630AF52EB3077541B3874701D3
:1012100093E7170003270C002324790123A2FB0086
:101220003307EA002320EC00630C24031306F000CC
:10123000637E56258326440093874AFF93F787FFF2
:1012400093F61600B3E6F6002322D400930550006F
:10125000B306F40023A2B60023A4B600636AF62AFC
:10126000B7E7004083A647D263F4E60023A2E7D2A3
:10127000B7E7004083A607D20324890063F4E600A1
:1012800023A0E7D2032744001377C7FFB307974093
:10129000636697001307F000634AF700138509009F
:1012A000EF000040130500006FF01FDF13E714008C
:1012B0002322E400B30494002324990093E7170049
:1012C0001385090023A2F400EF00803D130584007C
:1012D0006FF09FDC130740016376F70E130740059C
:1012E0006368F71693D5C4001385F50693161500A9
:1012F0009385E5066FF09FBB13D797001306400058
:10130000637AE60C13064001636CE61A9305C70581
:101310001306B7059395150093952500B305B900FD
:1013200003A70500938585FF6382E5140326470024
:101330001376C6FF63F6C70003278700E398E5FE30
:101340008325C700832749002326B4002324E40013
:1013500023A48500232687006FF09FC193E7140024
:101360002322F4006FF0DFC9832749006FF05FC0CC
:10137000130313009377330093858500E39207C42A
:101380006F00800803A4C70093862600E38887B611
:101390006FF05FCDB307F40003A747008326C400B6
:1013A000032684001367170023A2E7002326D60034
:1013B0001385090023A4C600EF00802E13058400C6
:1013C0006FF09FCD1385C7059385B705931615005C
:1013D0006FF0DFAD13D66700930596039395150064
:1013E000130686036FF05FF3E30824DB0324890010
:1013F000032744001377C7FF6FF05FE983A78800D6
:101400009386F6FF6390F81693F73600938888FF6B
:10141000E39607FE832749001347F6FFB377F700EB
:101420002322F90013161600E3E2C7D0E30006D02A
:101430003377F60093060300E31C07B61316160075
:101440003377F60093864600E30A07FE6FF05FB637
:10145000130740156362F70493D5F40013858507DD
:1014600093161500938575076FF05FA483274900D5
:1014700013071000135626403316C700B367F60053
:101480002322F900138705006FF01FEC930710006B
:1014900023A2FB006FF09FE0130740559306E00F77
:1014A0001305F0079305E007E362F7A093D5240145
:1014B0001385D507931615009385C5076FF01F9FF9
:1014C000130640056360E60613D6C7009305F606CB
:1014D000939515001306E6066FF01FE493174B0172
:1014E000E39807CC83268900B3874A0193E7170066
:1014F00023A2F6006FF0DFD693071000130A000056
:101500006FF05FD1B7E7004023AA77CD6FF0DFCB54
:101510009305840013850900EF40800803270C0021
:101520006FF01FD413064015636CE60013D6F70066
:101530009305860793951500130676076FF0DFDD98
:10154000130540559305E00F1306E007E366E5DC5D
:1015500013D627019305D607939515001306C607E2
:101560006FF09FDB832749006FF0DFEB93D63400E9
:1015700093871600939717006FF01FADB3C7A500B0
:1015800093F73700B308C5006392070E9307300046
:1015900063FEC70E93773500639A070413F8C8FFFC
:1015A000930708FE130705006366F506938605009A
:1015B000930707006378070303A606009387470095
:1015C0009386460023AEC7FEE3E807FF9347F7FF85
:1015D000338807011378C8FF130848003307070151
:1015E000B3850501636817096780000013070500CC
:1015F00083C605001307170093773700A30FD7FEA4
:1016000093851500E39607FE13F8C8FF930708FEBD
:10161000E37EF7F883A3050083A2450083AF85002E
:1016200003AFC50083AE050103AE450103A38501E9
:1016300003A6C501938545021307470283A6C5FF8C
:10164000232E77FC232057FE2322F7FF2324E7FFD6
:101650002326D7FF2328C7FF232A67FE232CC7FE94
:10166000232ED7FEE368F7FA6FF05FF41307050047
:101670006374150383C705001307170093851500CE
:10168000A30FF7FEE36817FF67800000130705004C
:10169000E36215FF6FF05FF5678000006780000070
:1016A00067800000130101FC2324C1022326D1021C
:1016B000232AF1022328E102232C0103232E110304
:1016C0001386050083258500930781029386070012
:1016D000232E11002326F100EF0080178320C10183
:1016E000130101046780000037E30040032303CEA9
:1016F000130101FC2324C1022326D102232AF10273
:101700002322B1022328E102232C0103232E1103FB
:101710008325830093074102130605009386070083
:1017200013050300232E11002326F100EF004012C1
:101730008320C10113010104678000003367B500F5
:101740009303F0FF137737006310070C378E7F7F0A
:10175000130EFEF70326050083A60500B372C6012B
:101760003363C601B382C201B3E262006392720CBA
:101770006316D6040326450083A64500B372C6014E
:101780003363C601B382C201B3E26200639E720892
:101790006316D6020326850083A68500B372C601B0
:1017A0003363C601B382C201B3E262006398720878
:1017B0001305C5009385C500E30ED6F8131706017F
:1017C00093970601631EF7001357060193D706018E
:1017D0003305F7409375F50F6390050267800000AD
:1017E0001357070193D707013305F7409375F50F9A
:1017F00063940500678000001377F70F93F7F70FE6
:101800003305F740678000000346050083C60500E6
:1018100013051500938515006314D600E31606FE24
:101820003305D640678000001305450093854500C9
:10183000E31CD6FC1305000067800000130585003B
:1018400093858500E312D6FC130500006780000035
:10185000130101EC232E1112232C8112232C811150
:101860002328A111138C0500130406002324D102A0
:10187000232A9112232821132326311323244113D1
:101880002322511323206113232E7111232A911136
:101890002326B111130D0500EF40402083270500DA
:1018A000138507002328F104EF508075232AA10433
:1018B00063060D0083278D036384072C8316CC00F9
:1018C0009397060193D707011397270163460702F1
:1018D00003268C06B727000037E7FFFFB3E7F600C3
:1018E0001307F7FF3377E6002316FC0093970701F1
:1018F0002324EC0693D7070113F78700630E071A1A
:1019000003270C01630A071A93F7A7011307A00026
:101910006386E71CB7C70040938787812326F102BF
:10192000B7C70040938BC797B7C70040930A010C15
:1019300037C900409387C79D23265109232A0108F0
:1019400023280108232E0102232201042324010459
:1019500013830A0023260104232C0104232E0100F3
:101960001309C998232EF1049304040083C70400CB
:101970006384076C13075002138404006396E70026
:101980006F0040056388E7001304140083470400D8
:10199000E39A07FEB3099440638E090203274109C5
:1019A000832701092320930033073701938717000A
:1019B00023223301232AE1082328F10813077000AA
:1019C00013038300634CF7128327C101B3873701E8
:1019D000232EF10083470400638007149307F0FF70
:1019E00093041400A30701069305000013050000EB
:1019F000232CF100130700009309000093068005D3
:101A0000130690001308A00203CA04009384140074
:101A100093070AFEE3E6F6208328C1029397270086
:101A2000B387170183A707006780070093E90901BF
:101A30006FF09FFD8327810203A70700938747006C
:101A40002324F102E35207FC3307E04093E9490005
:101A50006FF09FFB930700032308F10693078007AD
:101A6000A308F10603268101832781022322E102D4
:101A7000A30701061387470093E6290083A7070001
:101A8000E34C061C93F9F9F72324E10293E92900BA
:101A9000E39C0716B7C700409387079C2326F104F1
:101AA000130A800783278101130600006388077EDD
:101AB000930700006F00007493050C0013050D00E0
:101AC000EF101034630405006F10003E8357CC0004
:101AD0001307A00093F7A701E39EE7E28317EC004A
:101AE000E3CA07E2832681021306040093050C0073
:101AF00013050D00EF10D0246F00C0041306C108B9
:101B000093050C0013050D00EF50006763120502EA
:101B100013830A006FF05FEB83274109638A070094
:101B20001306C10893050C0013050D00EF50C064A7
:101B30008357CC0093F70704638407006F10C03607
:101B40000325C1018320C11303248113832441137E
:101B5000032901138329C112032A8112832A411206
:101B6000032B0112832BC111032C8111832C4111F2
:101B7000032D0111832DC110130101146780000092
:101B800013050D00EF30900C6FF05FD3930510003C
:101B90001305B0026FF05FE72322E10263840500C2
:101BA0006F10901693F7090163840756A307010687
:101BB00083278102832681011387470083A70700BB
:101BC00063C806562324E10293F9F9F76398075690
:101BD0000327810113060000930700006314070028
:101BE0006F10403A13840A0013F777001304F4FFD0
:101BF000130707032300E40093D73700E39607FE9B
:101C000093F719006380074A93070003630CF748B2
:101C10001307F4FFA30FF4FEB387EA402320F10279
:101C2000130407006F00804803CA04009384140063
:101C300063140A016F109003130E0AFD930700004E
:101C40006374C6016F10005C9384140003CAF4FF30
:101C50009398170093973700B387F800B387C701AD
:101C6000130E0AFDE372C6FF63D407006F10803EB7
:101C7000232CF1006FF0DFD993E909086FF0DFD86A
:101C8000E31405D893051000130500026FF0DFD7A9
:101C900093E919006FF05FD7832781022322E102C5
:101CA000A307010603A40700138B470083278101C4
:101CB000631404006F10003B232A610063D4070003
:101CC0006F1000371386070093050000130504000A
:101CD000EF30907803234101631405006F10C04575
:101CE000B30785402320F10263D407006F1000364C
:101CF0000346F106232AF10023246103232C01006B
:101D0000232C0102630806008327410193871700F3
:101D1000232AF10093F729002328F10263880700A2
:101D20008327410193872700232AF10093F749086D
:101D3000232AF102639E077683274102032741018C
:101D4000B38DE7406356B077130800012320710577
:101D500083274109032701096350B807930C080042
:101D6000130B70006F00C000938D0DFF63D6BC0590
:101D70009387070113071700232073012322930180
:101D8000232AF1082328E10813038300E35EEBFC18
:101D90001306C10893050C0013050D00EF50C03D5C
:101DA000E31805D8938D0DFF832741090327010907
:101DB00013830A00E3CEBCFB83260104B387FD0036
:101DC000130717002320D3002322B301232AF1088D
:101DD0002328E10893067000E3CAE6320346F106C1
:101DE00013038300630A0602032701099306F10621
:101DF0002320D300938717009306100013071700C2
:101E00002322D300232AF1082328E1089306700037
:101E100013038300E3C0E61E03270103630A0702DE
:101E200003270109930601072320D3009387270086
:101E300093062000130717002322D300232AF1085A
:101E40002328E1089306700013038300E3C4E61C13
:101E50008326410313070008E38AE606032781016E
:101E600083260102B30CD7406358900B930D0001F9
:101E7000232821030327010963DE9D05130B70004E
:101E80006F00C000938C0CFF63D69D0593870701FC
:101E900013071700232023012322B301232AF1086B
:101EA0002328E10813038300E35EEBFC1306C1085B
:101EB00093050C0013050D00EF50002CE31A05C626
:101EC000938C0CFF832741090327010913830A0020
:101ED000E3CE9DFB83260103B38797011307170009
:101EE0002320D30023229301232AF1082328E10889
:101EF000930670001303830063D0E6021306C10843
:101F000093050C0013050D00EF500027E31205C2E6
:101F10008327410913830A0013F70910631E07681A
:101F2000832601020327010923208300B387D700FA
:101F3000130717002322D300232AF1082328E108DE
:101F40009306700063CAE6641303830093F94900A3
:101F5000638C090A03274102832641013304D740D9
:101F60006354800A930900012320710503270109A6
:101F700063DE8904130A70006F00C000130404FFBD
:101F800063D6890493870701130717002320730181
:101F900023223301232AF1082328E10813038300B5
:101FA000E35EEAFC1306C10893050C0013050D005F
:101FB000EF50801CE31E05B6130404FF832741097C
:101FC0000327010913830A00E3CE89FA832601045B
:101FD000B3878700130717002320D3002322830031
:101FE000232AF1082328E1089306700063DEE60047
:101FF0001306C10893050C0013050D00EF50C01720
:10200000E31805B2832741090327410283264101D2
:102010006354D700138706008326C1013387E60087
:10202000232EE100639C077A83C70400232801085C
:1020300013830A00E3900794138404006FF09F99C0
:102040002322E102638405006F10804B93F709019E
:1020500063860710A3070106832781028326810177
:102060001387470083A7070063CA06102324E102F1
:1020700093F9F9F713060000638E07201307900009
:1020800013840A009306A000E372F71433F7D70213
:102090001304F4FFB3D7D702130707032300E400A8
:1020A000E39607FEB3878A402320F102032701024B
:1020B00083268101930707006354D70093870600A6
:1020C000232AF100232C01026FF0DFC31307000065
:1020D000130E0AFD9384140003CAF4FF931717002C
:1020E000131737003387E7003307EE00130E0AFD9E
:1020F000E372C6FF6FF0DF912322E10263840500E3
:102100006F10403F93E9090193F70901E39007AA93
:1021100093F70904A3070106E38C07A8832781022C
:10212000832681011387470083D70700E3DC06A8D5
:102130002324E10213060000638207341306000023
:102140006FF05FAA2322E102638405006F10C0399B
:1021500093E9090193F70901E39E07EE93F7090458
:10216000A3070106E38A07EE832781028326810104
:102170001387470083D70700E3DA06EE2324E10242
:1021800013060000E39C07EE930710006F00002F7A
:102190002322E102638405006F108034B7C700403A
:1021A0009387C79A2326F10493F7090163800712E6
:1021B0000327810283270700130747002324E10236
:1021C00013F7190063080766E38C073C8326810137
:1021D000130700032308E106A3084107A30701062C
:1021E00013E72900E3CC066E93F9F9F793E9290088
:1021F000130600008326C10413840A0013F7F700B6
:102200003387E600034707001304F4FF93D7470022
:102210002300E400E39407FE6FF0DFE82322E102ED
:102220000327810293061000232AD1008327070089
:10223000A307010613060000230CF10893074700CB
:102240002324F1022320D102232C0100232C01029C
:10225000130481096FF01FAC2322E102638405009F
:102260006F10002B93F70901638007140327810285
:1022700083270700130747002324E102E3C4071460
:10228000032781010346F106E34E07EE93F9F9F7C0
:10229000E39607DE8327810163980772232C0100F0
:1022A0002320010213840A006FF05FE02322E10281
:1022B000638405006F10C026B7C700409387079C52
:1022C0002326F10493F70901E39407EE93F7090439
:1022D00003278102E386072A835707001307470075
:1022E0002324E1026FF0DFED2322E1026384050085
:1022F0006F10802293F78900E380072683278102ED
:102300009387770093F787FF138787002324E102E1
:1023100003A7070083A747002322E1042324F10435
:10232000832C4104032B8104232A610013850C00B4
:1023300093050B00EF40902E13041000032341017E
:10234000E312850A13850C0093050B0013060000A9
:1023500093060000EF80503203234101E348055803
:102360000346F10693077004E3DC473737C40040A7
:102370001304049A93073000232AF10093F9F9F724
:102380002320F102232C0100232C01026FF09F97E0
:102390002322E102638405006F10C00F93E9090155
:1023A00093F70901E39407EC93F7090403278102EB
:1023B000E380071E83170700130747002324E10269
:1023C0006FF0DFEB93E989006FF00FE463840500A1
:1023D0006F10001093F70901639E070A93F909042F
:1023E000638A090A0327810283270700130747002E
:1023F0002324E1020357C1012390E7006FF00FD7B8
:1024000093E909046FF04FE037C700401307079CBA
:10241000130600002326E104130A80076FF09FDDF6
:102420002322E102638405006F10000A63060AEEAE
:1024300093071000232AF100230C4109A30701068A
:10244000130600002320F102232C0100232C01029B
:10245000130481096FF01F8C2324E10237C7004069
:102460001307079C938906002326E104130A8007BB
:10247000639C073C1306000093072000130710001D
:102480006384E754130720006384E7E293070000A6
:102490006FF04FF5032781028327070013074700DA
:1024A0002324E1020327C10123A0E7006FF00FCC32
:1024B000832741096FF01F938326C1031307100080
:1024C000938717006354D72C032A010913071000C0
:1024D0002322E300130A1A0023208300232AF10891
:1024E00023284109130770001303830063404767E3
:1024F0000327410583260105130A1A00B307F700D5
:102500002322E3002320D300232AF10823284109B2
:1025100013077000930C830063424769032541044D
:10252000832581041306000093060000232CF1008C
:10253000EF80D014832781010327C103630A053E7E
:102540001307F7FFB387E70013041400130A1A00F8
:1025500023A2EC0023A08C00232AF10823284109A0
:1025600013077000634A4725938C8C0083268105EE
:102570001307C107130A1A00B387F60023A0EC0063
:1025800023A2DC00232AF108232841091307700045
:1025900013838C00E35C479B1306C10893050C0072
:1025A00013050D00EF40503D631405D88327410902
:1025B00013830A006FF09F9913075006E35E47EFFD
:1025C00003254104832581041306000093060000BF
:1025D00023206102232CF100EF80900A83278101E0
:1025E0000323010263160526032701098326C1057B
:1025F00093871700130717002320D30093061000BA
:102600002322D300232AF1082328E108930670002F
:102610001303830063C0E67A032741078326C103BF
:102620006346D70013F71900E30207920327010559
:102630008326410513038300232CE3FE03270109AE
:10264000B387D700232ED3FE13071700232AF108E0
:102650002328E10893067000E3CAE6140327C103A8
:102660001304F7FFE354808E130A0001232821038B
:102670000327010963568A32930C70006F00C00073
:10268000130404FF635E8A30938707011307170062
:102690002320230123224301232AF1082328E108D0
:1026A00013038300E3DEECFC1306C10893050C0062
:1026B00013050D00EF40502C631C05C6832741090C
:1026C0000327010913830A006FF09FFB03274102D0
:1026D00083264101B30CD740635290F9930D00015A
:1026E000232821030327010963DE9D05130B7000D6
:1026F0006F00C000938C0CFF63D69D059387070184
:1027000013071700232023012322B301232AF108F2
:102710002328E10813038300E35EEBFC1306C108E2
:1027200093050C0013050D00EF401025631205C042
:10273000938C0CFF832741090327010913830A00A7
:10274000E3CE9DFB83260103B38797011307170090
:102750002320D30023229301232AF1082328E10810
:10276000930670001303830063DAE6EE1306C108D4
:1027700093050C0013050D00EF401020631A05BAF5
:102780008327410913830A006FF04FEDB3F6E90088
:10279000E39C06D2032A01092322E30023208300BD
:1027A000130A1A00232AF10823284109130770008D
:1027B000930C8300E35C47DB1306C10893050C0010
:1027C00013050D00EF40501B631405B68327410924
:1027D000032A0109938C0A006FF05FD91306C10820
:1027E00093050C0013050D00EF401019E30E058250
:1027F0006FF00FB41306C10893050C0013050D000C
:10280000EF409017631605B28327410913830A002E
:102810006FF08FE01306C10893050C0013050D003F
:10282000EF409015631605B08327410913830A0012
:102830006FF00FE203278101A3070106E34A07C2F5
:1028400093F9F9F7638007A6130600006FF09F9ACB
:10285000032A410763524059032781038326C1039A
:10286000130A070063D4E600138A06006356400388
:1028700003270109B38747012320830013071700AB
:1028800023224301232AF1082328E108930670003C
:102890001303830063CCE66463420A7C032781034D
:1028A000330A4741635E4017930C0001232821033C
:1028B0000327010963D44C13930D70006F00C0000F
:1028C000130A0AFF63DC4C119387070113071700F3
:1028D0002320230123229301232AF1082328E1083E
:1028E00013038300E3DEEDFC1306C10893050C001F
:1028F00013050D00EF405008631C05A28327410912
:102900000327010913830A006FF09FFB1306C10818
:1029100093050C0013050D00EF401006631A05A087
:102920000346F1068327410913830A006FF08FCB1A
:102930001304F7FFE35C80C2930D000123282103F9
:1029400063DA8D22130770006F00C000130404FFC8
:1029500063D28D2293870701130A1A0023A02C014A
:1029600023A2BC01232AF10823284109938C8C005F
:10297000E35E47FD1306C10893050C0013050D0027
:10298000232CE100EF40407F6314059A832741091F
:10299000032A0109938C0A00032781016FF01FFBB2
:1029A00083260103B3878700232283002320D300DB
:1029B00013071700232AF1082328E1089306700063
:1029C00063D4E6D86FF05FBD9307000093870703D9
:1029D0001304F10BA30FF10A6FF0CFEC8326010370
:1029E000B3874701130717002320D3002322430195
:1029F000232AF1082328E1089306700013038300BB
:102A000063D0E6021306C10893050C0013050D0000
:102A1000EF408076631E05908327410913830A00E7
:102A20008326810303274107330AD4008326C10389
:102A30006342D70C93F61900639E060A8326C103EE
:102A40003304D4003387E6403304444163548700A1
:102A5000130407006356800283260109B3878700A9
:102A6000232043019386160023228300232AF108A2
:102A70002328D10813067000130383006346D64A47
:102A8000634C046233048740635280CC130A000114
:102A90002328210303270109E3548AF0930C7000D3
:102AA0006F00C000130404FFE35C8AEE9387070104
:102AB000130717002320230123224301232AF108AF
:102AC0002328E10813038300E3DEECFC1306C108AE
:102AD00093050C0013050D00EF40006A6304050028
:102AE0006FF00F85832741090327010913830A002B
:102AF0006FF05FFB83260105032641051303830066
:102B0000232CD3FE83260109B387C700232EC3FEDF
:102B100093861600232AF1082328D1081306700093
:102B2000E35ED6F01306C10893050C0013050D00F3
:102B3000EF408064630405006FE09FFF03274107B7
:102B40008327410913830A006FF05FEF1306C10862
:102B500093050C0013050D00EF40006263040500AF
:102B60006FE01FFD83274109032A010913830A002F
:102B70006FF01F9803270103B3878700130A1A0019
:102B800023A0EC0023A28C00232AF108232841096A
:102B900013077000E35A479D6FF01FC21306C10868
:102BA00093050C0013050D00EF40005D6304050064
:102BB0006FE01FF883274109032A0109938C0A005B
:102BC0006FF0DF951307D002A307E1060327810109
:102BD000B307F0406342074C93F9F9F71306D002AC
:102BE0006FF0CFC90325410483258104232A6100A6
:102BF000EF40C02203234101630C052A0327810112
:102C00009307F0FF137BFAFD6302F76093077004EC
:102C10006302FB5E8327810413E709102328E10286
:102C2000832C410463C60764938D0700232A0100A7
:102C3000930760066302FA5E93076004630CFA7000
:102C400083278101130EBBFB133E1E00338EC70189
:102C5000930741082320F10013860C0093070E0010
:102C600093860D009308810713084107130720007E
:102C700013050D00232A61022320C103EF00504CED
:102C80009307700613040500032E0102032341037A
:102C90006306FA46930770043308C501E306FA0099
:102CA00013850C0093850D001306000093060000A9
:102CB000232A610223200103EF80801C03280102E4
:102CC0000323410393070800630205028327410899
:102CD00063FE070193060003138717002322E10810
:102CE0002380D70083274108E3E807FFB3878740A5
:102CF000232EF10293077004630CFB4093075006E8
:102D000063D0477D930760066300FA5C8327410721
:102D1000232CF102032781038326C10393070700B5
:102D20006344D75693F91900639209586346077AAA
:102D300003278103130A70062320E10203274101C0
:102D4000631007380346F106232AF10083290103A3
:102D5000232C01006FE01FFB8327810293877700FC
:102D600093F787FF03A70700938787002322E104D7
:102D700003A7C7FF2324F1022324E1046FF04FDAF5
:102D800083270700130747002324E1026FF04FC396
:102D900083270700130747002324E1026FF00FCEBB
:102DA00083278101A307010663C607EC93F9F9F7AE
:102DB0006FE05FCF1306C10893050C0013050D00EB
:102DC000EF40803B630405006FE09FD683274109F5
:102DD00013830A006FF05F84032701098326C1056E
:102DE00093871700130717002320D30093061000C2
:102DF0002322D300232AF1082328E1089306700038
:102E00001303830063CAE61463040A100327010551
:102E10008326410513038300232CE3FE03270109C6
:102E2000B387F600232ED3FE13071700232AF108D9
:102E30002328E1089306700063C8E638330A40414E
:102E4000635E401D930C00012328210363D24C19BB
:102E5000930D70006F00C000130A0AFF63DA4C176D
:102E600093870701130717002320230123229301CF
:102E7000232AF1082328E10813038300E3DEEDFC95
:102E80001306C10893050C0013050D00EF40C02E7A
:102E9000630405006FE0DFC98327410903270109A7
:102EA00013830A006FF05FFB1305F0FF6FE09FC90B
:102EB0009307700463CC472737C400401304449A37
:102EC00093073000232AF10093F9F9F70346F1063E
:102ED0002320F102232C0100232C01026FE09FE24A
:102EE00037C400401304C4996FF0CFC81306C1085B
:102EF00093050C0013050D00EF4000286304050046
:102F00006FE01FC38327410913830A006FF0DF9826
:102F10000327C103E31C07EE13F71900631407002E
:102F20006FF0CF826FF09FEE1306C10893050C007F
:102F300013050D00EF404024630405006FE05FBF00
:102F4000032741078326C1038327410913830A000E
:102F50003387E6406FF0DFB21306C10893050C001B
:102F600013050D00EF404021630405006FE05FBCD6
:102F7000032A41078327410913830A00E3180AE85B
:102F80006FF01FF993F7190013060700638A070013
:102F9000930700031304F10BA30FF10A6FF08F9056
:102FA0002320010213840A006FF04F901306C1081A
:102FB00093050C0013050D00EF40001C6304050091
:102FC0006FE01FB78327410913830A006FF00FE9F1
:102FD00083260103B3874701130717002320D3007B
:102FE00023224301232AF1082328E10893067000D5
:102FF0001303830063D4E6021306C10893050C0093
:1030000013050D00EF404017630405006FE05FB249
:10301000832741090327010913830A008326C1037B
:103020001307170023208300B387F6006FE09FF09B
:1030300013050400EF30D07C2320A1029307050084
:1030400003234101634405006FE09FCA930700001A
:103050006FE01FCA9307F0FF6FE09FC1130A0000E3
:103060006FF0DF83130760006374F70093070700B6
:103070002320F10263C6073837C40040232AF10039
:103080002324610313060000232C0100232C0102DA
:103090001304449D6FE01FC81306D00213071000ED
:1030A000930610006314D7006FE05FFD93062000C5
:1030B0006302D7946FE01FB3130400006FF09F9C6E
:1030C0001307D002A307E106232AF1008329010395
:1030D0001306D002232C01006FE01FC393090700E1
:1030E00013060000130720006FF09FFB9307D00228
:1030F000A307F1061306D0026FF0CFA693F71900CD
:103100003308C501E39E07B8832741086FF01FBE4F
:10311000832741071307D0FF63C0E704032781011A
:10312000634CF702232CF1026FF0DFBE37C400407E
:103130001304849A6FF0DFD8832781010346F106D8
:1031400023246103232AF1002320F102232C010010
:10315000232C01026FE01FBB130AEAFF9387F7FFDE
:10316000232AF106230E410763CC072C1307B00274
:10317000A30EE10613069000634AF6169387070331
:1031800013070003A30FF106230FE10693070108BD
:103190001307C107B387E7400327C103232CF104BA
:1031A000B387E7002320F1029307100063D2E72AD8
:1031B00083270102938717002320F10263C4072AA3
:1031C000232C01026FF09FB71306C10893050C0072
:1031D00013050D00EF30507A630405006FE05F9532
:1031E000032A4107832741090327010913830A00A2
:1031F0006FF0DFC483278101E39E07A0232C8100A9
:103200006FF05FA1232C01006FE09F8093076000A7
:10321000232CF1006FF01FA0930741082320F10039
:10322000832781011308410713860C0093860D0044
:10323000930881071307300013050D002320610256
:10324000EF000070832781010323010213040500AE
:103250003308F500138E07000347040093070003AB
:10326000630EF714032E41073308C8016FF05FA304
:1032700003278104B7070080B34DF7009307D002FE
:10328000232AF1006FF0DF9A0327810393071000D0
:103290006352E01A0327C103B387E7002320F1023A
:1032A00063CE0700130A70066FF05FA983278103BE
:1032B000938717002320F102E3D607FE930700004F
:1032C000130A70066FF09FA783274107232CF10292
:1032D000635CF012032781016312070C93F9190054
:1032E000639E090A2320F1026FF05FA59305B108E0
:1032F000138705001305A000B3E6A7021307F7FF25
:10330000B3C7A702938606032300D700E346F6FE61
:103310009387070393F7F70F9306F7FFA30FF7FEC3
:1033200063F0B6181306E1076F00800083C706003C
:103330001306160093861600A30FF6FEE398B6FE5A
:103340009307C108B387E7401307E107B307F70006
:103350006FF01FE4930741082320F10083278101C8
:1033600013860C0093860D0093088107130841070C
:103370001307300013050D0023206102EF00405CAD
:10338000032E810103230102130405009307600447
:103390003308C401E302FAEC6FF09F9083278101A8
:1033A0000327810393871700B307F7002320F10257
:1033B000E3D60798930700006FF05F9813850C0021
:1033C00093850D001306000093060000232C610274
:1033D000232A01032320C103EF70502A032841034D
:1033E00003238103E30005E8032E01029307100085
:1033F000338EC741232AC1073308C8016FF05F8AA3
:10340000930700006FF05FC783278101639A07006D
:1034100093071000B3F9F9002320F102E380099229
:1034200083278101938727002320F102E3D80790A7
:103430006FF05FF893072000B387E7406FF09FE5D8
:103440001307D002B307F040A30EE1066FF09FD23E
:10345000B3F9F900E39E09D403270102930707009B
:10346000E35007D6930700006FF09FD583278102B2
:1034700083A80700938747002324F102232C11011E
:1034800063C408006FE04FD89307F0FF232CF100CE
:103490006FE08FD7A307A10693E909016FE05FF002
:1034A0009307E1076FF0DFCE93F71900E39007EE83
:1034B00083274108B3878740232EF102E30A4BC5D7
:1034C000832741076FF09FC9A307A1066FE01FF68E
:1034D000A307A1066FE01FF0930700006FF05F8560
:1034E000A307A1066FE09FCBA307A10693E90901FB
:1034F0006FE05FC6A307A10693E909016FE0DFC093
:10350000A307A1066FE09FB4A307A1066FE08FE9B0
:10351000A307A1066FE01FD5A307A1066FE09FDDFB
:10352000A307A1066FE05FD9B7E700409306060046
:10353000138605009305050003A507CE6FE04FB184
:1035400083D7C50003AE850603D3E50083A8C50174
:1035500003A84502130101B893F7D7FF13070040F2
:10356000232C81462316F1001384050093070107DD
:1035700093050100232A914623282147232E114633
:10358000130905002324C10723176100232E11010D
:10359000232201032320F1002328F1002324E1004A
:1035A000232AE100232C0100EFE08FAA93040500F9
:1035B000634A05009305010013050900EF10102D63
:1035C000631C05028357C10093F707046388070053
:1035D0008357C40093E707042316F4008320C147F0
:1035E00013850400032481478324414703290147AD
:1035F00013010148678000009304F0FF6FF09FFC07
:10360000B7E7004083A707CE130101FF2324810001
:103610002322910023261100930405001384050042
:103620006386070003A78703630C070C0317C40016
:103630009317070193D7070193F687006382060467
:10364000832604016382060613F717006310070838
:1036500093F7270013070000639407000327440132
:103660002324E40013050000638E06068320C100B6
:1036700003248100832441001301010167800000BD
:1036800093F60701638E060A93F7470063900708D5
:1036900083260401936787002316F400939707019C
:1036A00093D70701E39206FA13F7072813060020C1
:1036B000E30CC7F89305040013850400EF20C04015
:1036C0008357C400832604016FF01FF88327440149
:1036D0002324040013050000B307F040232CF4005A
:1036E000E39606F88317C40013F70708E30007F80A
:1036F00093E707042316F4001305F0FF6FF01FF79C
:1037000013850700EF1090546FF05FF283250403D8
:10371000638E0500930704046388F5001385040095
:10372000EF1010680317C400232804028326040145
:103730001377B7FD232204002320D4006FF09FF5F8
:103740009307900023A0F400136707042316E400F6
:103750001305F0FF6FF09FF1130101FE23282101F3
:103760008327050103A90501232E1100232C8100C5
:10377000232A9100232631012324410123225101D0
:1037800063CC271B1309F9FF131F2900138445017C
:10379000B309E401130A4501330FEA0183A70900C5
:1037A00083240F0093871700B3D4F402638E040AB6
:1037B00037030100930E0400130E0A0013060000E5
:1037C000130700001303F3FF938E4E0003A8CEFFF0
:1037D00083260E00130E4E00B3786800B38898025B
:1037E00013580801B3F7660093D606013308980210
:1037F000B388C80013D60801B3F86800330717412F
:10380000B307F70013D70741B3F767003306C800C3
:1038100033786600B38606413387E60093160701C6
:10382000B3E6F600232EDEFE1356060113570741BA
:10383000E3FCD9F983270F00639807029307CFFFB2
:103840006372FA020327CFFF630807006F0080014D
:1038500003A70700631807009387C7FF1309F9FF41
:10386000E368FAFE23282501930A0500EF2050653E
:103870006340050AB70501009384140013060A008B
:10388000930700009385F5FF130444008326C4FFCB
:10389000032706001306460033F8B600B387074136
:1038A0003378B700B387070193D606011357070192
:1038B0003307D74093D60741B306D70013980601C4
:1038C00033F7B7003367E800232EE6FE93D70641AF
:1038D000E3FC89FA131729003307EA00832707005E
:1038E000639807029307C7FF6372FA020327C7FFB3
:1038F000630807006F00800103A707006318070033
:103900009387C7FF1309F9FFE368FAFE23A82A018A
:10391000138504008320C101032481018324410114
:10392000032901018329C100032A8100832A410060
:103930001301010267800000130500006FF09FFD76
:1039400003230504130101F6232C810823282109F0
:1039500023244109232A9107232E1108232A9108A1
:10396000232631092322510923206109232E7107BF
:10397000232C81072328A1072326B1072326010131
:103980002320C1002322D10013040500130A0700DD
:10399000938C070013890800630203020327450480
:1039A0009307100093050300B397E7002322E30079
:1039B0002324F300EF20C04F23200404832441007C
:1039C00063C2040E23200900B707F07F33F7F40029
:1039D0006306F7080329010083294100130600004C
:1039E000930600001305090093850900EF70404914
:1039F000631A050C0327C100930710002320F7006A
:103A00008327010A638E07620327010AB7C70040B4
:103A10009387D79DB7C400402320F7001385C49D2A
:103A20008320C10903248109832441090329010951
:103A30008329C108032A8108832A4108032B01082E
:103A4000832BC107032C8107832C4107032D01071A
:103A5000832DC1061301010A678000000327C100FE
:103A6000B72700009387F7702320F7008327010012
:103A7000638A075837C500409304C59E8327010A0F
:103A8000E38E075E03C734009387340063040700A6
:103A9000938784000327010A138504002320F7007D
:103AA0006FF01FF883274100B704008093C4F4FF30
:103AB000B3F4F400930710002320F90023229100AF
:103AC0006FF09FF01307C1059307810513060900E6
:103AD0009386090013050400EF20907E232CA1009B
:103AE00013D74401631A0752032981058329C105AD
:103AF00093070002B309390113872943E3DAE7107A
:103B0000930700043387E740832701001385294189
:103B1000B394E40033D5A70033659500EF70C04738
:103B2000B70710FEB385B700930710009389F9FF1C
:103B30002326F102B7C7004003A687DE83A6C7DEAF
:103B4000EF60504EB7C7004003A607DF83A647DFEC
:103B5000EF601053B7C7004003A687DF83A6C7DF17
:103B6000EF605047130B050013850900938B050088
:103B7000EF704036B7C7004003A607E083A647E0D2
:103B8000EF601050130605009386050013050B0027
:103B900093850B00EF601044130D0500938D050015
:103BA000EF700048930B0500130600009306000019
:103BB00013050D0093850D00EF70002C6346057210
:103BC000930710002320F1029307600163EA770353
:103BD00037C7004093973B00130707A1B387E7005F
:103BE00003A5070083A547000326010083264100A3
:103BF000EF708022E35AA000938BFBFF2320010289
:103C0000B30939419389F9FF130D000063C00944DA
:103C100063C40B6CB389790123227103130C000078
:103C20009307900063EA474393075000130810007E
:103C300063D64701130ACAFF130800009307300038
:103C4000E30CFA4EE3DE474593074000E304FA3005
:103C500093071000232EF10093075000E318FA4455
:103C6000B3879B01138B17002324F10213060B006B
:103C700013090B00E35060432322040493077001EF
:103C80009305000063F2C70213071000930740007A
:103C900093971700938647019305070013071700B2
:103CA000E378D6FE2322B40413050400232801017F
:103CB000EF20C0152320A4049307E000930405001F
:103CC00063E4273D032801016300083C032501004C
:103CD000832541002320A1042322B104E35C705515
:103CE00013F7FB009316370037C7004093DA4B40B9
:103CF000130707A13387E60093F60A01032807009C
:103D00008328470013092000638A060237C7004052
:103D1000032607B2832647B223280101232A110173
:103D2000EF60505C032801018328410193FAFA00F7
:103D30002320A1002322B1001309300063800A046C
:103D400037C70040930D07B093F61A00130508001B
:103D500093DA1A4093850800638E060003A60D00CF
:103D600083A64D0013091900EF6090311308050078
:103D700093880500938D8D00E3980AFC03250100CC
:103D8000832541001306080093860800EF609055D4
:103D90002328A100232AB10083270102638207029E
:103DA000B7C7004003A687E083A6C7E0032501014B
:103DB00083254101EF70400C635405006F00507182
:103DC00013050900EF70001103260101832641014C
:103DD000EF60102BB7C7004003A687E183A6C7E1B9
:103DE000EF60501FB707C0FC13080500B388B70089
:103DF000E3000B382324710513030B008327C10153
:103E0000E38207529307F3FF37C70040130707A168
:103E100093973700B387E70003A6070083A6470000
:103E2000B7C7004003A587E283A5C7E22328610244
:103E30002320010123221101EF60D04A0328010051
:103E400083284100938D1400130608009386080010
:103E5000EF60501D2320A1002322B10003250101A2
:103E600083254101EF70C01B13090500EF70800628
:103E700013060500938605000325010183254101F2
:103E8000EF60501A13060500938605001307090317
:103E90002328A100232AB100032501008325410026
:103EA0001379F70F23802401EF6010776342A0128B
:103EB000B7CA0040032601018326410103A58AE019
:103EC00083A5CAE0EF60101613060500938605006F
:103ED0000325010083254100EF6010746354A000A6
:103EE0006F00906B0323010313071000E35A67323E
:103EF00037C70040832747E1032707E1232AF10260
:103F00002328E10283A7CAE003A78AE0B38A6400FA
:103F1000232EF102232CE1026F00400203258103CE
:103F20008325C103EF6010100326010083264100A2
:103F3000EF609074E3420566E3845D2F032601037E
:103F4000832641030325010083254100938D1D0035
:103F5000EF601013B7C7004003A607E183A647E14F
:103F60002320A1002322B100032501018325410163
:103F7000EF601011232AB1002328A100EF70400A3E
:103F800013090500EF601075032801018328410122
:103F900013060500938605001305080093850800A5
:103FA000EF60500813070903032601008326410030
:103FB0001379F70FA38F2DFF2328A100232AB10027
:103FC000EF60906B0326010183264101E35805F45D
:103FD000832B81048325810113050400938B1B002F
:103FE000EF10106D8327C10023800D0023A07701FF
:103FF0008327010AE384070823A0B701138504007F
:104000006FF01FA29397C400E39607A637C5004040
:104010009304059E6FF09FA6B70710009387F7FFE4
:10402000B3F7F900B706F03F13050900B3E5D70071
:10403000930917C003298105232601026FF09FAF62
:10404000B7C400401385C49D6FF09F9D330D304170
:10405000930900006FF0DFBB2322040493050000E6
:1040600013050400EF10905A130BF0FF9307100094
:10407000930405002320A40423246103930C00006F
:10408000130A0000232EF1008327C10563C8071E11
:104090001307E0006344771F37C70040130707A1E9
:1040A00093973B00B387E70003A7070083A7470068
:1040B0002328E100232AF10063CE0C6A03290100C2
:1040C00083294100032A0101832A410113050900C4
:1040D00013060A0093860A0093850900EF6090207A
:1040E000EF601074130C0500EF60D05E13060A0039
:1040F00093860A00EF60C0781306050093860500DA
:104100001305090093850900EF60C07193070C0344
:104110002380F4001307100013080500938805009E
:10412000938D1400630CEB0C37C70040032607E1A6
:10413000832647E12320E100EF608074130600002E
:1041400093060000130A0500938A0500EF605053A0
:1041500003270100E30005E8832747E1032707E180
:10416000138924002322F1002320E100338B640112
:104170006F004002EF60C07013060000930600005D
:10418000130A0500938A050013091900EF60504FC8
:10419000E30205E4832D4101032D010113050A000B
:1041A00093860D0013060D0093850A00EF609013AF
:1041B000EF601067130C0500EF60D05193860D007F
:1041C00013060D00EF60C06B130605009386050013
:1041D00013050A0093850A00EF60C06493070C037F
:1041E000A30FF9FE130805009388050003260100BC
:1041F00083264100930D0900E31E2BF713060800E8
:10420000938608001305080093850800EF60805C22
:104210001309050093890500130605009386050020
:104220000325010183254101EF601045634205022A
:104230000325010183254101130609009386090026
:10424000EF601044E31805D8137C1C00E3040CD87D
:1042500003C9FDFF130690036F000001E38A960671
:1042600003C9F6FF938D06009386FDFFE308C9FEA0
:10427000130719002380E6006FF0DFD50327C10183
:104280006308070813071000635047551307FBFF27
:10429000B30DEC40635EEC0083274102330C874191
:1042A000930D0000B38787012322F102130C07004E
:1042B0002328A10193070B00E3440B1E9305100074
:1042C00013050400330DFD00B389F900EF1090745D
:1042D000930A05006F008004330D7D41330C70415B
:1042E000232201026FF0DF9313850B00EF60903EF5
:1042F000130605009386050013050D0093850D0038
:10430000EF60D0373335A000B38BAB406FF05F8BDD
:10431000930D0C002328A101930A0000032701013B
:104320009307070063000702635E300163CEE93C38
:1043300003270101330DFD40B389F9403307F740EE
:104340002328E10003298101635280078327C101EB
:104350006388076863820D0493850A0013860D0045
:1043600013050400EF20400D03268101930505008D
:10437000930A050013050400EF10106D83258101D9
:1043800013090500330CBC4113050400EF10503233
:10439000630E0C00232C21018325810113060C00E0
:1043A00013050400EF2040091309050093051000D0
:1043B00013050400EF10106683274102130C05005B
:1043C00063800706138607009305050013050400A4
:1043D000EF20800693071000130C050063DA4733C3
:1043E000930D000083270C019387370093972700D4
:1043F000B307FC0003A54700EF10104F930700021E
:104400003385A7406F00C002232001026FF04FFFE9
:10441000B384E74083270100339597006FF00FF0D6
:104420009307100063DC4743930D000013850700DA
:10443000B307350193F7F701638A071A13070002E0
:104440003307F74093064000E3DEE6181307C00188
:10445000B307F74003270101330DFD00B389F900CD
:104460003307F7002328E100635CA00193050900EE
:1044700013060D0013050400EF20800F130905003B
:10448000635C300193050C001386090013050400DA
:10449000EF20000E130C050083270102639C071414
:1044A000635E60438327C101638C07188327010182
:1044B000635CF00093850A0013860700130504006F
:1044C000EF20000B930A0500138D0A00639C0D601A
:1044D000B3876401232EF100832701009389140020
:1044E00093F717002328F10093050C00130509002A
:1044F000EFF08FA6930D050093850A0013050900C0
:10450000EF20001C130B050013060D0093050C0093
:1045100013050400EF20C0208326C5001387F9FF90
:10452000232CE10093070500938C0D031307100063
:10453000639E0600930505002320A10013050900D2
:10454000EF2000188327010013070500938507005B
:10455000130504002320E100EF109015032701004C
:10456000B36747016396070083270101638A072623
:10457000634E0B28336B4B0163160B00832701013D
:10458000638607286340E0708327C101A38F99FFEA
:10459000938D09006380377193050900930600002D
:1045A0001306A00013050400EF10D0121309050034
:1045B000930600001306A00093850A00130504006B
:1045C0006384AA2BEF10101193050D00930A0500C8
:1045D000930600001306A00013050400EF10900FCF
:1045E000130D0500938919006FF01FF09307C001A8
:1045F0006FF05FE693050C0013050900EF20400CF7
:10460000E35005EA93050900930600001306A00095
:1046100013050400EF10100C8327C10113090500D6
:10462000938BFBFF6396077883278102138B070028
:104630006348F0009307200063CE477B032B810281
:10464000938904006F00C000EF10D0081309050023
:1046500093050C0013050900EFF00F9093891900E2
:10466000930C0503A38F99FFB3879940930600002D
:104670001306A0009305090013050400E3C667FDB7
:1046800063586063B38D64019309000093050900CA
:104690001306100013050400EF10906D93050C0035
:1046A000232CA100EF20C0016358A03483C6FDFF76
:1046B000130690036F000001630897268346F7FFF7
:1046C000930D07001387FDFFE388C6FE938616004F
:1046D0002300D70093050C0013050400EF10407D64
:1046E000E38A0A8E638A0900638859019385090069
:1046F00013050400EF10C07B93850A001305040026
:10470000EF10007B6FF01F8D938709006FF05FC281
:1047100083270100E39607CC83264100930D000018
:104720001397C60063100702B707F07FB3F7D700EF
:10473000638A070093071000130D1D009389190069
:10474000938D07008327410213051000E38207CEF3
:104750006FF05FC993071000232EF100635490138C
:1047600013860C0013890C0023249103138B0C0077
:104770006FF08FD0E3446095631E0B24B7C70040F1
:1047800003A607E283A647E2032501018325410131
:10479000130C0000930A0000EF60800E0326010056
:1047A00083264100EF6040616346051693CBFCFF12
:1047B000938D040093050C0013050400EF10406F67
:1047C000E38A0A806FF05FF30327C1026306074E96
:1047D00093873743930D0C002328A1016FF01FAE80
:1047E00093079003638AFC0463546001938C1D0358
:1047F0008327810193890A00232C2101938D1700BF
:1048000023809701930A0D006FF0DFECE352E0FE86
:10481000930509001306100013050400EF1050550E
:1048200093050C0013090500EF109069635AA05618
:1048300093079003E39CFCFA8327810113079003FD
:1048400093890A00938D17002380E700930A0D00D7
:10485000232C2101930690036FF09FE503270100AD
:10486000E31407BC6FF05FEBEF10C066930A05001E
:10487000130D0500938919006FF01FC713850400FD
:104880006FF00F9A1309100023242103130B090062
:10489000930C090023220404930500006FF0CFC09D
:1048A000232E010093072000E30AFAEA23220404DE
:1048B0009305000013050400EF104055130BF0FFA3
:1048C00093071000930405002320A404232461030C
:1048D000930C0000232EF1006FF00FFB93072000D4
:1048E000E3D247BD631E0B4493050C009306000002
:1048F0001306500013050400EF10C05D930505007A
:10490000130C050013050900EF10905B232C210107
:10491000E35EA0E813071003938D14002380E400E6
:10492000938B1B006FF01FE913071003938B1B0081
:104930002380E4006FF01FDA232E01006FF04FB2E6
:1049400013050900EF600059032601018326410188
:10495000EF501073B7C7004003A687E183A6C7E1F5
:10496000EF505067B707C0FC13080500B388B700C5
:10497000B7C7004003A607E283A647E2032501016B
:10498000832541012320010123221101EF50906969
:1049900003280100832841002328A10013060800F2
:1049A00093860800232AB100EF6000476346A02CDD
:1049B00003280100832841000325010183254101CB
:1049C000B707008013060800B3C61701EF60C04A9E
:1049D00063580504130C0000930A00006FF01FDDFC
:1049E0009305090013060C0013050400EF10D024F2
:1049F000130905006FF09F9B6316050093FC1C00D4
:104A0000E3960CCA130600036F008000938D060026
:104A100003C7FDFF9386FDFFE30AC7FE6FF09FCB40
:104A200003270104832741042320E1002322F1000E
:104A30006FF08FE50325010483254104B30770411E
:104A40002328A100232AB10013092000638607B49C
:104A500013F7F700B7C60040938606A11317370077
:104A60003307D700032607008326470093D7474024
:104A70002320F100EF50D060832701002328A100FC
:104A8000232AB100638A07B037C70040930D07B0EF
:104A900093F617000325010193D7174083254101A1
:104AA0006382060203A60D0083A64D002320F100B9
:104AB00013091900EF50D05C832701002328A100BF
:104AC000232AB100938D8D00E39407FC6FF0CFACE7
:104AD000130700032380E400938B1B0003C9FDFF31
:104AE0006FF00FF983A54A0013050400EF100032A0
:104AF00003A60A01930905009385CA001306260040
:104B0000131626001305C500EFC05FA7130610009B
:104B10009385090013050400EF109025130D05007F
:104B20006FF01F9B9307F3FF37C70040130707A1E0
:104B30002326F10493973700B387E70003A5070006
:104B400083A5470013060800938608002320610010
:104B5000EF501053232CA102232EB1020325010193
:104B600083254101938D1400EF60804B13090500EC
:104B7000EF6040361306050093860500032501010A
:104B80008325410113090903EF50D0490323010094
:104B90002380240113071000130E0500938E0500D7
:104BA0006306E30837C70040832747E1032707E18F
:104BB00013890D00232AF102B38764002328E10240
:104BC0002328F100032601038326410313050E0069
:104BD00093850E00EF50D04A2322B1002320A1007C
:104BE000EF600044930A0500EF60C02E032E010021
:104BF000832E4100130605009386050013050E0061
:104C000093850E00EF50104283270101130919000C
:104C100013880A03A30F09FF130E0500938E0500E6
:104C2000E39227FB8327C104B38DFD0037C9004001
:104C3000032689E28326C9E2032581038325C10374
:104C40002320C1012322D101EF50D038032E0100CF
:104C5000832E410013060E0093860E00EF60C021E4
:104C6000032E0100832E41006350050E03C9FDFF92
:104C7000832B81046FF00FDE130C0000930A0000F9
:104C80006FF05FC993079003E388FCBA938C1C0014
:104C90006FF01FB693890A00930A0D006FF01F9FF3
:104CA000B3076D412328F100930700006FF00FE177
:104CB000130B10006FF01F9D83268105930760037F
:104CC000930D0C00B387D7402328A1016FF00FDFAD
:104CD000E3080BC6832A8102E35450D537C700404E
:104CE000032607E1832647E10325010183254101CE
:104CF0009387FBFF2324F104EF5090382328A10071
:104D000013051900232AB100EF60C01C032601011E
:104D100083264101EF50D036B7C7004003A687E194
:104D200083A6C7E123205101EF50D02AB707C0FC6A
:104D300013080500B388B700032301006FF00F8C40
:104D4000232C21016FF09FA6032681038326C10334
:104D5000032589E28325C9E22320C1012322D10151
:104D6000EF50502C032E0100832E410013060E003D
:104D700093860E00EF60400A130600036346A0000E
:104D80006FF01FCA938D060003C7FDFF9386FDFFDA
:104D9000E30AC7FE6FF0CFA3832B81046FF08FCBA4
:104DA000E31805A493F71C00E38407A46FF05FA841
:104DB00093850A00930600001306A0001305040063
:104DC000EF10401183278102930A0500138B07001F
:104DD000634EF0EC9307200063CE4701032B810262
:104DE0006FF0CFEC6302D7E81307C003B307F740B7
:104DF0006FF04FE6032B81026FF0DFAE8396C500A4
:104E0000130101FE232C810013970601135707019C
:104E100023263101232E1100232A9100232821016A
:104E2000937787001384050093090500639A0710A0
:104E3000B71700009387078003A74500B3E7F60084
:104E40002396F5006356E01C03288402630A080CCD
:104E50009397070193D7070183A40900139737019C
:104E600023A00900635C071A032604058326440572
:104E700093F74700638207048327440083250403D4
:104E80003307F64093D7F7413335E600B386F64053
:104E900013060700B386A640638005028327C40378
:104EA0003307F74093D7F741B335E600B386F640B2
:104EB00013060700B386B6408325C401130700001C
:104EC00013850900E70008009307F0FF6300F50E63
:104ED0008356C400B7F7FFFF9387F77F03270401CA
:104EE000B3F7F6009397070193D707412320E40017
:104EF0002316F4002322040013973701634407109C
:104F00008325040323A09900638C05009307040400
:104F10006386F50013850900EF00806823280402EA
:104F2000130500008320C101032481018324410172
:104F3000032901018329C1001301010267800000D8
:104F400003A90501E30E09FC83A4050013773700CC
:104F500023A02501B38424419307000063140700B4
:104F600083A745012324F400634890006FF05FFBA2
:104F70003309A900E35690FA832744028325C4012C
:104F8000938604001306090013850900E7800700D3
:104F9000B384A440E34EA0FC8357C4001305F0FF84
:104FA00093E707042316F4006FF0DFF7E392A5F20E
:104FB00003A709009307D001E3E0E7FEB70740200D
:104FC00093871700B3D7E70093F71700E38607FC32
:104FD0000356C400B7F7FFFF9387F77F83260401CA
:104FE000B377F6009397070193D707412320D400A6
:104FF0002316F4002322040093963701E3D206F02F
:10500000E31007F02328A404232AB4046FF05FEF11
:1050100003A7C503E34AE0E26FF09FF08325C401D4
:105020001306000093060000130710001385090003
:10503000E70008009307F0FF1306050093860500BC
:105040006308F5008357C400032884026FF05FE211
:10505000E39AA5FE83A70900E38607FE1307D001A4
:105060006386E700130760016398E70023A09900B7
:10507000130500006FF01FEB8357C4001385050074
:1050800093E707042316F4006FF0DFE9130101FE34
:10509000232C8100232E1100130405006306050054
:1050A00083278503638A07028397C500639C0700F3
:1050B0008320C101130500000324810113010102B3
:1050C00067800000130504008320C10103248101CF
:1050D000130101026FF09FD22326B100EF000037C9
:1050E0008325C1006FF05FFC930505006308050090
:1050F000B7E7004003A507CE6FF05FF9B7E70040C0
:1051000003A5C7CDB75500409385C5086F00D002F1
:105110001305000067800000B78500409385853443
:105120006F009001130101FEB7570040232E1100BC
:10513000232C8100232A91000324450023282101E8
:10514000232631012324410123225101232061011F
:1051500093878711232EF5021307052F930730003D
:105160002324E52E2322F52E2320052E930740002D
:10517000130905002316F4001306800093050000B0
:1051800023200400232204002324040023240406F3
:105190002317040023280400232A0400232C0400DE
:1051A00013050406EF00D038377B004083248900C4
:1051B000B77A0040377A0040B7790040130B0BE90B
:1051C000938A4AF1130ACAF8938989FF232064035A
:1051D000232254032324440323263403232E840050
:1051E000930790002396F400930710002397F40090
:1051F000130680009305000023A0040023A20400EE
:1052000023A4040023A4040623A8040023AA040062
:1052100023AC040013850406EF0090310324C90079
:105220009307200123A0640323A2540323A444036F
:1052300023A6340323AE94002316F4009307200022
:105240002317F40023200400232204002324040055
:105250002324040623280400232A0400232C04000A
:10526000130504061306800093050000EF00502C80
:105270008320C101232064032322540323244403F5
:1052800023263403232E840093071000232CF902D5
:105290000324810183244101032901018329C100E1
:1052A000032A8100832A4100032B0100130101021C
:1052B000678000001305000067800000130101FFF4
:1052C0009387F5FF23248100139447009397770079
:1052D00033848740232021011389050093050408A6
:1052E0002322910023261100EFB09FB593040500FF
:1052F000630005021305050123A0040023A2240175
:1053000023A4A4001306040793050000EF00502215
:105310008320C100138504000324810083244100FD
:10532000032901001301010167800000130101FE40
:10533000B7E700402328210103A9C7CD2326310167
:10534000232E110083278903232C8100232A910017
:10535000930905006396070013050900EFF09FDC31
:105360001309092E9304F0FF8327490003248900C1
:105370009387F7FF63DA07006F0040089387F7FF12
:1053800013040407638C97060317C400E31807FE91
:105390009307F0FF2317F400930710002316F4007F
:1053A00023240406232004002324040023220400D1
:1053B00023280400232A0400232C04001306800061
:1053C0009305000013050406EF0090161305040072
:1053D00023280402232A040223220404232404048D
:1053E0008320C10103248101832441010329010198
:1053F0008329C1001301010267800000832709008F
:1054000063860700138907006FF01FF693054000BD
:1054100013850900EFF09FEA2320A9006306050029
:10542000130905006FF05FF49307C00023A0F90093
:10543000130500006FF0DFFAB7E7004003A5C7CD02
:10544000B7850040938585346F00004F832785031F
:1054500063840700678000006FF0DFCC6780000086
:10546000678000006780000067800000B7E70040A9
:1054700003A507CEB75500409385452B6F00C0406C
:10548000B7E7004003A507CEB75500409385051147
:105490006F00803F130101FE2328210137D900400E
:1054A000232C8100232A9100138405002326310137
:1054B000232E11009309050013090941EFC00F9E27
:1054C00003278900B71700009385F7FE8324470060
:1054D00093F4C4FF338484403304B4001354C400F1
:1054E0001304F4FF1314C400634CF400130500000C
:1054F000EF40C00083278900B38797006306F50259
:1055000013850900EFC0CF99130500008320C10166
:105510000324810183244101032901018329C1005E
:10552000130101026780000033058040EF30107DD9
:105530009307F0FF630AF5023707014083274751BD
:1055400083268900B384844093E414003384874025
:105550001385090023A29600232A8750EFC04F9499
:10556000130510006FF09FFA13050000EF3010795B
:10557000032789009306F000B307E540E3D2F6F86D
:10558000B7E6004083A646CD93E717002322F70035
:105590003305D540B706014023AAA6506FF05FF649
:1055A000638E050E130101FF232481002322910045
:1055B000138405009304050023261100EFC00F8E0D
:1055C0000325C4FF930684FFB7D500409377E5FF1A
:1055D0003386F600938505410327460003A885001E
:1055E0001377C7FF630606152322E600137515001F
:1055F00063160502032584FFB386A64003A8860030
:10560000B387A70037D5004013058541630CA81662
:1056100003A5C6002326A800232405013305E600C0
:105620000325450013751500630A050C13E71700E1
:1056300023A2E6003387F6002320F7001307F01FAC
:105640006360F70693D737001387170013173700E7
:1056500003A645003387E5000328070093D72740BA
:1056600013051000B317F500B3E7C700130687FF53
:1056700023A6C60023A4060123A2F5002320D700F9
:105680002326D800138504008320C1000324810051
:1056900083244100130101016FC08F8067800000E7
:1056A00013D7970013064000636AE61013D767000C
:1056B000130597031306870313151500131525000B
:1056C0003385A50003270500130585FF6304E51056
:1056D000032647001376C6FF63F6C700032787003B
:1056E000E318E5FE0325C70023A6A60023A4E600D1
:1056F0002324D5002326D7006FF0DFF8032586008A
:10570000B387E70037D70040130787416304E50EEE
:105710000328C60013E617003387F6002326050189
:105720002324A80023A2C6002320F7006FF01FF156
:1057300013751500B387E70063100502032584FF86
:10574000B386A64003A7C60003A68600B387A700BA
:105750002326E6002324C70037E7004013E617009E
:10576000032787CD23A2C60023A4D500E3ECE7F0EE
:10577000B7E7004083A587D213850400EFF09FD1DF
:105780006FF05FF0B305E60083A5450093F51500C3
:105790006392050E832586000326C600B307F70033
:1057A00013E7170023A6C5002324B60023A2E600B2
:1057B000B386F60023A0F6006FF0DFEC130640017D
:1057C000636CE6041305C7051306B705131515002A
:1057D0006FF0DFEE83A74500135726401306100035
:1057E0003317E600B367F70023A2F500130705009F
:1057F0006FF09FEF23AAD50023A8D50013E7170069
:1058000023A6A60023A4A60023A2E600B386F600E2
:1058100023A0F6006FF01FE713064005636CE60057
:1058200013D7C7001305F7061306E706131515006F
:105830006FF0DFE813064015636CE60013D7F7003E
:105840001305870713067707131515006FF01FE779
:10585000130840551305E00F1306E007E360E8E680
:1058600013D727011305D7071306C707131515000C
:105870006FF0DFE413E7170023A2E600B386F6001B
:1058800023A0F6006FF01FE0130101FE2322510157
:10589000232E1100232C8100232A9100232821018B
:1058A000232631012324410123206101930A052E7F
:1058B00063800A08138B0500130A00009309100087
:1058C0001309F0FF83A44A0003A48A009384F4FF21
:1058D00063C604028357C4009384F4FF63FCF90099
:1058E0008317E4001305040063862701E7000B001B
:1058F000336AAA0013040407E39E24FD83AA0A0066
:10590000E3920AFC8320C10113050A0003248101EC
:1059100083244101032901018329C100032A810055
