:1000000013000000130101F8232031002322110006
:10001000232421002326310023284100232A5100D4
:10002000232C6100232E71002320810223229102C0
:100030002324A1022326B1022328C102232AD102AC
:10004000232CE102232EF102232001052322110596
:10005000232421052326310523284105232A510580
:10006000232C6105232E710523208107232291076C
:100070002324A1072326B1072328C107232AD10758
:10008000232CE107232EF107130000000B4500028B
:10009000EF00003713000000130000001300000001
:1000A000832041008321C1000322010183224101F9
:1000B000032381018323C10103240102832441021C
:1000C000032581028325C102032601038326410300
:1000D000032781038327C1030328010483284104E4
:1000E000032981048329C104032A0105832A4105C8
:1000F000032B8105832BC105032C0106832C4106AC
:10010000032D8106832DC106032E0107832E41078F
:10011000032F8107832FC107130101080B00000083
:100120001300000013000000130000001300000083
:100130001300000013000000130000001300000073
:100140001300000013000000130000001300000063
:100150001300000013000000130000001300000053
:100160001300000013000000130000001300000043
:100170001300000013000000130000001300000033
:100180001300000013000000130000001300000023
:100190001300000013000000130000001300000013
:1001A0001300000013000000130000001300000003
:1001B00013000000130000001300000013000000F3
:1001C00013000000130000001300000013000000E3
:1001D00013000000130000001300000013000000D3
:1001E00013000000130000001300000013000000C3
:1001F00013000000130000001300000013000000B3
:10020000930000001301000093010000130200009E
:100210009302000013030000930300001304000086
:10022000930400001305000093050000130600006E
:100230009306000013070000930700001308000056
:10024000930800001309000093090000130A00003E
:10025000930A0000130B0000930B0000130C000026
:10026000930C0000130D0000930D0000130E00000E
:10027000930E0000130F0000930F00001300000006
:100280001300000013000000130000001300000022
:10029000130000001305F00F0B20050417310004B4
:1002A0001301C168EF008068EF0080036F00000059
:1002B000130101FE232E8100130401022326A4FE54
:1002C000B70710F0938707F00327C4FE23A0E700C9
:1002D000130000000324C101130101026780000024
:1002E000130101F8232E1106232C810613040108A3
:1002F000B7E7000003A607DF83A647DF1307C4F8AC
:10030000B7E70000938507DC13050700EF00D0195D
:100310009307C4F813850700EF00002793056003D7
:10032000B71700041385C78DEF00403D93061000FA
:100330001306000093058000B71700041385C78DCE
:10034000EF00403F93050000B71700041385C78DE9
:10035000EF00005793050000B71700041385C78D01
:10036000EF00404FB7E700001385C7DCEF00C02166
:10037000B7E70000138587DDEF00D006B7E7000080
:1003800003A707DF83A747DF13060700938607004D
:100390009305A002B7E70000138547DEEF00900445
:1003A000B7E700001385C7DCEF00001E930550037C
:1003B000B71700041385C78DEF0040419305600314
:1003C000B71700041385C78DEF00404093057003F5
:1003D000B71700041385C78DEF00403F9305D00089
:1003E000B71700041385C78DEF00403E9305A000AA
:1003F000B71700041385C78DEF00403D6FF01FFB5A
:10040000130101FE232E8100130401022326A4FE02
:10041000B717000483A7078C13871700B7170004CA
:1004200023A0E78C130000000324C1011301010283
:1004300067800000130101FF2326810013040101DE
:1004400093070000138507000324C1001301010175
:1004500067800000130101FF23261100232481007F
:1004600013040101EFF01FFD93070500138507003A
:100470008320C10003248100130101016780000073
:10048000130101FE232E8100130401022326A4FE82
:1004900093070000138507000324C1011301010223
:1004A00067800000130101FE232E81001304010266
:1004B0002326A4FE2324B4FE93070000138507001F
:1004C0000324C1011301010267800000130101FE32
:1004D000232E8100130401022326A4FE93070000AB
:1004E000138507000324C101130101026780000086
:1004F000130101FE232E8100130401022326A4FE12
:100500002324B4FE2322C4FE9307000013850700B2
:100510000324C1011301010267800000130101FEE1
:10052000232E8100130401022326A4FE2324B4FEFB
:100530002322C4FE93070000138507000324C10192
:100540001301010267800000130101FE232E110038
:10055000232C81001304010293070500A307F4FE76
:100560008347F4FE93850700B71700041385C78DF2
:10057000EF00C025130000008320C1010324810186
:100580001301010267800000130101FE232E1100F8
:10059000232C8100130401022326A4FE8327C4FE1A
:1005A00083C70700638007028327C4FE13871700F1
:1005B0002326E4FE83C7070013850700EFF0DFF86A
:1005C0006FF0DFFD130000008320C10103248101CF
:1005D0001301010267800000130101FD23261102AF
:1005E0002324810213040103232EA4FC232CB4FC36
:1005F000232AC4FC232604FE0327C4FE832744FDCC
:100600006376F7028327C4FE032784FDB307F70050
:1006100083C7070013850700EFF01FF38327C4FE8D
:10062000938717002326F4FE6FF01FFD832744FDF8
:10063000138507008320C1020324810213010103F3
:1006400067800000130101FE232E1100232C81007E
:10065000130401022326A4FE2324B4FE0327C4FEB0
:10066000930710006312F702032784FEB707010007
:100670009387F7FF631AF700B70501F0B717000477
:100680001385C78DEF008004130000008320C10193
:10069000032481011301010267800000130101FF9F
:1006A000232611002324810013040101B707010050
:1006B0009385F7FF13051000EFF0DFF88320C100EA
:1006C000032481001301010167800000130101FE72
:1006D000232E8100130401022326A4FE2324B4FE4A
:1006E0008327C4FE032784FE23A0E7001300000035
:1006F0000324C1011301010267800000130101FE00
:10070000232E8100130401022326A4FE2324B4FE19
:100710008327C4FE83A7070093878700032784FEEF
:1007200023A0E700130000000324C101130101020C
:1007300067800000130101FE232E810013040102D3
:100740002326A4FE2324B4FE2322C4FE2320D4FEA9
:100750008327C4FE83A707009387C700032784FE6F
:100760001307F7FF832644FE939686003367D7006E
:10077000832604FE939606013367D70023A0E70083
:10078000130000000324C10113010102678000006F
:10079000130101FE232E1100232C810013040102FA
:1007A0002326A4FE0325C4FEEF004007930705009F
:1007B00093B7170093F7F70F138507008320C10144
:1007C000032481011301010267800000130101FE6F
:1007D000232E1100232C8100130401022326A4FEE2
:1007E0002324B4FE0325C4FEEFF09FFA930705000F
:1007F000638407006FF01FFF8327C4FE83A70700F1
:10080000032784FE23A0E700130000008320C1011A
:10081000032481011301010267800000130101FE1E
:10082000232E8100130401022326A4FE8327C4FE85
:1008300083A707009387470083A7070093D7070183
:1008400093F7F70F138507000324C1011301010279
:1008500067800000130101FE232E810013040102B2
:100860002326A4FE93870500A305F4FE8327C4FE78
:1008700083A70700138747008347B4FE638E0700F2
:100880008327C4FE83A707009387470083A7070039
:1008900093E717006F0080018327C4FE83A707003A
:1008A0009387470083A7070093F7E7FF2320F7000C
:1008B000130000000324C10113010102678000003E
:1008C000130101FE232E8100130401022326A4FE3E
:1008D00093870500A305F4FE8327C4FE83A70700C2
:1008E000138747008347B4FE638E07008327C4FE47
:1008F00083A707009387470083A7070093E7270094
:100900006F0080018327C4FE83A7070093874700F9
:1009100083A7070093F7D7FF2320F70013000000F9
:100920000324C1011301010267800000130101FFCC
:10093000232611002324810013040101B7170004AA
:1009400013874792B71700049387C78DB307F74003
:100950001386070093050000B71700041385C78DA1
:10096000EF004016B71700041387C78DB7070004C0
:1009700093870700B307F74013860700B707010006
:10098000938587D7B707000413850700EF00800120
:10099000130000008320C100032481001301010122
:1009A00067800000B3C7A50093F73700B308C50000
:1009B0006392070E9307300063FEC70E93773500EE
:1009C000639A070413F8C8FF930708FE130705008E
:1009D0006366F506938605009307070063780703AF
:1009E00003A60600938747009386460023AEC7FE02
:1009F000E3E807FF9347F7FF338807011378C8FF41
:100A00001308480033070701B38505016368170918
:100A1000678000001307050083C605001307170051
:100A200093773700A30FD7FE93851500E39607FE53
:100A300013F8C8FF930708FEE37EF7F883A30500C9
:100A400083A2450083AF850003AFC50083AE0501D7
:100A500003AE450103A3850103A6C50193854502A5
:100A60001307470283A6C5FF232E77FC232057FEDA
:100A70002322F7FF2324E7FF2326D7FF2328C7FFDE
:100A8000232A67FE232CC7FE232ED7FEE368F7FA3E
:100A90006FF05FF4130705006374150383C7050047
:100AA0001307170093851500A30FF7FEE36817FFE0
:100AB0006780000013070500E36215FF6FF05FF524
:100AC000678000001308F00013070500637EC8026A
:100AD0009377F7006390070A63920508937606FF01
:100AE0001376F600B386E6002320B7002322B70072
:100AF0002324B7002326B70013070701E366D7FEB8
:100B00006314060067800000B306C8409396260071
:100B100097020000B38656006780C6002307B7001F
:100B2000A306B7002306B700A305B7002305B70047
:100B3000A304B7002304B700A303B7002303B7003F
:100B4000A302B7002302B700A301B7002301B70037
:100B5000A300B7002300B7006780000093F5F50FEE
:100B600093968500B3E5D50093960501B3E5D500CE
:100B70006FF0DFF69396270097020000B3865600C9
:100B800093820000E78006FA93800200938707FFB4
:100B90003307F7403306F600E378C8F66FF0DFF36B
:100BA000130101FC2324C1022326D102232AF102CE
:100BB0002328E102232C0103232E110313860500B1
:100BC000832585009307810293860700232E110059
:100BD0002326F100EF10905D8320C1011301010471
:100BE00067800000371300040323838C130101FC8A
:100BF0002324C1022326D102232AF1022322B10297
:100C00002328E102232C0103232E110383258300D3
:100C1000930741021306050093860700130503009E
:100C2000232E11002326F100EF1050588320C1011C
:100C30001301010467800000130101F5130EC109BF
:100C40002322F10A3703008093078020938E05004A
:100C50001343F3FF232ED108231EF1009305010156
:100C60009307F0FF93060E0023261108231FF100BF
:100C70002320E10A2324010B2326110B2328D10171
:100C80002320D103232C6100232261022326C101EA
:100C9000EF00800983270101238007008320C1081A
:100CA0001301010B67800000930E05003715000447
:100CB000130101F50325858C130E81092322F10A06
:100CC00037030080930780201343F3FF232CC108D0
:100CD000232ED108231EF100138605009307F0FF91
:100CE0009305010193060E0023261108231FF1002E
:100CF0002320E10A2324010B2326110B2328D101F1
:100D00002320D103232C6100232261022326C10169
:100D1000EF00800183270101238007008320C108A1
:100D20001301010B67800000130101EC232E111247
:100D3000232C8112232C811113040600138C05002F
:100D40002322D102232A911223282113232631138F
:100D5000232441132322511323206113232E7111C5
:100D6000232A91112328A1112326B1112324A104A0
:100D7000EF50107283270500138507002328F10424
:100D8000EF7010498357CC00232AA10493F707087A
:100D90006388070083270C01639407006F10C05D10
:100DA000B7E70000938787DF2324F102B7E700004D
:100DB000938BC7F5032A8104B7E70000130D010CDC
:100DC00037E900009387C7FB2326A109232A0108DE
:100DD00023280108232C01022320010423220104DB
:100DE00013030D0023260104232C0104232C0100EE
:100DF0001309C9F6232EF1049304040083C70400E9
:100E00006382076613075002138404006396E700A9
:100E10006F0040056388E700130414008347040053
:100E2000E39A07FEB3099440638E09020327410940
:100E30008327010923209300330737019387170085
:100E400023223301232AE1082328F1081307700025
:100E5000130383006340F71083278101B3873701B1
:100E6000232CF10083470400638407109307F0FFED
:100E700093041400A3070106930500001305000066
:100E8000232AF10013070000930900009306800550
:100E9000130690001308A00283CA04009384140070
:100EA00093870AFEE3E6F61E8328810293972700C4
:100EB000B387170183A707006780070093E909013B
:100EC0006FF09FFD8327410203A707009387470028
:100ED0002322F102E35207FC3307E04093E9490083
:100EE0006FF09FFB930700032320E102832641015B
:100EF000032741022308F10693078007A308F106A0
:100F0000A307010693074700032B070013E72900F7
:100F1000E3CC061A93F9F9F72322F10293E92900A9
:100F2000E31C0B14B7E70000938707FA2326F104AC
:100F3000930A800783274101930D0000130B0000E3
:100F40006394071A232A0100232E010013040D00C5
:100F50006F00401C1306C10893050C0013050A001E
:100F6000EF7010346312050213030D006FF0DFEE13
:100F700083274109638A0700032581041306C108FA
:100F800093050C00EF70D0318357CC00032581010D
:100F900093F70704638407006F10C0548320C113C4
:100FA0000324811383244113032901138329C112CC
:100FB000032A8112832A4112032B0112832BC111B0
:100FC000032C8111832C4111032D0111832DC1109C
:100FD0001301011467800000930510001305B0028F
:100FE0006FF09FEB2320E102638405006F10501423
:100FF00093F70901638E075003274102A3070106F7
:1010000093074700032B0700032741016342075260
:101010002322F10293F9F9F7E3180B4683274101E4
:10102000930D0000130B0000639407006F10803DC8
:1010300013040D0093777B001304F4FF93870703D9
:101040002300F400135B3B00E3160BFE13F71900BB
:10105000630E070A13070003638AE70A9307F4FF86
:10106000A30FE4FE3307FD40232EE10013840700A5
:101070006F00400A2320E102638405006F105011C5
:10108000B7E70000938707FA2326F10493F70901D5
:101090006390075693F70904638C07548327410232
:1010A00003DB0700938747002322F10293F719001F
:1010B000638C075463140B006F00D07F032741013A
:1010C000930700032308F106A3085107A3070106AD
:1010D00093E72900635407006F10404B93F9F9F729
:1010E00093E92900930D00000327C10413040D00A8
:1010F0009377FB00B307F70083C707001304F4FFDF
:10110000135B4B002300F400E3140BFEB3078D4088
:10111000232EF1000327C101832641019307070015
:101120006354D700938706002328F100232A010285
:1011300063880D0083270101938717002328F1009E
:1011400093F729002326F102638807008327010112
:10115000938727002328F10093F749082328F102F9
:101160006392077A8327010203270101338BE7404B
:10117000635A607913080001232E71038327410904
:101180000327010963506807930C0800930D700052
:101190006F00C000130B0BFF63D66C05938707012C
:1011A000130717002320730123229301232AF10838
:1011B0002328E10813038300E3DEEDFC1306C108D6
:1011C00093050C0013050A00EF70900DE31E05DA7D
:1011D000130B0BFF832741090327010913030D009C
:1011E000E3CE6CFB8326C103B307FB001307170094
:1011F0002320D30023226301232AF1082328E108B6
:1012000093067000E3C4E634834DF10613038300B4
:10121000638A0D02032701099306F1062320D300F8
:101220009387170093061000130717002322D3009B
:10123000232AF1082328E108930670001303830092
:10124000E3C4E6220327C102630A07020327010958
:10125000930601072320D3009387270093062000DD
:10126000130717002322D300232AF1082328E108BB
:101270009306700013038300E3C8E61C8326010372
:1012800013070008E38EE608032741018326C10106
:10129000B30CD7406358900B930D00012326210314
:1012A0000327010963DE9D05130B70006F00C0006A
:1012B000938C0CFF63D69D059387070113071700D6
:1012C000232023012322B301232AF1082328E10844
:1012D00013038300E35EEBFC1306C10893050C00C7
:1012E00013050A00EF70C07BE31005CA938C0CFF56
:1012F000832741090327010913030D00E3CE9DFB5A
:101300008326C102B3879701130717002320D30058
:1013100023229301232AF1082328E1089306700071
:101320001303830063D0E6021306C10893050C0083
:1013300013050A00EF70C076E31805C4832741093E
:1013400013030D0013F709106312076C8326C10104
:101350000327010923208300B387D7001307170051
:101360002322D300232AF1082328E10893067000E2
:1013700063CEE6661303830093F94900638C090A80
:1013800003270102832601013304D7406354800AF6
:1013900093090001232E71030327010963DE8904E9
:1013A000930A70006F00C000130404FF63D6890421
:1013B00093870701130717002320730123223301AA
:1013C000232AF1082328E10813038300E3DEEAFC63
:1013D0001306C10893050C0013050A00EF70406C5A
:1013E000E31405BA130404FF832741090327010905
:1013F00013030D00E3CE89FA8326C103B387870068
:10140000130717002320D30023228300232AF10887
:101410002328E1089306700063DEE6001306C10886
:1014200093050C0013050A00EF708067E31E05B4F6
:101430008327410903270102832601016354D70052
:1014400013870600832681013387E600232CE10001
:101450006390077E83C704002328010813030D004F
:10146000E392079A138404006FF0DF9F6384050002
:101470006F10404F93F70901E398071E93F9090491
:10148000E384091E0327410283270700130747004F
:101490002322E102035781012390E7006FF01F969A
:1014A00083CA04009384140063940A016F104045BA
:1014B000138E0AFD930700006374C6016F10401B72
:1014C0009384140083CAF4FF93981700939737000E
:1014D000B387F800B387C701138E0AFDE372C6FF16
:1014E00063D407006F108000232AF1006FF05F9B28
:1014F00093E909086FF05F9A2320E10263840500F5
:101500006F10004493E9090193F70901E39607AED0
:1015100093F70904A307010603274102E38207AEFC
:1015200093074700035B070003274101E35207AE1F
:101530002322F102631A0B74930D0000930700003D
:101540006F00C03A2320E102638405006F10C03EA3
:1015500093E9090193F70901E38A070A0327410286
:10156000A307010693074700032B07000327410148
:10157000E34E070A2322F10293F9F9F7930D0000D5
:1015800063040B0E9307900013040D00930C0300EB
:1015900063F2670F9305A00013050B00EFB09022D4
:1015A000130505031304F4FF2300A4009305A00012
:1015B00013050B00EFB0901C130B0500E31C05FC9A
:1015C000B3078D4013830C00232EF1006FF09FB4FE
:1015D0002320E102638405006F104038B7E7000064
:1015E0009387C7F82326F10493F70901E38407AA38
:1015F0008327410203AB0700938747002322F102B0
:1016000093F71900E39807AA83274101A30701066E
:1016100063C8072C93F9F9F7E30E0B90930D0000C4
:101620006FF09FAC2320E102638405006F108032CD
:1016300093F709016394071493F70904638007146F
:1016400083274102039B0700938747002322F1026F
:1016500063400B1483274101834DF10663CC077C63
:1016600093F9F9F7E3100BF283274101E38C078C20
:10167000130B0000130B0B031304F10BA30F610BEF
:101680006FF0DFA893E909046FF01F8193E9190057
:101690006FF09F802320E102E38E05EAA307A106F5
:1016A0006FF05FEB631A05FE93051000130500024F
:1016B0006FF08FFE2320E102638405006F10002984
:1016C00093F78900E384071C8327410293877700FF
:1016D00093F787FF138787002322E10203A7070000
:1016E00083A747002320E1042322F104832C010473
:1016F000032B41042328610013850C0093050B0084
:10170000EF7080011304100003230101E31C851214
:1017100013850C0093050B001306000093060000D0
:10172000EFB0805003230101E34C0562834DF106C5
:1017300093077004E3DA574137E40000130404F818
:10174000930730002328F10093F9F9F7232EF100D5
:10175000232A0100232A01026FF09F9D93E989004B
:101760006FF08FF32320E102638405006F104023A4
:1017700093E9090193F70901E38007EC832741020C
:1017800003AB0700938747002322F102E3540BECDD
:101790009307D002A307F10683274101330B604171
:1017A000E3C2075693F9F9F7930DD0026FF09FDD6E
:1017B000832741022320E102A307010603A40700B7
:1017C000138B470083274101E30804542328610059
:1017D000E3CA074E138607009305000013050400B3
:1017E000EF50905A03230101E304055EB3078540DF
:1017F000232EF100E3C4074E834DF1062328F100A8
:1018000023226103232A0100232A01026FF05F9241
:1018100013070000138E0AFD9384140083CAF4FF9B
:1018200093171700131737003387E7003307EE00CD
:10183000138E0AFDE372C6FF6FF08FE62320E102EC
:1018400003274102930610002328D10083270700B5
:10185000A3070106930D0000230CF108930747002E
:101860002322F102232ED100232A0100232A010280
:10187000130481096FF0DF8CB7E70000938707FA44
:10188000930D00002326F104930A80076FF0DF8593
:101890002320E102638405006F100010638A0AECC4
:1018A000930710002328F100230C5109A307010618
:1018B000930D0000232EF100232A0100232A0102A8
:1018C000130481096FF0DF872322F102B7E70000DC
:1018D000938707FA930907002326F104930A8007E8
:1018E000E31E0BD2930D0000930720001307100096
:1018F000130B0000E380E7D813072000639AE7F298
:101900006FF08FFE832741096FF09F90832681033C
:1019100013071000938717006354D72C832A0109FB
:10192000130710002322E300938A1A002320830068
:10193000232AF10823285109130770001303830099
:10194000634A576B0327410583260105938A1A00D2
:10195000B307F7002322E3002320D300232AF10852
:101960002328510913077000930C83006348576BB9
:10197000032501048325410413060000930600009B
:10198000232AF100EFB0802A832741010327810336
:101990006300053E1307F7FFB387E7001304140045
:1019A000938A1A0023A2EC0023A08C00232AF108BA
:1019B0002328510913077000634A5725938C8C0024
:1019C000832681051307C107938A1A00B387F6009F
:1019D00023A0EC0023A2DC00232AF10823285109CC
:1019E0001307700013838C00E35857991306C1083E
:1019F00093050C0013050A00EF70800A631605D8E2
:101A00008327410913030D006FF01F97130750063A
:101A1000E35E57EF0325010483254104130600000C
:101A200093060000232E6100232AF100EFB040202E
:101A3000832741010323C101631C052403270109F6
:101A40008326C10593871700130717002320D300AF
:101A5000930610002322D300232AF1082328E1084B
:101A6000930670001303830063C0E66603274107F3
:101A7000832681036346D70013F71900E30E078E10
:101A8000032701058326410513038300232CE3FE6E
:101A900003270109B387D700232ED3FE13071700AE
:101AA000232AF1082328E1089306700063C0E67238
:101AB000032781031304F7FFE350808C930A00018E
:101AC000232621030327010963DC8A36930C700067
:101AD0006F00C000130404FF63D48A3693870701A4
:101AE000130717002320230123225301232AF1087F
:101AF0002328E10813038300E3DEECFC1306C1088E
:101B000093050C0013050A00EF609079631E05C66B
:101B1000832741090327010913030D006FF09FFB81
:101B20000327010283260101B30CD740635E90F5C1
:101B3000930D0001232621030327010963DE9D0580
:101B4000130B70006F00C000938C0CFF63D69D05D3
:101B50009387070113071700232023012322B301D2
:101B6000232AF1082328E10813038300E35EEBFC3A
:101B70001306C10893050C0013050A00EF605072AC
:101B8000631405C0938C0CFF8327410903270109C7
:101B900013030D00E3CE9DFB8326C102B38797019B
:101BA000130717002320D30023229301232AF108CF
:101BB0002328E108930670001303830063D6E6EC44
:101BC0001306C10893050C0013050A00EF60506D61
:101BD000631C05BA8327410913030D006FF0CFEA98
:101BE000B3F6E900E39C06D2832A01092322E3002D
:101BF00023208300938A1A00232AF10823285109FD
:101C000013077000930C8300E35C57DB1306C108D5
:101C100093050C0013050A00EF609068631605B683
:101C200083274109832A0109930C0D006FF05FD9C6
:101C30001306C10893050C0013050A00EF605066F7
:101C4000E30A05806FF04FB41306C10893050C003A
:101C500013050A00EF60D064631805B283274109B9
:101C600013030D006FF08FE11306C10893050C00FC
:101C700013050A00EF60D062631805B0832741099D
:101C800013030D006FF00FDC930D00006FF04FBADF
:101C9000832A4107635C5045032741038326810360
:101CA000930A070063D4E600938A06006356500344
:101CB00003270109B3875701232083001307170067
:101CC00023225301232AF1082328E10893067000F8
:101CD0001303830063C0E668E3CE0A0003274103D1
:101CE000B30A57416352501F930C0001232621036E
:101CF0000327010963D85C19930D70006F00C000C1
:101D0000938A0AFF63D05C199387070113071700B2
:101D10002320230123229301232AF1082328E10809
:101D200013038300E3DEEDFC1306C10893050C00EA
:101D300013050A00EF60D056631805A483274109F4
:101D40000327010913030D006FF09FFB1306C10861
:101D500093050C0013050A00EF609054631605A26A
:101D6000834DF1068327410913030D006FF04FCA1D
:101D70001304F7FFE35680C4930D000123262103CB
:101D800063D28D06130770006F00C000130404FFB8
:101D900063DA8D0493870701938A1A0023A02C012C
:101DA00023A2BC01232AF10823285109938C8C001B
:101DB000E35E57FD1306C10893050C0013050A00E6
:101DC000232AE100EF60D04D6310059C130404FF4B
:101DD00083274109832A0109930C0D000327410140
:101DE000E3CA8DFA0327C102B3878700938A1A00DA
:101DF00023A0EC0023A28C00232AF10823285109F8
:101E000013077000E35C57BB6FF05FE093F70904C2
:101E1000A307010603274102638607F493074700DF
:101E2000035B070003274101635607F42322F102F5
:101E3000930D000093071000E30A0BAA6FF08FF4D4
:101E40008326C102B3878700232283002320D30087
:101E500013071700232AF1082328E10893067000CE
:101E600063DAE6D06FF09FB80327410283270700AB
:101E7000130747002322E1020327810123A0E70083
:101E80006FE0DFF78326C102B387570113071700FE
:101E90002320D30023225301232AF1082328E10819
:101EA000930670001303830063D0E6021306C10893
:101EB00093050C0013050A00EF60903E6316058C35
:101EC0008327410913030D0083264103032741079C
:101ED000B30AD400832681036342D70C93F619001A
:101EE000639E060A832681033304D4003387E640C9
:101EF000330454416354870013040700635680027F
:101F000083260109B3878700232053019386160097
:101F100023228300232AF1082328D1081306700006
:101F200013038300634CD646634A045C3304874042
:101F3000635480C4930A0001232621030327010967
:101F4000E3D08AF0930C70006F00C000130404FF0C
:101F5000E3D88AEE93870701130717002320230194
:101F600023225301232AF1082328E10813038300C5
:101F7000E3DEECFC1306C10893050C0013050A0010
:101F8000EF601032630405006FF00F808327410972
:101F90000327010913030D006FF05FFB8326010582
:101FA0000326410513038300232CD3FE8326010956
:101FB000B387C700232EC3FE93861600232AF10899
:101FC0002328D10813067000E35ED6F01306C1087B
:101FD00093050C0013050A00EF60902C63040500C4
:101FE0006FE09FFA032741078327410913030D0080
:101FF0006FF05FEF1306C10893050C0013050A008C
:10200000EF60102A630405006FE01FF88327410981
:10201000832A010913030D006FF0DF921306C10834
:1020200093050C0013050A00EF6090276304050078
:102030006FE09FF583274109832A0109930C0D0066
:102040006FF01F93032501048325410423286100B9
:10205000EF60806C03230101631C05189307700473
:1020600063C6573737E40000130444F89307300081
:102070002328F10093F9F9F7834DF106232EF1009F
:10208000232A0100232A01026FF08F8A832741024D
:102090009387770093F787FF03A70700938787004D
:1020A0002320E10403A7C7FF2322F1022322E10436
:1020B0006FF0CFE383274101A3070106E3C4078242
:1020C00093F9F9F76FE01FE71306C10893050C00B9
:1020D00013050A00EF60D01C630405006FE0DFEA1F
:1020E0008327410913030D006FF05F98032701094F
:1020F0008326C10593871700130717002320D300F9
:10210000930610002322D300232AF1082328E10894
:10211000930670001303830063C0E62C639A0A00E1
:10212000032781036316070013F71900630607A44A
:10213000032701058326410513038300232CE3FEB7
:1021400003270109B387F600232ED3FE13071700D8
:10215000232AF1082328E1089306700063C2E632BF
:10216000B30A504163545031930C000123262103DC
:1021700063D85C2B930D70006F00C000938A0AFF38
:1021800063D05C2B938707011307170023202301DB
:1021900023229301232AF1082328E1081303830053
:1021A000E3DEEDFC1306C10893050C0013050A00DD
:1021B000EF60100F630405006FE01FDD8327410906
:1021C0000327010913030D006FF05FFB1306C1081D
:1021D00093050C0013050A00EF60900C63040500E2
:1021E0006FE09FDA8327410913030D006FF05F8CC6
:1021F000032741019307F0FF93FDFAFD6308F72AD7
:1022000093077004638EFD44032B410493E7091088
:102210002326F102832C010463400B46232801028C
:10222000930760066386FA46930760046380FA5258
:1022300083274101138EBDFB133E1E00338EC70161
:10224000930741082320F10013860C0093070E002A
:1022500093060B009308810713084107130720001A
:1022600013050A00232E61002328C101EF20900CE2
:102270009307700613040500032E01010323C10117
:102280006386FA2C930770043308C5016388FA301B
:1022900013850C0093050B00130600009306000045
:1022A000232E610023280101EFA0901803280101CB
:1022B0000323C10193070800630205028327410835
:1022C00063FE070193060003138717002322E1082A
:1022D0002380D70083274108E3E807FFB3878740BF
:1022E000232CF102930770046386FD2C930750069C
:1022F00063DE5767930760066388FA4283274107C6
:10230000232AF10203274103832681039307070051
:10231000634CD73C93F91900639A093E634C0764F8
:1023200003274103930A7006232EE10003270103CC
:1023300063100724834DF1062328F1008329C1028D
:10234000232A01006FE0DFDE37E400001304C4F746
:102350006FF00FBF1306C10893050C0013050A00A8
:10236000EF600074630405006FE01FC2832741091A
:1023700013030D006FF05F9603258104930500049D
:10238000EF40D02C2320AC002328AC006308055E6E
:1023900093070004232AFC006FE09FA01306C108E6
:1023A00093050C0013050A00EF60806F63040500BD
:1023B0006FE09FBD032741078326810383274109DF
:1023C00013030D003387E6406FF01FB637E40000BB
:1023D000130484F86FF09FC91306C10893050C001D
:1023E00013050A00EF60C06B630405006FE0DFB9FE
:1023F000832A41078327410913030D00E39A0AD278
:102400006FF01FD293F71900832D41016386070AED
:10241000930700031304F10BA30FF10A6FE01FCF22
:102420008326C102B3875701130717002320D30067
:1024300023225301232AF1082328E1089306700080
:102440001303830063D4E6021306C10893050C004E
:1024500013050A00EF60C064630405006FE0DFB29B
:10246000832741090327010913030D0083268103F4
:102470001307170023208300B387F6006FE05FEE99
:102480001306C10893050C0013050A00EF604061B4
:10249000630405006FE05FAF832A4107832741098A
:1024A0000327010913030D006FF09FCB9307600012
:1024B000232AF1006FF05FD5232E010013040D00D5
:1024C0006FE05FC513050400EF608054232EA10068
:1024D0009307050003230101635005B29307000031
:1024E0006FF08FB11305F0FF6FE05FAB9307F0FF64
:1024F0006FE09FFF930A00006FF04FFE130400008F
:102500006FF0DFA2930DD0029307100013071000A5
:102510006394E7BE6FF00F87130760006374F700E2
:1025200093070700232EF10063C4073037E400004F
:102530002328F10023226103930D0000232A0100C8
:10254000232A0102130444FB6FE09FBF93F7190095
:102550003308C501E39E07D2832741086FF01FD8D7
:102560009307D002A307F106930DD0026FF04F9CA2
:102570001307D002A307E1062328F1008329C10233
:10258000930DD002232A01006FE0DFBA9389070080
:10259000930D0000930720006FF05FF793F7190089
:1025A0006392071E83274108B3878740232CF102DB
:1025B000639E5D3B832C41079307D0FF63CAFC02F7
:1025C0008327410163C69703232A91036FF09FD3AA
:1025D00083274101834DF106232261032328F10063
:1025E000232EF100232A0100232A01026FE05FB4A9
:1025F000938AEAFF938CFCFF232A9107230E51074D
:1026000063C80C2E9307B002A30EF106130B9000C3
:1026100063429B1993070003938C0C03230FF1066D
:10262000A30F9107930701081307C107B387E7407A
:1026300003278103232CF104B387E700232EF10045
:102640009307100063DCE7248327C10193871700F9
:10265000232EF10063CE0724232A01026FF01FCD41
:1026600083274101E39207BA232A81006FF0DFB983
:10267000232A01006FE0DF8283274104370B0080AB
:1026800033CB67019307D0022328F1026FF05FB9C3
:10269000930741082320F1008327410113084107D4
:1026A00013860C0093060B00930881071307300074
:1026B00013050A0023286100EF20C047832741014A
:1026C00003230101130405003308F500138E0700EE
:1026D00003470400930700036300F716032E410726
:1026E0003308C8016FF0DFBA0327410393071000D6
:1026F0006354E01C03278103B387E700232EF10016
:1027000063CE0700930A70066FF05FC28327410310
:1027100093871700232EF100E3D607FE93070000EE
:10272000930A70066FF09FC083274107232AF102A6
:10273000635AF018032741016312071493F9190033
:10274000639E0912232EF1006FF05FBE93074108CC
:102750002320F1008327410113860C0093060B0010
:1027600093088107130841071307300013050A0077
:1027700023286100EF20003C032E410103230101C7
:1027800013040500930760043308C401E382FAF4DC
:102790006FF01FB01306B108232A8100938D040047
:1027A00013040600930403009305A00013850C0096
:1027B0002328C100EFA05004130705031304F4FFFE
:1027C00013850C009305A0002300E400EFA0807A9D
:1027D000930C050003260101E348ABFC93070503B6
:1027E0001383040093F7F70F93840D00930D0400F7
:1027F0001387FDFFA38FFDFE032441016376C712FB
:102800009306E1076F008000834707009386160058
:1028100013071700A38FF6FEE318C7FE9307C1083E
:10282000B387B7411307E107B307F7006FF0DFDFA6
:10283000930700006FF09FCF13850C0093050B00EA
:102840001306000093060000232A6102232E0101D3
:102850002328C101EFA0803D0328C10103234103C8
:10286000E30E05E6032E010193071000338EC741E6
:10287000232AC1073308C8016FF09FA183274101B4
:102880000327410393871700B307F700232EF100B6
:10289000E3DE07A8930700006FF05FA9B3F9F90022
:1028A000E39409DA0327C10193070700E35607DA27
:1028B000930700006FF05FDA93072000B387E740CB
:1028C0006FF05FE383274101639A070093071000CD
:1028D000B3F9F900232EF100E38A09A4832741010B
:1028E00093872700232EF100E3D207A46FF09FFA0D
:1028F0009307D002B30C9041A30EF1066FF01FD1E5
:102900008327410283A80700938747002322F1020F
:10291000232A110163C408006FE00FD89307F0FF6A
:10292000232AF1006FE04FD79307E1076FF0DFCF65
:10293000A307A1066FE0CFEBA307A1066FE05FC17D
:10294000A307A10693E909016FE01FBCA307A10635
:102950006FE01FD7A307A1066FE09FCDA307A106D5
:102960006FE0DFC7A307A1066FE0DFB0832C41074C
:102970006FF05FC8930700006FF09F9A03278104F0
:102980009307C0001305F0FF2320F7006FE00FE16D
:10299000A307A1066FE0CFEEA307A1066FE01FF02B
:1029A000A307A10693E909016FE0DFDC130101EC45
:1029B000232E1112232C8112232C81112328A111E3
:1029C000138C0500130406002324D102232A91123C
:1029D00023282113232631132324411323225113A7
:1029E00023206113232E7111232A91112326B11163
:1029F000130D0500EF40C02983270500138507004C
:102A00002328F104EF60C000232AA10463060D000F
:102A100083278D036384072C8316CC0093970601CC
:102A200093D70701139727016346070203268C06F5
:102A3000B727000037E7FFFFB3E7F6001307F7FFFC
:102A40003377E6002316FC00939707012324EC0656
:102A500093D7070113F78700630E071A03270C01AA
:102A6000630A071A93F7A7011307A0006386E71C00
:102A7000B7E70000938707FC2326F102B7E70000C1
:102A8000938B4712B7E70000930A010C37E9000067
:102A90009387C7FB23265109232A0108232801080D
:102AA000232E0102232201042324010413830A009C
:102AB00023260104232C0104232E010013094913AA
:102AC000232EF1049304040083C704006384076C7D
:102AD00013075002138404006396E7006F0040055B
:102AE0006388E7001304140083470400E39A07FE99
:102AF000B3099440638E0902032741098327010922
:102B000023209300330737019387170023223301D3
:102B1000232AE1082328F108130770001303830018
:102B2000634CF7128327C101B3873701232EF100CD
:102B300083470400638007149307F0FF9304140095
:102B4000A30701069305000013050000232CF100E4
:102B500013070000930900009306800513069000F8
:102B60001308A00203CA04009384140093070AFE0A
:102B7000E3E6F6288328C10293972700B38717015D
:102B800083A707006780070093E909016FF09FFDA5
:102B90008327810203A70700938747002324F102BC
:102BA000E35207FC3307E04093E949006FF09FFBD5
:102BB000930700032322E102832681010327810278
:102BC0002308F10693078007A308F106A30701066F
:102BD00093074700032B070013E72900E3CE061CE9
:102BE00093F9F9F72324F10293E92900E31A0B1A68
:102BF000B7E70000938707FA2326F104130A80073A
:102C000083278101930D0000E38E0700130B000062
:102C10006F00007493050C0013050D00EF10903841
:102C2000630405006F10003D8357CC001307A0001C
:102C300093F7A701E39EE7E28317EC00E3CA07E2FC
:102C4000832681021306040093050C0013050D0072
:102C5000EF1050296F00C0041306C10893050C0043
:102C600013050D00EF6050656312050213830A001F
:102C70006FF05FEB83274109638A07001306C108E1
:102C800093050C0013050D00EF6010638357CC0013
:102C900093F70704638407006F10C0350325C10153
:102CA0008320C113032481138324411303290113B7
:102CB0008329C112032A8112832A4112032B011294
:102CC000832BC111032C8111832C4111032D011180
:102CD000832DC110130101146780000013050D003E
:102CE000EF3010166FF05FD3930510001305B0029C
:102CF0006FF05FE72322E102638405006F109016F6
:102D000093F709016382075603278102A30701068F
:102D100093074700032B07000327810163460756EB
:102D20002324F10293F9F9F763140B5683278101E9
:102D3000930D0000130B0000639407006F10003A1E
:102D400013840A0093777B001304F4FF938707032F
:102D50002300F400135B3B00E3160BFE13F719008E
:102D6000630A0760130700036386E7609307F4FFB5
:102D7000A30FE4FE3387FA402320E1021384070007
:102D80006F00C05F03CA04009384140063140A0137
:102D90006F105000130E0AFD930700006374C60104
:102DA0006F1000599384140003CAF4FF939817001E
:102DB00093973700B387F800B387C701130E0AFD56
:102DC000E372C6FF63D407006F10403E232CF1006E
:102DD0006FF0DFD993E909086FF0DFD8E31405D865
:102DE00093051000130500026FF0DFD793E9190077
:102DF0006FF05FD7832781022322E102A307010638
:102E000003A40700138B4700832781016314040088
:102E10006F10C03A232A610063D407006F10C036D8
:102E2000138607009305000013050400EF40C075EA
:102E300003234101631405006F108045B3078540EB
:102E40002320F10263D407006F10C035834DF106D3
:102E5000232AF10023246103232C0100232C0102E7
:102E600063880D008327410193871700232AF1000F
:102E700093F729002328F102638807008327410183
:102E800093872700232AF10093F74908232AF102A8
:102E90006390077C8327410203274101338BE7407E
:102EA0006358607B130800012320710583274109C3
:102EB0000327010963506807930C0800930D700005
:102EC0006F00C000130B0BFF63D66C0593870701DF
:102ED000130717002320730123229301232AF108EB
:102EE0002328E10813038300E3DEEDFC1306C10889
:102EF00093050C0013050D00EF60103CE31805D896
:102F0000130B0BFF832741090327010913830A00D1
:102F1000E3CE6CFB83260104B307FB001307170005
:102F20002320D30023226301232AF1082328E10868
:102F300093067000E3CEE634834DF106130383005D
:102F4000638A0D02032701099306F1062320D300AB
:102F50009387170093061000130717002322D3004E
:102F6000232AF1082328E108930670001303830045
:102F7000E3C2E62203270103630A070203270109CC
:102F8000930601072320D300938727009306200090
:102F9000130717002322D300232AF1082328E1086E
:102FA0009306700013038300E3C6E62083264103E3
:102FB00013070008E38CE60A032781018326010238
:102FC000B30CD7406358900B930D000123282103C5
:102FD0000327010963DE9D05130B70006F00C0001D
:102FE000938C0CFF63D69D05938707011307170089
:102FF000232023012322B301232AF1082328E108F7
:1030000013038300E35EEBFC1306C10893050C0079
:1030100013050D00EF60502AE31A05C6938C0CFFD0
:10302000832741090327010913830A00E3CE9DFB8F
:1030300083260103B3879701130717002320D300CA
:1030400023229301232AF1082328E1089306700024
:103050001303830063D0E6021306C10893050C0036
:1030600013050D00EF605025E31205C283274109C7
:1030700013830A0013F709106310076E83260102F9
:103080000327010923208300B387D7001307170004
:103090002322D300232AF1082328E1089306700095
:1030A00063CCE6681303830093F94900638C090A33
:1030B00003274102832641013304D7406354800A29
:1030C00093090001232071050327010963DE8904A8
:1030D000130A70006F00C000130404FF63D6890454
:1030E000938707011307170023207301232233015D
:1030F000232AF1082328E10813038300E35EEAFC96
:103100001306C10893050C0013050D00EF60D01ADB
:10311000E31E05B6130404FF8327410903270109B1
:1031200013830A00E3CE89FA83260104B38787005C
:10313000130717002320D30023228300232AF1083A
:103140002328E1089306700063DEE6001306C10839
:1031500093050C0013050D00EF601016E31805B27F
:103160008327410903274102832641016354D70085
:10317000138706008326C1013387E600232EE10072
:10318000639E077E83C704002328010813830A0077
:10319000E3900794138404006FF09F992322E102C7
:1031A000638405006F10005293F7090163820710D2
:1031B00003278102A307010693074700032B07009B
:1031C00003278101634607102324F10293F9F9F7DD
:1031D000930D000063040B249307900013840A00EE
:1031E000930C030063F467419305A00013050B00E3
:1031F000EF90505D130505031304F4FF2300A400B2
:103200009305A00013050B00EF905057130B05001A
:10321000E31C05FCB3878A4013830C002320F102D2
:103220006F00C01513070000130E0AFD93841400ED
:1032300003CAF4FF93171700131737003387E7000B
:103240003307EE00130E0AFDE372C6FF6FF01F9204
:103250002322E102638405006F10004693E909010F
:1032600093F70901E39207AA93F70904A30701065C
:1032700003278102E38E07A893074700035B07003B
:1032800003278101E35E07A82324F102E3000B5A20
:10329000930D00006FF0DFAA2322E1026384050092
:1032A0006F10C04093E9090193F70901E39207F019
:1032B00093F70904A307010603278102E38E07EEB3
:1032C00093074700035B070003278101E35E07EED6
:1032D0002324F102930D00009307100063000B30CC
:1032E0006FF09FEF2322E102638405006F10803BA3
:1032F000B7E700009387C7F82326F10493F7090185
:10330000639E071493F70904638A071483278102D5
:1033100003DB0700938747002324F10293F719008A
:10332000638A0714E3040B3C03278101930700031E
:103330002308F106A3084107A307010693E7290024
:10334000E348077093F9F9F793E92900930D00001A
:103350000327C10413840A009377FB00B307F70027
:1033600083C707001304F4FF135B4B002300F40032
:10337000E3140BFEB3878A402320F10203270102E6
:1033800083268101930707006354D70093870600C3
:10339000232AF100232C01026FF09FAC2322E102CB
:1033A0000327810293061000232AD10083270700F8
:1033B000A3070106930D0000230CF10893074700B3
:1033C0002324F1022320D102232C0100232C01020B
:1033D000130481096FF0DFA92322E1026384050051
:1033E0006F10C02A93F70901639E071893F7090429
:1033F000638A071883278102039B0700938747008E
:103400002324F102E3480B1283278101834DF10647
:10341000E3C407EC93F9F9F7E3100BDC8327810190
:103420006394071C232C01002320010213840A004B
:103430006FF0DFF493E909046FF0CFF22322E10289
:10344000638405006F108025B7E70000938707FAB3
:103450002326F10493F70901E38607EA8327810213
:1034600003AB0700938747002324F10293F7190069
:10347000E39A07EA83278101A307010663CA0714B9
:1034800093F9F9F7630E0BF6930D00006FF05FEC04
:10349000638405006F10002093F70901639C0718EF
:1034A00093F9090463880918032781028327070019
:1034B000130747002324E1020357C1012390E700CB
:1034C0006FF08FE02322E102638405006F10801B00
:1034D00093F78900E388071E83278102938777008B
:1034E00093F787FF138787002324E10203A70700D0
:1034F00083A747002322E1042324F104832C410401
:10350000032B8104232A610013850C0093050B0013
:10351000EF5080201304100003234101E31C8502B7
:1035200013850C0093050B001306000093060000A2
:10353000EF90806F03234101E3440550834DF10672
:1035400093077004E3CA472F37E400001304C4F75D
:1035500093073000232AF10093F9F9F72320F102B1
:10356000232C0100232C01026FF09F8F2322E10204
:10357000638405006F10C00B93E9090193F70901FB
:10358000E38607E68327810203AB070093874700A2
:103590002324F1026FF01FE793E989006FF08FDCBD
:1035A000B7E70000938707FA930D00002326F10484
:1035B000130A80076FF0DFD92324F102B7E7000078
:1035C000938707FA930907002326F104130A80075B
:1035D000E31C0BEA930D0000930720001307100073
:1035E0006384E7006F108008130B0000130B0B03BC
:1035F0001304F10BA30F610B6FF0DFD72322E1025D
:10360000638405006F10800563060AE693071000C7
:10361000232AF100230C4109A3070106930D0000A2
:103620002320F102232C0100232C01021304810921
:103630006FF01F84032781028327070013074700C9
:103640002324E1020327C10123A0E7006FF0CFC7C5
:10365000832741096FF0DF8E8326C1031307100013
:10366000938717006354D72C032A0109130710000E
:103670002322E300130A1A0023208300232AF108DF
:10368000232841091307700013038300634847632D
:103690000327410583260105130A1A00B307F70023
:1036A0002322E3002320D300232AF1082328410901
:1036B00013077000930C8300634A47650325410498
:1036C000832581041306000093060000232CF100DB
:1036D000EF90C055832781010327C103630C053C8C
:1036E0001307F7FFB387E70013041400130A1A0047
:1036F00023A2EC0023A08C00232AF10823284109EF
:1037000013077000634A4725938C8C00832681053C
:103710001307C107130A1A00B387F60023A0EC00B1
:1037200023A2DC00232AF108232841091307700093
:1037300013838C00E35A47971306C10893050C00C6
:1037400013050D00EF604037631205D4832741094C
:1037500013830A006FF05F9513075006E35E47EF8F
:10376000032541048325810413060000930600000D
:1037700023206102232CF100EF90804B83278101ED
:103780000323010263180524032701098326C105C9
:1037900093871700130717002320D3009306100008
:1037A0002322D300232AF1082328E108930670007E
:1037B0001303830063C6E674032741078326C1030E
:1037C0006346D70013F71900E300078E03270105AE
:1037D0008326410513038300232CE3FE03270109FD
:1037E000B387D700232ED3FE13071700232AF1082F
:1037F0002328E10893067000E3C6E6100327C103FF
:103800001304F7FFE352808A130A000123282103DF
:103810000327010963588A30930C70006F00C000C1
:10382000130404FF63508A309387070113071700BE
:103830002320230123224301232AF1082328E1081E
:1038400013038300E3DEECFC1306C10893050C00B0
:1038500013050D00EF604026631A05C28327410956
:103860000327010913830A006FF09FFB032741021E
:1038700083264101B30CD740635090F5930D0001AE
:10388000232821030327010963DE9D05130B700024
:103890006F00C000938C0CFF63D69D0593870701D2
:1038A00013071700232023012322B301232AF10841
:1038B0002328E10813038300E35EEBFC1306C10831
:1038C00093050C0013050D00EF60001F631005BC8D
:1038D000938C0CFF832741090327010913830A00F6
:1038E000E3CE9DFB83260103B387970113071700DF
:1038F0002320D30023229301232AF1082328E1085F
:10390000930670001303830063D8E6EA1306C10828
:1039100093050C0013050D00EF60001A631805B63F
:103920008327410913830A006FF00FE9B3F6E9001A
:10393000E39C06D2032A01092322E300232083000B
:10394000130A1A00232AF1082328410913077000DB
:10395000930C8300E35C47DB1306C10893050C005E
:1039600013050D00EF604015631205B2832741096E
:10397000032A0109938C0A006FF05FD91306C1086E
:1039800093050C0013050D00EF600013630C05FE9A
:103990006FF0CFAF1306C10893050C0013050D009F
:1039A000EF608011631405AE8327410913830A0079
:1039B0006FF04FDC1306C10893050C0013050D00D2
:1039C000EF60800F631405AC8327410913830A005D
:1039D0006FF0CFDD032A410763564055032781036B
:1039E0008326C103130A070063D4E600138A060086
:1039F0006356400303270109B3874701232083004F
:103A00001307170023224301232AF1082328E10882
:103A1000930670001303830063C6E662634C0A7862
:103A200003278103330A474163544017930C000175
:103A3000232821030327010963DA4C11930D700039
:103A40006F00C000130A0AFF63D24C11938707016D
:103A5000130717002320230123229301232AF108AF
:103A60002328E10813038300E3DEEDFC1306C108FD
:103A700093050C0013050D00EF600004631805A00A
:103A8000832741090327010913830A006FF09FFB75
:103A90001306C10893050C0013050D00EF60C0016B
:103AA0006316059E834DF1068327410913830A009F
:103AB0006FF00FC91304F7FFE35A80C4930D0001A0
:103AC0002328210363D08D22130770006F00C000EC
:103AD000130404FF63D88D2093870701130A1A008B
:103AE00023A02C0123A2BC01232AF1082328410989
:103AF000938C8C00E35E47FD1306C10893050C0010
:103B000013050D00232CE100EF50107B6310059886
:103B100083274109032A0109938C0A0003278101A5
:103B20006FF01FFB83260103B387870023228300E6
:103B30002320D30013071700232AF1082328E108C4
:103B40009306700063D0E6D66FF01FBF8326010393
:103B5000B3874701130717002320D3002322430113
:103B6000232AF1082328E108930670001303830039
:103B700063D0E6021306C10893050C0013050D007F
:103B8000EF509073631405908327410913830A0053
:103B90008326810303274107330AD4008326C10308
:103BA0006342D70C93F61900639E060A8326C1036D
:103BB0003304D4003387E640330444416354870020
:103BC000130407006356800283260109B387870028
:103BD000232043019386160023228300232AF10821
:103BE0002328D1081306700013038300634AD648C4
:103BF0006340046033048740635880CA130A00019D
:103C00002328210303270109E35E8AF0930C700047
:103C10006F00C000130404FFE3568AF09387070186
:103C2000130717002320230123224301232AF1082D
:103C30002328E10813038300E3DEECFC1306C1082C
:103C400093050C0013050D00EF5010676304050089
:103C50006FF0CF83832741090327010913830A00EB
:103C60006FF05FFB832601050326410513038300E4
:103C7000232CD3FE83260109B387C700232EC3FE5E
:103C800093861600232AF1082328D1081306700012
:103C9000E35ED6F01306C10893050C0013050D0072
:103CA000EF509061630405006FE05FFE032741075A
:103CB0008327410913830A006FF05FEF1306C108E1
:103CC00093050C0013050D00EF50105F6304050011
:103CD0006FE0DFFB83274109032A010913830A00F0
:103CE0006FF01F9B03270103B3878700130A1A0095
:103CF00023A0EC0023A28C00232AF10823284109E9
:103D000013077000E35247A16FF01FC51306C108E7
:103D100093050C0013050D00EF50105A63040500C5
:103D20006FE0DFF683274109032A0109938C0A001B
:103D30006FF0DF989307D002A307F1068327810174
:103D4000330B604163CA074A93F9F9F7930DD00228
:103D50006FF08FC80325410483258104232A610065
:103D6000EF40901B03234101630A052803278101CB
:103D70009307F0FF937DFAFD6306F75E93077004E7
:103D80006380FD5A032B810493E709102328F10275
:103D9000832C4104634A0B62232A010293076006C5
:103DA0006308FA5C93076004630CFA72832781014D
:103DB000138EBDFB133E1E00338EC70193074108CF
:103DC0002320F10013860C0093070E0093060B00CE
:103DD00093088107130841071307200013050D00FE
:103DE00023206102232AC101EF00D05493077006FB
:103DF00013040500032E4101032301026300FA4866
:103E0000930770043308C501E30AFA0213850C0016
:103E100093050B00130600009306000023206102A7
:103E2000232A0101EF80D06003284101032301020E
:103E300093070800630205028327410863FE070118
:103E400093060003138717002322E1082380D7007D
:103E500083274108E3E807FFB3878740232EF10259
:103E600093077004638EFD3E9307500663D4477F2B
:103E7000930760066306FA5A83274107232CF10251
:103E8000032781038326C10393070700634AD7549E
:103E900093F919006398095663480778032781034B
:103EA000130A70062320E102032741036316073635
:103EB000834DF106232AF10083290103232C0100FD
:103EC0006FE01FFA832781029387770093F787FFBC
:103ED00003A70700938787002322E10403A7C7FFF6
:103EE0002324F1022324E1046FF04FE183278101B1
:103EF000A307010663C007EE93F9F9F76FE05FD0FF
:103F00001306C10893050C0013050D00EF50D03ABD
:103F1000630405006FE09FD78327410913830A00DC
:103F20006FF09F89032701098326C1059387170036
:103F3000130717002320D300930610002322D30079
:103F4000232AF1082328E108930670001303830055
:103F500063C0E616630A0A1003270105832641059C
:103F600013038300232CE3FE03270109B387F60024
:103F7000232ED3FE13071700232AF1082328E10874
:103F80009306700063CAE63A330A40416354401F07
:103F9000930C00012328210363D84C19930D700062
:103FA0006F00C000130A0AFF63D04C199387070102
:103FB000130717002320230123229301232AF1084A
:103FC0002328E10813038300E3DEEDFC1306C10898
:103FD00093050C0013050D00EF50102E630405002F
:103FE0006FE0DFCA832741090327010913830A0011
:103FF0006FF05FFB1305F0FF6FE09FCA930770043B
:1040000063CA472337E40000130444F893073000E1
:10401000232AF10093F9F9F7834DF1062320F102E9
:10402000232C0100232C01026FE09FE3930D00007D
:10403000930700006FF08FDA37E40000130404F8F0
:104040006FF00FD11306C10893050C0013050D0086
:10405000EF509026630405006FE05FC3832741099A
:1040600013830A006FF09F9B0327C103E31607EE3B
:1040700013F71900631407006FF00F836FF0DFED83
:104080001306C10893050C0013050D00EF50D02254
:10409000630405006FE09FBF032741078326C10328
:1040A0008327410913830A003387E6406FF05FB42A
:1040B0001306C10893050C0013050D00EF50D01F27
:1040C000630405006FE09FBC032A41078327410971
:1040D00013830A00E3120AE86FF01FF993F719003F
:1040E000832D8101638A0700930700031304F10BFA
:1040F000A30FF10A6FF00FA82320010213840A0016
:104100006FF0CFA71306C10893050C0013050D002F
:10411000EF50901A630405006FE05FB783274109F1
:1041200013830A006FF08FED83260103B3874701E5
:10413000130717002320D30023224301232AF10869
:104140002328E108930670001303830063D4E6027A
:104150001306C10893050C0013050D00EF50D01590
:10416000630405006FE09FB283274109032701091B
:1041700013830A008326C10313071700232083003B
:10418000B387F6006FE0DFF013050400EF4050083E
:104190002320A10293070500032341016344050086
:1041A0006FE0DFCA930700006FE05FCA9307F0FF7C
:1041B0006FE0DFC1130A00006FF09F8613076000F5
:1041C0006374F700930707002320F10263CE0734DE
:1041D00037E40000232AF10023246103930D00003B
:1041E000232C0100232C0102130444FB6FE05FC861
:1041F000130400006FF01FA0930DD002930710006E
:10420000130710006394E7006FE01FFD1307200001
:104210006380E7946FE0DFB21307D002A307E106E3
:10422000232AF10083290103930DD002232C0100DE
:104230006FE05FC337E40000130484F86FF01FDD04
:104240009307D002A307F106930DD0026FF04FAF92
:1042500093890700930D0000930720006FF05FFA29
:10426000832C41079307D0FF63C4FC04832781019B
:1042700063C09705232C91036FF09FC093F719003B
:104280003308C501E39407B8832741086FF0DFBC0A
:1042900083278101834DF10623246103232AF10042
:1042A0002320F102232C0100232C01026FE05FBBCD
:1042B000130AEAFF938CFCFF232A9107230E410780
:1042C00063C80C349307B002A30EF106130B9000E1
:1042D000634A9B1793070003938C0C03230FF1068B
:1042E000A30F9107930701081307C107B387E7409E
:1042F0000327C103232CF104B387E7002320F10235
:104300009307100063D2E72E8327010293871700DB
:104310002320F10263C4072E232C01026FF0DFB8C3
:1043200083278101E39007A6232C81006FF09FA5CE
:10433000232C01006FE09F831306C10893050C0036
:1043400013050D00EF504077630405006FE01F94E4
:10435000032A4107832741090327010913830A0020
:104360006FF09FC293076000232CF1006FF09FA1B4
:10437000930741082320F100832781011308410797
:1043800013860C0093060B00930881071307300077
:1043900013050D00232A6100EF00C07983278101F6
:1043A00003234101130405003308F500138E0700B1
:1043B0000347040093070003630CF718032E41071B
:1043C0003308C8016FF09FA483278104370B008056
:1043D00033CB67019307D002232AF1026FF01F9CB1
:1043E0000327810393071000635EE0200327C103C6
:1043F000B387E7002320F10263CE0700130A70069B
:104400006FF09FAA83278103938717002320F1026F
:10441000E3D607FE93070000130A70066FF0DFA8CB
:1044200083274107232CF102635AF01803278101E7
:104430006310071093F91900639C090E2320F10201
:104440006FF09FA61306B108232C8100938D040002
:1044500013040600930403009305A00013850C00C9
:10446000232AC100EF805039130705031304F4FF1A
:1044700013850C009305A0002300E400EF80902F2B
:10448000930C050003264101E348ABFC93070503A9
:104490001383040093F7F70F93840D00930D04002A
:1044A0001387FDFFA38FFDFE03248101637AC716E6
:1044B0009306E1076F00800083470700938616008C
:1044C00013071700A38FF6FEE318C7FE9307C10872
:1044D000B387B7411307E107B307F7006FF0DFE0D9
:1044E000930741082320F1008327810113860C00E4
:1044F00093060B0093088107130841071307300048
:1045000013050D00232A6100EF00C062032E810114
:104510000323410113040500930760043308C40119
:10452000E308FAE86FF09F8E930700006FF05FCA10
:10453000832781010327810393871700B307F700BF
:104540002320F102E3D20796930700006FF0DF9576
:1045500013850C0093050B00130600009306000062
:10456000232C610223200103232AC101EF80006C68
:104570000328010203238103E30205E4032E410122
:1045800093071000338EC741232AC1073308C8019F
:104590006FF0DF878327810283A807009387470096
:1045A0002324F102232C110163C408006FE08FDB88
:1045B0009307F0FF232CF1006FE0CFDA832781010E
:1045C000639A070093071000B3F9F9002320F10262
:1045D000E38C098C83278101938727002320F10234
:1045E000E3D4078C6FF05FF6B3F9F900E39E09D0CE
:1045F0000327010293070700E35007D29307000047
:104600006FF09FD193072000B387E7406FF01FDE64
:104610009307D002B30C9041A30EF1066FF01FCBAD
:104620009307E1076FF05FCC930700006FF01F87DF
:10463000A307A10693E909016FE05FF493F719005E
:10464000E39C07EC83274108B3878740232EF102C0
:10465000E3884DC1832C41076FF0DFC5A307A10696
:104660006FE09FFAA307A1066FE08FE91307200010
:10467000130B00006384E7006FE08FEC130B000066
:104680006FE01FCDA307A1066FE09FE4A307A1067B
:104690006FE05FD5A307A1066FE01FE0A307A106A7
:1046A0006FE09FDAA307A1066FE09FC4A307A106EE
:1046B00093E909016FE05FBFA307A10693E9090130
:1046C0006FE01FBAA307A1066FE01FAEB717000483
:1046D00093060600138605009305050003A5878C45
:1046E0006FE0CFAC83D7C50003AE850603D3E500EA
:1046F00083A8C50103A84502130101B893F7D7FFAA
:1047000013070040232C81462316F1001384050073
:104710009307010793050100232A91462328214787
:10472000232E1146130905002324C1072317610016
:10473000232E1101232201032320F1002328F1005D
:104740002324E100232AE100232C0100EFE00FA63F
:1047500093040500634A0500930501001305090051
:10476000EF101032631C05028357C10093F7070452
:10477000638807008357C40093E707042316F400F7
:104780008320C147138504000324814783244147C4
:104790000329014713010148678000009304F0FFDB
:1047A0006FF09FFCB717000483A7878C130101FFEC
:1047B0002324810023229100232611009304050065
:1047C000138405006386070003A78703630C070CA7
:1047D0000317C4009317070193D7070193F68700C7
:1047E00063820604832604016382060613F717001A
:1047F0006310070893F7270013070000639407006E
:10480000032744012324E40013050000638E0606F9
:104810008320C1000324810083244100130101018E
:104820006780000093F60701638E060A93F747003E
:104830006390070883260401936787002316F4001A
:104840009397070193D70701E39206FA13F7072816
:1048500013060020E30CC7F8930504001385040039
:10486000EF20C0458357C400832604016FF01FF872
:10487000832744012324040013050000B307F040FC
:10488000232CF400E39606F88317C40013F70708F7
:10489000E30007F893E707042316F4001305F0FF7D
:1048A0006FF01FF713850700EF1090596FF05FF25C
:1048B00083250403638E0500930704046388F500D1
:1048C00013850400EF10106D0317C40023280402A1
:1048D000832604011377B7FD232204002320D4008C
:1048E0006FF09FF59307900023A0F400136707046F
:1048F0002316E4001305F0FF6FF09FF1130101FB95
:10490000232671038327050183AB050123261104A8
:10491000232481042322910423202105232E310303
:10492000232C4103232A51032328610323248103D9
:10493000232291032320A103232EB10163C8771FF3
:10494000938BFBFF939A2B00138B45019304450136
:10495000330C5B01B38754012324B10083250C0081
:104960001309050003A50700938515002326F10010
:10497000EF80C060130405006304050C370D0100CF
:10498000130A0B00938D0400930C000093090000A0
:10499000130DFDFF130A4A00832ACAFF9305040082
:1049A000938D4D0033F5AA01EF80805AB30C950129
:1049B0009305040013D50A01EF80805903A7CDFFAA
:1049C000B3F7AC0193D60C01B389F9403305D50098
:1049D000B377A701B387F90013570701B379A5018E
:1049E0003307374193D90741B309370113970901B9
:1049F000B3F7A7013367F70023AEEDFE935C050123
:104A000093D90941E3784CF90327C10083270700B4
:104A1000639807029307C7FF63F2F4020327C7FFF7
:104A2000630807006F00800103A7070063180700F1
:104A30009387C7FF938BFBFFE3E8F4FE23287901FC
:104A40008325810013050900EF3040576340050AB4
:104A5000B705010013041400138604009307000037
:104A60009385F5FF130B4B008326CBFF032706002E
:104A70001306460033F5B600B387A7403375B70079
:104A8000B387A70093D60601135707013307D74012
:104A900093D60741B306D7001395060133F7B70045
:104AA0003367E500232EE6FE93D70641E37C6CFBDB
:104AB00013972B003387E4008327070063980702CE
:104AC0009307C7FF63F2F4020327C7FF63080700D9
:104AD0006F00800103A70700631807009387C7FFD3
:104AE000938BFBFFE3E8F4FE232879011305040010
:104AF0008320C10403248104832441040329010485
:104B00008329C103032A8103832A4103032B010361
:104B1000832BC102032C8102832C4102032D01024D
:104B2000832DC101130101056780000013050000FA
:104B30006FF01FFC03230504130101F6232C8108E9
:104B40002328210923244109232A9107232E110810
:104B5000232A9108232631092322510923206109A0
:104B6000232E7107232C81072328A1072326B107B1
:104B7000232601012320C1002322D10013040500B4
:104B8000130A0700938C07001389080063020302CD
:104B9000032745049307100093050300B397E7002C
:104BA0002322E3002324F300EF20503623200404C3
:104BB0008324410063C2040E23200900B707F07F5D
:104BC00033F7F4006306F708032901008329410045
:104BD00013060000930600001305090093850900E1
:104BE000EF800005631A050C0327C100930710002E
:104BF0002320F7008327010A638E07620327010A37
:104C0000B7E700009387D7FBB7E400002320F70045
:104C10001385C4FB8320C10903248109832441092E
:104C2000032901098329C108032A8108832A41082D
:104C3000032B0108832BC107032C8107832C410719
:104C4000032D0107832DC1061301010A67800000AF
:104C50000327C100B72700009387F7702320F700D0
:104C600083270100638A075837E500009304051580
:104C70008327010AE38E075E03C73400938734005D
:104C800063040700938784000327010A1385040047
:104C90002320F7006FF01FF883274100B70400803E
:104CA00093C4F4FFB3F4F400930710002320F90039
:104CB000232291006FF09FF01307C1059307810530
:104CC000130609009386090013050400EF30006FF6
:104CD000232CA10013D74401631A0752032981052D
:104CE0008329C10593070002B309390113872943BA
:104CF000E3DAE710930700043387E74083270100D6
:104D000013852941B394E40033D5A700336595009A
:104D1000EF808003B70710FEB385B700930710003C
:104D20009389F9FF2326F102B7E7000003A6076C79
:104D300083A6476CEF709002B7E7000003A6876C6C
:104D400083A6C76CEF705007B7E7000003A6076D96
:104D500083A6476DEF70807B130B05001385090058
:104D6000938B0500EF701072B7E7000003A6876D04
:104D700083A6C76DEF7050041306050093860500E7
:104D800013050B0093850B00EF704078130D0500A1
:104D9000938D0500EF80C003930B05001306000000
:104DA0009306000013050D0093850D00EF70D0678A
:104DB00063460572930710002320F10293076001F8
:104DC00063EA770337E7000093973B0013078717E1
:104DD000B387E70003A5070083A54700032601006A
:104DE00083264100EF70505EE35AA000938BFBFFD7
:104DF00023200102B30939419389F9FF130D000003
:104E000063C0094463C40B6CB38979012322710325
:104E1000130C00009307900063EA47439307500088
:104E20001308100063D64701130ACAFF13080000D5
:104E300093073000E30CFA4EE3DE4745930740004A
:104E4000E304FA3093071000232EF100930750007B
:104E5000E318FA44B3879B01138B17002324F10254
:104E600013060B0013090B00E350604323220404D4
:104E7000930770019305000063F2C7021307100047
:104E80009307400093971700938647019305070007
:104E900013071700E378D6FE2322B4041305040099
:104EA00023280101EF20407C2320A4049307E00085
:104EB0009304050063E4273D032801016300083CD7
:104EC00003250100832541002320A1042322B104EE
:104ED000E35C705513F7FB009316370037E70000CB
:104EE00093DA4B40130787173387E60093F60A01DE
:104EF000032807008328470013092000638A06025D
:104F000037E70000032687288326C72823280101C6
:104F1000232A1101EF701018032801018328410191
:104F200093FAFA002320A1002322B10013093000D4
:104F300063800A0437E70000930D872693F61A0072
:104F40001305080093DA1A4093850800638E060063
:104F500003A60D0083A64D0013091900EF70C0656C
:104F60001308050093880500938D8D00E3980AFCD3
:104F700003250100832541001306080093860800DD
:104F8000EF7050112328A100232AB10083270102CA
:104F900063820702B7E7000003A6076E83A6476E89
:104FA0000325010183254101EF701048635405007A
:104FB0006F00507113050900EF70D04C03260101FA
:104FC00083264101EF70405FB7E7000003A6076F3B
:104FD00083A6476FEF708053B707C0FC1308050026
:104FE000B388B700E3000B382324710513030B00CB
:104FF0008327C101E38207529307F3FF37E70000DD
:105000001307871793973700B387E70003A60700B6
:1050100083A64700B7E7000003A5077083A5477084
:10502000232861022320010123221101EF70900641
:105030000328010083284100938D14001306080003
:1050400093860800EF7080512320A1002322B10035
:105050000325010183254101EF70905713090500D5
:10506000EF705042130605009386050003250101E9
:1050700083254101EF70804E1306050093860500DD
:10508000130709032328A100232AB10003250100E7
:10509000832541001379F70F23802401EF70D0326C
:1050A0006342A012B7EA00000326010183264101F2
:1050B00003A50A6E83A54A6EEF70404A13060500E9
:1050C000938605000325010083254100EF70D02F52
:1050D0006354A0006F00906B0323010313071000BB
:1050E000E35A673237E700008327C76E0327876ECE
:1050F000232AF1022328E10283A74A6E03A70A6E3E
:10510000B38A6400232EF102232CE1026F004002D7
:10511000032581038325C103EF704044032601006A
:1051200083264100EF705030E3420566E3845D2F33
:105130000326010383264103032501008325410043
:10514000938D1D00EF704047B7E7000003A6876E00
:1051500083A6C76E2320A1002322B10003250101ED
:1051600083254101EF704045232AB1002328A10087
:10517000EF70104613090500EF70D03003280101CD
:1051800083284101130605009386050013050800D6
:1051900093850800EF70803C130709030326010084
:1051A000832641001379F70FA38F2DFF2328A10039
:1051B000232AB100EF705027032601018326410105
:1051C000E35805F4832B8104832581011305040032
:1051D000938B1B00EF2080538327C10023800D0099
:1051E00023A077018327010AE384070823A0B701DE
:1051F000138504006FF01FA29397C400E39607A6DF
:1052000037E50000930445146FF09FA6B707100020
:105210009387F7FFB3F7F900B706F03F13050900CE
:10522000B3E5D700930917C003298105232601029E
:105230006FF09FAFB7E400001385C4FB6FF09F9D34
:10524000330D3041930900006FF0DFBB23220404CB
:105250009305000013050400EF200041130BF0FF3D
:1052600093071000930405002320A4042324610362
:10527000930C0000130A0000232EF1008327C105C0
:1052800063C8071E1307E0006344771F37E7000079
:105290001307871793973B00B387E70003A707001F
:1052A00083A747002328E100232AF10063CE0C6A7C
:1052B0000329010083294100032A0101832A4101B6
:1052C0001305090013060A0093860A009385090056
:1052D000EF70405CEF70D02F130C0500EF70901A48
:1052E00013060A0093860A00EF70002D13060500CE
:1052F000938605001305090093850900EF700026C9
:1053000093070C032380F400130710001308050013
:1053100093880500938D1400630CEB0C37E70000B5
:105320000326876E8326C76E2320E100EF70C02816
:105330001306000093060000130A0500938A050077
:10534000EF70100F03270100E30005E88327C76E05
:105350000327876E138924002322F1002320E10014
:10536000338B64016F004002EF70002513060000CC
:1053700093060000130A0500938A0500130919001B
:10538000EF70100BE30205E4832D4101032D0101B1
:1053900013050A0093860D0013060D0093850A007D
:1053A000EF70404FEF70D022130C0500EF70900D9E
:1053B00093860D0013060D00EF7000201306050004
:1053C0009386050013050A0093850A00EF70001903
:1053D00093070C03A30FF9FE13080500938805003B
:1053E0000326010083264100930D0900E31E2BF7DD
:1053F000130608009386080013050800938508002B
:10540000EF70C0101309050093890500130605000D
:10541000938605000325010183254101EF70D0002B
:10542000634205020325010183254101130609009A
:1054300093860900EF70C07FE31805D8137C1C0029
:10544000E3040CD803C9FDFF130690036F000001AD
:10545000E38A960603C9F6FF938D06009386FDFF47
:10546000E308C9FE130719002380E6006FF0DFD5BB
:105470000327C1016308070813071000635047554D
:105480001307FBFFB30DEC40635EEC008327410282
:10549000330C8741930D0000B38787012322F1026B
:1054A000130C07002328A10193070B00E3440B1EF4
:1054B0009305100013050400330DFD00B389F900B6
:1054C000EF20005E930A05006F008004330D7D41DC
:1054D000330C7041232201026FF0DF9313850B0020
:1054E000EF70407A130605009386050013050D0042
:1054F00093850D00EF7080733335A000B38BAB4004
:105500006FF05F8B930D0C002328A101930A00001C
:10551000032701019307070063000702635E300160
:1055200063CEE93C03270101330DFD40B389F94007
:105530003307F7402328E1000329810163528007E4
:105540008327C1016388076863820D0493850A007D
:1055500013860D0013050400EF20C07D0326810192
:1055600093050500930A050013050400EF208056FB
:105570008325810113090500330CBC411305040088
:10558000EF20C018630E0C00232C2101832581011C
:1055900013060C0013050400EF20C0791309050061
:1055A0009305100013050400EF20804F832741026C
:1055B000130C05006380070613860700930505009A
:1055C00013050400EF20007793071000130C05006B
:1055D00063DA4733930D000083270C01938737006C
:1055E00093972700B307FC0003A54700EF208038FE
:1055F000930700023385A7406F00C00223200102F9
:105600006FF04FFFB384E740832701003395970085
:105610006FF00FF09307100063DC4743930D000019
:1056200013850700B307350193F7F701638A071A5B
:10563000130700023307F74093064000E3DEE61845
:105640001307C001B307F74003270101330DFD0025
:10565000B389F9003307F7002328E100635CA00158
:105660009305090013060D0013050400EF20100038
:1056700013090500635C300193050C0013860900D3
:1056800013050400EF20807E130C05008327010220
:10569000639C0714635E60438327C101638C071812
:1056A00083270101635CF00093850A0013860700DD
:1056B00013050400EF20807B930A0500138D0A0078
:1056C000639C0D60B3876401232EF10083270100E2
:1056D0009389140093F717002328F10093050C0019
:1056E00013050900EFF08FA1930D050093850A00C3
:1056F00013050900EF20900C130B050013060D0095
:1057000093050C0013050400EF2050118326C500FB
:105710001387F9FF232CE10093070500938C0D03F9
:1057200013071000639E0600930505002320A100C7
:1057300013050900EF2090088327010013070500D7
:1057400093850700130504002320E100EF10107C6F
:1057500003270100B3674701639607008327010110
:10576000638A0726634E0B28336B4B0163160B00CD
:1057700083270101638607286340E0708327C10106
:10578000A38F99FF938D09006380377193050900FA
:10579000930600001306A00013050400EF105079D3
:1057A00013090500930600001306A00093850A0064
:1057B000130504006384AA2BEF10907793050D0066
:1057C000930A0500930600001306A00013050400C9
:1057D000EF101076130D0500938919006FF01FF07C
:1057E0009307C0016FF05FE693050C0013050900F5
:1057F000EF20C07CE35005EA930509009306000002
:105800001306A00013050400EF1090728327C10156
:1058100013090500938BFBFF6396077883278102AA
:10582000138B07006348F0009307200063CE477B8B
:10583000032B8102938904006F00C000EF10506FAA
:105840001309050093050C0013050900EFF00F8BF9
:1058500093891900930C0503A38F99FFB38799408F
:10586000930600001306A000930509001305040029
:10587000E3C667FD63586063B38D6401930900005C
:10588000930509001306100013050400EF20005EC5
:1058900093050C00232CA100EF2040726358A03424
:1058A00083C6FDFF130690036F000001630897266F
:1058B0008346F7FF930D07001387FDFFE388C6FEBD
:1058C000938616002300D70093050C0013050400EF
:1058D000EF10D063E38A0A8E638A09006388590156
:1058E0009385090013050400EF10506293850A00A8
:1058F00013050400EF1090616FF01F8D938709006E
:105900006FF05FC283270100E39607CC8326410036
:10591000930D00001397C60063100702B707F07FCE
:10592000B3F7D700638A070093071000130D1D001B
:1059300093891900938D07008327410213051000F6
:10594000E38207CE6FF05FC993071000232EF100AA
:105950006354901313860C0013890C0023249103C5
:10596000138B0C006FF08FD0E3446095631E0B2403
:10597000B7E7000003A6876F83A6C76F0325010161
:1059800083254101130C0000930A0000EF60D04210
:105990000326010083264100EF70001D63460516B3
:1059A00093CBFCFF938D040093050C0013050400BA
:1059B000EF10D055E38A0A806FF05FF30327C1022E
:1059C0006306074E93873743930D0C002328A101EC
:1059D0006FF01FAE93079003638AFC046354600169
:1059E000938C1D038327810193890A00232C2101B5
:1059F000938D170023809701930A0D006FF0DFEC61
:105A0000E352E0FE9305090013061000130504009D
:105A1000EF20C04593050C0013090500EF20005A44
:105A2000635AA05693079003E39CFCFA83278101F5
:105A30001307900393890A00938D17002380E700D2
:105A4000930A0D00232C2101930690036FF09FE52C
:105A500003270100E31407BC6FF05FEBEF10504D1C
:105A6000930A0500130D0500938919006FF01FC7F5
:105A7000138504006FF00F9A1309100023242103EB
:105A8000130B0900930C0900232204049305000062
:105A90006FF0CFC0232E010093072000E30AFAEA3B
:105AA000232204049305000013050400EF10D03BEB
:105AB000130BF0FF93071000930405002320A404A8
:105AC00023246103930C0000232EF1006FF00FFBE1
:105AD00093072000E3D247BD631E0B4493050C00DF
