:100000006F008014130000001300000013000000B4
:100010001300000013000000130000001300000094
:1000200013000000130101F82320310023221100E6
:10003000232421002326310023284100232A5100B4
:10004000232C6100232E71002320810223229102A0
:100050002324A1022326B1022328C102232AD1028C
:10006000232CE102232EF102232001052322110576
:10007000232421052326310523284105232A510560
:10008000232C6105232E710523208107232291074C
:100090002324A1072326B1072328C107232AD10738
:1000A000232CE107232EF107130000000B4500026B
:1000B00097020040E78002F71300000013000000E1
:1000C00013000000832041008321C10003220101AD
:1000D00083224101032381018323C10103240102FF
:1000E00083244102032581028325C10203260103E3
:1000F00083264103032781038327C10303280104C7
:1001000083284104032981048329C104032A0105AA
:10011000832A4105032B8105832BC105032C01068E
:10012000832C4106032D8106832DC106032E010772
:10013000832E4107032F8107832FC1071301010875
:100140000B000000130000001305F00F0B20050446
:10015000171100001301818617050040130545F3B0
:10016000970500409385C5F26308B500232005007C
:10017000130545006FF05FFF17050040130545F1BB
:100180001301C1FF97050040938585F0630EB5000C
:1001900083260500130545002320A100E780060003
:1001A000032501006FF01FFE13014100970200407C
:0801B000E78042E56F0000004A
:020000044000BA
:10000000130101FF2326810013040101930750050A
:10001000138507000324C10013010101678000005C
:10002000130101FE232E8100130401022326A4FEE6
:10003000130000000324C1011301010267800000C6
:100040001000000000000000017A520001040101CC
:100050001B0D02001800000018000000A4FFFFFFA5
:100060002000000000440E104411087F440C0800DA
:100070001800000034000000A8FFFFFF200000006F
:0C00800000440E204411087F440C0800CE
:0400000300000148B0
:00000001FF
