:100000006F008014130000001300000013000000B4
:100010001300000013000000130000001300000094
:1000200013000000130101F82320310023221100E6
:10003000232421002326310023284100232A5100B4
:10004000232C6100232E71002320810223229102A0
:100050002324A1022326B1022328C102232AD1028C
:10006000232CE102232EF102232001052322110576
:10007000232421052326310523284105232A510560
:10008000232C6105232E710523208107232291074C
:100090002324A1072326B1072328C107232AD10738
:1000A000232CE107232EF107130000000B4500026B
:1000B00097020040E780C2F5130000001300000023
:1000C00013000000832041008321C10003220101AD
:1000D00083224101032381018323C10103240102FF
:1000E00083244102032581028325C10203260103E3
:1000F00083264103032781038327C10303280104C7
:1001000083284104032981048329C104032A0105AA
:10011000832A4105032B8105832BC105032C01068E
:10012000832C4106032D8106832DC106032E010772
:10013000832E4107032F8107832FC1071301010875
:100140000B000000130000001305F00F0B20050446
:10015000171100001301818617050040130545049F
:1001600097050040938545056308B50023200500E9
:10017000130545006FF05FFF1705004013050502EA
:100180001301C1FF9705004093858501630EB500FB
:1001900083260500130545002320A100E780060003
:1001A000032501006FF01FFE13014100970200407C
:0801B000E78082E96F00000006
:020000044000BA
:10000000B70710F023A0A7F0678000009307000255
:100010006304F50067800000B707004003A7071BD3
:100020008327070093F72700E38607FEB707004002
:1000300083A7471A23A40700930720002320F70073
:1000400067800000B707004083A7C71A3707004042
:100050000327871A9306700023A0D7009306C000D9
:10006000B70700402322D70083A7471A9306100042
:100070002320D700370700400326071A1307A000E4
:1000800023A2E7009306200023A0D700B707004073
:1000900003A7071B930780002322F600B707010080
:1000A000B387D7002320F6009307F0002320F70042
:1000B0002322D7001305000067800000B70702F075
:1000C00013870701B706004023A8E61A23AA0700F2
:1000D0001307F0FF23A8E700B706004023A6F61A8F
:1000E00013870704B706004023A4E61A23A00704D9
:1000F00023A4070413870705B706004023A2E61AC6
:1001000023A8070423AC070413870706B70600409B
:1001100023A0E61A23A0070623A4070613870707D0
:10012000B706004023AEE61823A8070623AC07064F
:10013000678000001000000000000000017A5200FB
:10014000010401011B0D0200100000001800000056
:10015000B0FEFFFF0C0000000000000010000000D7
:100160002C000000E0FEFFFF78000000000000000F
:10017000100000004000000094FEFFFF3800000067
:1001800000000000100000005400000030FFFFFFDE
:080190007800000000000000EF
:04019800BC00004067
:0400000300000148B0
:00000001FF
