:1000000013000000130101F8232031002322110006
:10001000232421002326310023284100232A5100D4
:10002000232C6100232E71002320810223229102C0
:100030002324A1022326B1022328C102232AD102AC
:10004000232CE102232EF102232001052322110596
:10005000232421052326310523284105232A510580
:10006000232C6105232E710523208107232291076C
:100070002324A1072326B1072328C107232AD10758
:10008000232CE107232EF107130000000B4500028B
:10009000EF00C02213000000130000001300000056
:1000A000832041008321C1000322010183224101F9
:1000B000032381018323C10103240102832441021C
:1000C000032581028325C102032601038326410300
:1000D000032781038327C1030328010483284104E4
:1000E000032981048329C104032A0105832A4105C8
:1000F000032B8105832BC105032C0106832C4106AC
:10010000032D8106832DC106032E0107832E41078F
:10011000032F8107832FC107130101080B00000083
:100120001300000013000000130000001300000083
:100130001300000013000000130000001300000073
:100140001300000013000000130000001300000063
:100150001300000013000000130000001300000053
:100160001300000013000000130000001300000043
:100170001300000013000000130000001300000033
:100180001300000013000000130000001300000023
:100190001300000013000000130000001300000013
:1001A0001300000013000000130000001300000003
:1001B00013000000130000001300000013000000F3
:1001C00013000000130000001300000013000000E3
:1001D00013000000130000001300000013000000D3
:1001E00013000000130000001300000013000000C3
:1001F00013000000130000001300000013000000B3
:1002000013000000130000001300000013000000A2
:10021000130000001305F00F0B2005041731000434
:100220001301C1DF170500041305C5DD97050004A0
:100230009385C5DE6308B50023200500130545003E
:100240006FF05FFF170500041305C5DB9705000479
:10025000938545DB170600001306861F630CB50067
:10026000832606002320D50013064600130545000B
:100270006FF0DFFE170500001305451D1301C1FFD8
:10028000970500009385C51C630EB5008326050005
:10029000130545002320A100E78006000325010087
:1002A0006FF01FFE13014100EF00C0046F0000005B
:1002B000B70710F023A0A7F06780000093070002A3
:1002C0006304F50067800000B707000403A7470137
:1002D0008327070093F72700E38607FEB70700048C
:1002E00083A7870023A40700930720002320F7009B
:1002F00067800000B707000483A7070137070004E1
:100300000327C7009306700023A0D7009306C00000
:10031000B70700042322D70083A7870093061000A5
:100320002320D70037070004032647001307A00047
:1003300023A2E7009306200023A0D700B7070004FC
:1003400003A74701930780002322F600B7070100A7
:10035000B387D7002320F6009307F0002320F7008F
:100360002322D7001305000067800000B70702F0C2
:1003700013870701B706000423AAE60023AA070093
:100380001307F0FF23A8E700B706000423A8F60030
:1003900013870704B706000423A6E60023A007047A
:1003A00023A4070413870705B706000423A4E60067
:1003B00023A8070423AC070413870706B706000425
:1003C00023A2E60023A0070623A407061387070736
:1003D000B706000423A0E60023A8070623AC0706FF
:1003E000678000001000000000000000017A520049
:1003F000010401011B0D02001000000018000000A4
:10040000B0FEFFFF0C000000000000001000000024
:100410002C000000E0FEFFFF78000000000000005C
:10042000100000004000000094FEFFFF38000000B4
:1004300000000000100000005400000030FFFFFF2B
:0804400078000000000000003C
:040448006C03000041
:0400000300000200F7
:00000001FF
