:1000000013000000130101F8232031002322110006
:10001000232421002326310023284100232A5100D4
:10002000232C6100232E71002320810223229102C0
:100030002324A1022326B1022328C102232AD102AC
:10004000232CE102232EF102232001052322110596
:10005000232421052326310523284105232A510580
:10006000232C6105232E710523208107232291076C
:100070002324A1072326B1072328C107232AD10758
:10008000232CE107232EF107130000000B4500028B
:10009000EF00805413000000130000001300000064
:1000A000832041008321C1000322010183224101F9
:1000B000032381018323C10103240102832441021C
:1000C000032581028325C102032601038326410300
:1000D000032781038327C1030328010483284104E4
:1000E000032981048329C104032A0105832A4105C8
:1000F000032B8105832BC105032C0106832C4106AC
:10010000032D8106832DC106032E0107832E41078F
:10011000032F8107832FC107130101080B00000083
:100120001300000013000000130000001300000083
:100130001300000013000000130000001300000073
:100140001300000013000000130000001300000063
:100150001300000013000000130000001300000053
:100160001300000013000000130000001300000043
:100170001300000013000000130000001300000033
:100180001300000013000000130000001300000023
:100190001300000013000000130000001300000013
:1001A0001300000013000000130000001300000003
:1001B00013000000130000001300000013000000F3
:1001C00013000000130000001300000013000000E3
:1001D00013000000130000001300000013000000D3
:1001E00013000000130000001300000013000000C3
:1001F00013000000130000001300000013000000B3
:10020000930000001301000093010000130200009E
:100210009302000013030000930300001304000086
:10022000930400001305000093050000130600006E
:100230009306000013070000930700001308000056
:10024000930800001309000093090000130A00003E
:10025000930A0000130B0000930B0000130C000026
:10026000930C0000130D0000930D0000130E00000E
:10027000930E0000130F0000930F00001300000006
:100280001300000013000000130000001300000022
:10029000130000001305F00F0B20050417110004D4
:1002A0001301C156EF00C000EF00000F6F00000007
:1002B000130101FE232E1100232C810013040102DF
:1002C000B707000413878700B70700049387070068
:1002D000B307F7401386070093050000B707000433
:1002E00013850700EF00C077B707000413870700E6
:1002F000B707000493870700B307F740138607008A
:10030000B7170000938587D4B7070004138507004B
:10031000EF000063B7170000938787D42326F4FE0D
:100320006F0040028327C4FE83A707002324F4FE46
:10033000832784FEE78007008327C4FE9387470056
:100340002326F4FEB71700009387C7D40327C4FE03
:10035000E36AF7FC130000008320C101032481013C
:100360001301010267800000130101FE232E8100AA
:10037000130401022326A4FEB70710F0938707F0A9
:100380000327C4FE23A0E700130000000324C101DB
:100390001301010267800000130101FE232E1100EA
:1003A000232C81001304010293054000B7070004C9
:1003B00013850700EF00803393060000130600004A
:1003C00093058000B707000413850700EF00803510
:1003D000B707000413850700EF0080469307050068
:1003E00013850700EFF05FF89305A00AB707000434
:1003F00013850700EF00803C93051000B707000449
:1004000013850700EF00803B93052000B707000429
:1004100013850700EF00803A93053000B70700040A
:1004200013850700EF008039232604FEB707000478
:1004300013850700EF00803D930705009387C7FFF2
:10044000B337F00093F7F70F638407006FF01FFED8
:10045000B707000413850700EF00803E93070500EF
:1004600013850700EFF05FF0B7070004138507005E
:10047000EF0080409307050013850700EFF0DFEEE3
:10048000B707000413850700EF0040389307050005
:1004900013850700EFF05FEDB70700041385070031
:1004A000EF00803D9307050013850700EFF0DFEBB9
:1004B000B707000413850700EF00003C9307050011
:1004C00013850700EFF05FEAB70700041385070004
:1004D000EF00803A9307050013850700EFF0DFE88F
:1004E000B707000413850700EF00403293070500AB
:1004F00013850700EFF05FE793051000B7070004CE
:1005000013850700EF00003D93059009B70700042D
:1005100013850700EF00802AB707000483A7470070
:100520009387F7FFB337F00093F7F70F6384070063
:100530006FF09FFEB757341213858767EFF0DFE245
:1005400093050000B707000413850700EF0080380B
:100550009305A009B707000413850700EF000026E4
:10056000B707000413850700EF000031930705006B
:1005700013850700EFF05FDF93051000B707000455
:1005800013850700EF0000359305B009B707000495
:1005900013850700EF008022B707000483A74700F8
:1005A0009387E7FFB337F00093F7F70F63840700F3
:1005B0006FF09FFEB75734121385B767EFF0DFDA9D
:1005C00093070000138507008320C10103248101E4
:1005D0001301010267800000130101FE232E1100A8
:1005E000232C8100130401022326A4FE0325C4FE4C
:1005F000EFF09FD7B707000413850700EF00C0276F
:100600009307050013850700EFF01FD6B707000416
:1006100083A7470013871700B707000423A2E7004A
:10062000130000008320C101032481011301010292
:1006300067800000130101FE232E1100232C81008E
:10064000130401022326A4FE2324B4FE0327C4FEC0
:10065000930710006312F702032784FEB707010017
:100660009387F7FF631AF700B70501F0B707000497
:1006700013850700EF008004130000008320C101F0
:10068000032481011301010267800000130101FFAF
:10069000232611002324810013040101B707010060
:1006A0009385F7FF13051000EFF0DFF88320C100FA
:1006B000032481001301010167800000130101FE82
:1006C000232E8100130401022326A4FE2324B4FE5A
:1006D0008327C4FE032784FE23A0E7001300000045
:1006E0000324C1011301010267800000130101FE10
:1006F000232E8100130401022326A4FE2324B4FE2A
:100700008327C4FE83A7070093878700032784FEFF
:1007100023A0E700130000000324C101130101021C
:1007200067800000130101FE232E810013040102E3
:100730002326A4FE2324B4FE2322C4FE2320D4FEB9
:100740008327C4FE83A707009387C700032784FE7F
:100750001307F7FF832644FE939686003367D7007E
:10076000832604FE939606013367D70023A0E70093
:10077000130000000324C10113010102678000007F
:10078000130101FE232E8100130401022326A4FE7F
:100790008327C4FE83A707009387470083A707002A
:1007A00093D7070193B7170093F7F70F1385070047
:1007B0000324C1011301010267800000130101FE3F
:1007C000232E1100232C8100130401022326A4FEF2
:1007D0002324B4FE0325C4FEEFF09FFA930705001F
:1007E000638407006FF01FFF8327C4FE83A7070001
:1007F000032784FE23A0E700130000008320C1012B
:10080000032481011301010267800000130101FE2E
:10081000232E8100130401022326A4FE8327C4FE95
:1008200083A707009387470083A7070093D7870113
:10083000138507000324C101130101026780000032
:10084000130101FE232E8100130401022326A4FEBE
:100850008327C4FE83A707009387470083A7070069
:1008600093D7070193F7F70F138507000324C101FE
:100870001301010267800000130101FD232681029C
:1008800013040103232EA4FC8327C4FD83A70700C0
:1008900083A707002326F4FE0327C4FEB707010041
:1008A000B377F70093B7170093F7F70F6384070048
:1008B0006FF09FFD0327C4FEB70701009387F7FF82
:1008C000B377F700138507000324C1021301010366
:1008D00067800000130101FE232E81001304010232
:1008E0002326A4FE93870500A305F4FE8327C4FEF8
:1008F00083A70700138747008347B4FE638E070072
:100900008327C4FE83A707009387470083A70700B8
:1009100093E727006F0080018327C4FE83A70700A9
:100920009387470083A7070093F7D7FF2320F7009B
:10093000130000000324C1011301010267800000BD
:10094000B3C7A50093F73700B308C5006392070E3D
:100950009307300063FEC70E93773500639A070450
:1009600013F8C8FF930708FE130705006366F50632
:1009700093860500930707006378070303A6060024
:10098000938747009386460023AEC7FEE3E807FF40
:100990009347F7FF338807011378C8FF130848000F
:1009A00033070701B38505016368170967800000F5
:1009B0001307050083C60500130717009377370058
:1009C000A30FD7FE93851500E39607FE13F8C8FF23
:1009D000930708FEE37EF7F883A3050083A2450092
:1009E00083AF850003AFC50083AE050103AE4501AB
:1009F00003A3850103A6C50193854502130747029A
:100A000083A6C5FF232E77FC232057FE2322F7FF62
:100A10002324E7FF2326D7FF2328C7FF232A67FEC7
:100A2000232CC7FE232ED7FEE368F7FA6FF05FF49E
:100A3000130705006374150383C705001307170028
:100A400093851500A30FF7FEE36817FF678000008A
:100A500013070500E36215FF6FF05FF56780000084
:100A60001308F00013070500637EC8029377F700B0
:100A70006390070A63920508937606FF1376F600E3
:100A8000B386E6002320B7002322B7002324B70053
:100A90002326B70013070701E366D7FE6314060099
:100AA00067800000B306C8409396260097020000B6
:100AB000B38656006780C6002307B700A306B700B9
:100AC0002306B700A305B7002305B700A304B700AA
:100AD0002304B700A303B7002303B700A302B700A2
:100AE0002302B700A301B7002301B700A300B7009A
:100AF0002300B7006780000093F5F50F93968500FB
:100B0000B3E5D50093960501B3E5D5006FF0DFF6A8
:100B10009396270097020000B38656009382000048
:100B2000E78006FA93800200938707FF3307F740B8
:100B30003306F600E378C8F66FF0DFF3100000002C
:100B400000000000017A5200010401011B0D0200A7
:100B50001C0000001800000058F7FFFFB80000005C
:100B600000440E204811017F11087E440C0800004B
:100B70001000000000000000017A52000104010191
:100B80001B0D02001800000018000000DCF7FFFF3A
:100B90003000000000440E204411087F440C08007F
:100BA000180000003400000014FBFFFF30000000BC
:100BB00000440E204411087F440C08001800000077
:100BC0005000000028FBFFFF3800000000440E200A
:100BD0004411087F440C0800180000006C0000005D
:100BE00044FBFFFF5C00000000440E204411087F1E
:100BF000440C0800180000008800000084FBFFFF80
:100C00003C00000000440E204411087F440C080002
:100C10001C000000A4000000A4FBFFFF5000000027
:100C200000440E204811017F11087E440C0800008A
:100C300018000000C4000000D4FBFFFF34000000D7
:100C400000440E204411087F440C080018000000E6
:100C5000E0000000ECFBFFFF3800000000440E2025
:100C60004411087F440C080018000000FC0000003C
:100C700008FCFFFF5C00000000440E304411087FB8
:100C8000440C0800180000001801000048FCFFFF99
:100C90006C00000000440E204411087F440C080042
:100CA0001C00000034010000F0F6FFFF40020000CD
:100CB00000440E204811017F11087E440C080000FA
:100CC0001C0000005401000010F9FFFF5C00000050
:100CD00000440E204811017F11087E440C080000DA
:100CE0001C000000740100004CF9FFFF58000000D8
:100CF00000440E204811017F11087E440C080000BA
:100D00001C0000009401000084F9FFFF3000000087
:100D100000440E104811017F11087E440C080000A9
:100D20001000000000000000017A520001040101DF
:100D30001B0D0200100000001800000004FCFFFF63
:080D400020010000000000008A
:040D48008C06000015
:0400000300000200F7
:00000001FF
