:100000006F008014130000001300000013000000B4
:100010001300000013000000130000001300000094
:1000200013000000130101F82320310023221100E6
:10003000232421002326310023284100232A5100B4
:10004000232C6100232E71002320810223229102A0
:100050002324A1022326B1022328C102232AD1028C
:10006000232CE102232EF102232001052322110576
:10007000232421052326310523284105232A510560
:10008000232C6105232E710523208107232291074C
:100090002324A1072326B1072328C107232AD10738
:1000A000232CE107232EF107130000000B4500026B
:1000B00097020040E780021E1300000013000000BA
:1000C00013000000832041008321C10003220101AD
:1000D00083224101032381018323C10103240102FF
:1000E00083244102032581028325C10203260103E3
:1000F00083264103032781038327C10303280104C7
:1001000083284104032981048329C104032A0105AA
:10011000832A4105032B8105832BC105032C01068E
:10012000832C4106032D8106832DC106032E010772
:10013000832E4107032F8107832FC1071301010875
:100140000B000000130000001305F00F0B20050446
:100150001711000013018186170500401305056E75
:10016000970500409385056E6308B50023200500C0
:10017000130545006FF05FFF170500401305C56BC1
:100180001301C1FF970500409385456B630EB500D1
:1001900083260500130545002320A100E780060003
:1001A000032501006FF01FFE13014100970200407C
:0801B000E78042E86F00000047
:020000044000BA
:10000000130101FE232E8100130401022326A4FE06
:10001000B70710F0938707F00327C4FE23A0E7007B
:10002000130000000324C1011301010267800000D6
:10003000130101FE232E1100232C81001304010261
:1000400093054000B717004013858783EF00803584
:10005000930600001306000093058000B7170040C8
:1000600013858783EF00803793050000B7170040A2
:1000700013858783EF00405893050000B7170040B1
:1000800013858783EF008050B7170040138587835F
:10009000EF0080469307050013850700EFF05FF639
:1000A0009305A00AB717004013858783EF00803CB3
:1000B00093051000B717004013858783EF00803B3E
:1000C00093052000B717004013858783EF00803A1F
:1000D00093053000B717004013858783EF00803900
:1000E000232604FEB717004013858783EF00803D69
:1000F000930705009387C7FFB337F00093F7F70F17
:10010000638407006FF01FFEB717004013858783D5
:10011000EF00803E9307050013850700EFF05FEEC8
:10012000B717004013858783EF00804093070500D1
:1001300013850700EFF0DFECB717004013858783C6
:10014000EF0040389307050013850700EFF05FEBE1
:10015000B717004013858783EF00803D93070500A4
:1001600013850700EFF0DFE9B71700401385878399
:10017000EF00003C9307050013850700EFF05FE8F0
:10018000B717004013858783EF00803A9307050077
:1001900013850700EFF0DFE6B7170040138587836C
:1001A000EF0040329307050013850700EFF05FE58D
:1001B00093051000B717004013858783EF00C043F5
:1001C00093059009B717004013858783EF00802AB5
:1001D000B717004083A7C7839387F7FFB337F000B3
:1001E00093F7F70F638407006FF09FFEB757341241
:1001F00013858767EFF0DFE093050000B717004035
:1002000013858783EF00403F9305A009B71700408F
:1002100013858783EF000026B71700401385878377
:10022000EF0000319307050013850700EFF05FDD55
:1002300093051000B717004013858783EF00C03B7C
:100240009305B009B717004013858783EF0080221C
:10025000B717004083A7C7839387E7FFB337F00042
:1002600093F7F70F638407006FF09FFEB7573412C0
:100270001385B767EFF0DFD89307000013850700F9
:100280008320C10103248101130101026780000062
:10029000130101FE232E1100232C810013040102FF
:1002A0002326A4FE0325C4FEEFF09FD5B717004018
:1002B00013858783EF00C027930705001385070088
:1002C000EFF01FD4B717004083A7C7831387170029
:1002D000B717004023AEE782130000008320C1015E
:1002E000032481011301010267800000130101FE54
:1002F000232E1100232C8100130401022326A4FEC7
:100300002324B4FE0327C4FE930710006312F702F0
:10031000032784FEB70701009387F7FF631AF700EE
:10032000B70501F0B717004013858783EF008004FD
:10033000130000008320C101032481011301010285
:1003400067800000130101FF232611002324810090
:1003500013040101B70701009385F7FF130510008F
:10036000EFF0DFF88320C1000324810013010101B5
:1003700067800000130101FE232E81001304010297
:100380002326A4FE2324B4FE8327C4FE032784FE71
:1003900023A0E700130000000324C10113010102A0
:1003A00067800000130101FE232E81001304010267
:1003B0002326A4FE2324B4FE8327C4FE83A70700BC
:1003C00093878700032784FE23A0E7001300000023
:1003D0000324C1011301010267800000130101FE23
:1003E000232E8100130401022326A4FE2324B4FE3D
:1003F0002322C4FE2320D4FE8327C4FE83A7070044
:100400009387C700032784FE1307F7FF832644FE64
:10041000939686003367D700832604FE93960601E1
:100420003367D70023A0E700130000000324C101B5
:100430001301010267800000130101FE232E110049
:10044000232C8100130401022326A4FE0325C4FEED
:10045000EF00800A9307050093B7170093F7F70F93
:10046000138507008320C1010324810113010102C8
:1004700067800000130101FE232E1100232C810050
:10048000130401022326A4FE2324B4FE0325C4FE84
:10049000EFF09FFA93070500638407006FF01FFFDA
:1004A0008327C4FE83A70700032784FE23A0E70059
:1004B000130000008320C101032481011301010204
:1004C00067800000130101FE232E81001304010246
:1004D0002326A4FE8327C4FE83A707009387470033
:1004E00083A7070093D78701138507000324C10161
:1004F0001301010267800000130101FE232E810019
:10050000130401022326A4FE8327C4FE83A7070049
:100510009387470083A7070093D7070193F7F70F47
:10052000138507000324C101130101026780000045
:10053000130101FD2326810213040103232EA4FCD1
:100540008327C4FD83A7070083A707002326F4FEA3
:100550000327C4FEB7070100B377F70093B717006E
:1005600093F7F70F638407006FF09FFD0327C4FE26
:10057000B70701009387F7FFB377F70013850700EC
:100580000324C1021301010367800000130101FE6F
:10059000232E8100130401022326A4FE9387050065
:1005A000A305F4FE8327C4FE83A707001387470033
:1005B0008347B4FE638E07008327C4FE83A707002A
:1005C0009387470083A7070093E717006F00800118
:1005D0008327C4FE83A707009387470083A70700EC
:1005E00093F7E7FF2320F700130000000324C10165
:1005F0001301010267800000130101FE232E810018
:10060000130401022326A4FE93870500A305F4FE2C
:100610008327C4FE83A70700138747008347B4FEE0
:10062000638E07008327C4FE83A7070093874700D4
:1006300083A7070093E727006F0080018327C4FE8C
:1006400083A707009387470083A7070093F7D7FF87
:100650002320F700130000000324C101130101024D
:10066000678000001000000000000000017A5200C6
:10067000010401011B0D0200180000001800000019
:1006800080F9FFFF3000000000440E204411087F75
:10069000440C08001800000034000000D8FCFFFFE4
:1006A0003000000000440E204411087F440C080074
:1006B0001800000050000000ECFCFFFF38000000B4
:1006C00000440E204411087F440C0800180000006C
:1006D0006C00000008FDFFFF5C00000000440E20DD
:1006E0004411087F440C08001C0000008800000032
:1006F00048FDFFFF3C00000000440E204811017F30
:1007000011087E440C0800001C000000A800000036
:1007100064FDFFFF5000000000440E204811017FDF
:1007200011087E440C08000018000000C8000000FA
:1007300094FDFFFF3400000000440E204411087FA8
:10074000440C080018000000E4000000ACFDFFFFAE
:100750003800000000440E204411087F440C0800BB
:100760001800000000010000C8FDFFFF5C00000051
:1007700000440E304411087F440C080018000000AB
:100780001C01000008FEFFFF6C00000000440E206A
:100790004411087F440C08001800000038010000D4
:1007A00058FEFFFF6C00000000440E204411087F3B
:1007B000440C08001C0000005401000074F8FFFF06
:1007C0006002000000440E204811017F11087E44A1
:1007D0000C0800001C00000074010000B4FAFFFFC8
:1007E0005C00000000440E204811017F11087E4487
:1007F0000C0800001C00000094010000F0FAFFFF4C
:100800005800000000440E204811017F11087E446A
:100810000C0800001C000000B401000028FBFFFFD2
:100820003000000000440E104811017F11087E4482
:040830000C080000B0
:040834004403004039
:0400000300000148B0
:00000001FF
