:1000000013000000130000001300000013000000A4
:100010001300000013000000130000001300000094
:100020001300000013000000130000001300000084
:100030001300000013000000130000001300000074
:100040001300000013000000130000001300000064
:100050001300000013000000130000001300000054
:100060001300000013000000130000001300000044
:100070001300000013000000130000001300000034
:100080001300000013000000130000001300000024
:100090001300000013000000130000001300000014
:1000A0001300000013000000130000001300000004
:1000B00013000000130000001300000013000000F4
:1000C00013000000130000001300000013000000E4
:1000D00013000000130000001300000013000000D4
:1000E00013000000130000001300000013000000C4
:1000F00013000000130000001300000013000000B4
:1001000013000000130000001300000013000000A3
:100110001300000013000000130000001300000093
:100120001300000013000000130000001300000083
:100130001300000013000000130000001300000073
:100140001300000013000000130000001300000063
:100150001300000013000000130000001300000053
:100160001300000013000000130000001300000043
:100170001300000013000000130000001300000033
:100180001300000013000000130000001300000023
:100190001300000013000000130000001300000013
:1001A0001300000013000000130000001300000003
:1001B00013000000130000001300000013000000F3
:1001C00013000000130000001300000013000000E3
:1001D00013000000130000001300000013000000D3
:1001E00013000000130000001300000013000000C3
:1001F00013000000130000001300000013000000B3
:10020000930000001301000093010000130200009E
:100210009302000013030000930300001304000086
:10022000930400001305000093050000130600006E
:100230009306000013070000930700001308000056
:10024000930800001309000093090000130A00003E
:10025000930A0000130B0000930B0000130C000026
:10026000930C0000130D0000930D0000130E00000E
:10027000930E0000130F0000930F00001300000006
:100280001300000013000000130000001300000022
:1002900013000000B70700F0938787001307F00FE3
:1002A00023A0E700B70700F01307100023A0E70022
:1002B0001711000413010155EF00C000EF00000802
:1002C0006F000000130101FF232611002324810089
:1002D00013040101B707000413870700B7070004E0
:1002E00093870700B307F7401386070093050000C4
:1002F000B707000413850700EF004033B707000479
:1003000013870700B707000493870700B307F74078
:1003100013860700B717000093858782B70700048C
:1003200013850700EF00801E130000008320C1002A
:10033000032481001301010167800000130101FE05
:10034000232E1100232C8100130401029307C4FE05
:10035000B70501F013850700EF0040069307C4FEC0
:100360009305400013850700EF0040089307C4FE83
:100370009306000013060000930580001385070014
:10038000EF00400A9307C4FE93055005138507004C
:10039000EF00C0129307C4FE930500001385070009
:1003A000EF00C01193070000138507008320C101EF
:1003B000032481011301010267800000130101FE83
:1003C000232E8100130401022326A4FE2324B4FE5D
:1003D0008327C4FE032784FE23A0E7001300000048
:1003E0000324C1011301010267800000130101FE13
:1003F000232E8100130401022326A4FE2324B4FE2D
:100400008327C4FE83A7070093878700032784FE02
:1004100023A0E700130000000324C101130101021F
:1004200067800000130101FE232E810013040102E6
:100430002326A4FE2324B4FE2322C4FE2320D4FEBC
:100440008327C4FE83A707009387C700032784FE82
:100450001307F7FF832644FE939686003367D70081
:10046000832604FE939606013367D70023A0E70096
:10047000130000000324C101130101026780000082
:10048000130101FE232E8100130401022326A4FE82
:100490008327C4FE83A707009387470083A707002D
:1004A00093D7070193B7170093F7F70F138507004A
:1004B0000324C1011301010267800000130101FE42
:1004C000232E1100232C8100130401022326A4FEF5
:1004D0002324B4FE0325C4FEEFF09FFA9307050022
:1004E000638407006FF01FFF8327C4FE83A7070004
:1004F000032784FE23A0E700130000008320C1012E
:10050000032481011301010267800000B3C7A50025
:1005100093F73700B308C5006392070E93073000C6
:1005200063FEC70E93773500639A070413F8C8FF7C
:10053000930708FE130705006366F506938605001A
:10054000930707006378070303A606009387470015
:100550009386460023AEC7FEE3E807FF9347F7FF05
:10056000338807011378C8FF1308480033070701D1
:10057000B38505016368170967800000130705004C
:1005800083C605001307170093773700A30FD7FE24
:1005900093851500E39607FE13F8C8FF930708FE3E
:1005A000E37EF7F883A3050083A2450083AF8500AF
:1005B00003AFC50083AE050103AE450103A385016A
:1005C00003A6C501938545021307470283A6C5FF0D
:1005D000232E77FC232057FE2322F7FF2324E7FF57
:1005E0002326D7FF2328C7FF232A67FE232CC7FE15
:1005F000232ED7FEE368F7FA6FF05FF413070500C8
:100600006374150383C7050013071700938515004E
:10061000A30FF7FEE36817FF6780000013070500CC
:10062000E36215FF6FF05FF5678000001308F000CC
:1006300013070500637EC8029377F7006390070AEB
:1006400063920508937606FF1376F600B386E600FC
:100650002320B7002322B7002324B7002326B700A6
:1006600013070701E366D7FE6314060067800000E6
:10067000B306C8409396260097020000B386560042
:100680006780C6002307B700A306B7002306B7009C
:10069000A305B7002305B700A304B7002304B700E0
:1006A000A303B7002303B700A302B7002302B700D8
:1006B000A301B7002301B700A300B7002300B700D0
:1006C0006780000093F5F50F93968500B3E5D5009C
:1006D00093960501B3E5D5006FF0DFF693962700FA
:1006E00097020000B386560093820000E78006FA66
:1006F00093800200938707FF3307F7403306F60025
:10070000E378C8F66FF0DFF310000000000000008F
:10071000017A5200010401011B0D02001C000000BF
:1007200018000000A0FBFFFF7800000000440E103E
:100730004811017F11087E440C08000010000000E1
:1007400000000000017A5200010401011B0D0200AB
:10075000180000001800000064FCFFFF30000000DB
:1007600000440E204411087F440C080018000000CB
:100770003400000078FCFFFF3800000000440E2029
:100780004411087F440C08001800000050000000CD
:1007900094FCFFFF5C00000000440E204411087F21
:1007A000440C0800180000006C000000D4FCFFFF9F
:1007B0003C00000000440E204411087F440C080057
:1007C0001C00000088000000F4FCFFFF5000000047
:1007D00000440E204811017F11087E440C080000DF
:1007E0001C000000A800000054FBFFFF8000000078
:1007F00000440E204811017F11087E440C080000BF
:100800001000000000000000017A52000104010104
:100810001B0D02001000000018000000F0FCFFFF9C
:080820002001000000000000AF
:0400000300000200F7
:00000001FF
