:1000000013000000130101F8232031002322110006
:10001000232421002326310023284100232A5100D4
:10002000232C6100232E71002320810223229102C0
:100030002324A1022326B1022328C102232AD102AC
:10004000232CE102232EF102232001052322110596
:10005000232421052326310523284105232A510580
:10006000232C6105232E710523208107232291076C
:100070002324A1072326B1072328C107232AD10758
:10008000232CE107232EF107130000000B4500028B
:10009000EF00802113000000130000001300000097
:1000A000832041008321C1000322010183224101F9
:1000B000032381018323C10103240102832441021C
:1000C000032581028325C102032601038326410300
:1000D000032781038327C1030328010483284104E4
:1000E000032981048329C104032A0105832A4105C8
:1000F000032B8105832BC105032C0106832C4106AC
:10010000032D8106832DC106032E0107832E41078F
:10011000032F8107832FC107130101080B00000083
:100120001300000013000000130000001300000083
:100130001300000013000000130000001300000073
:100140001300000013000000130000001300000063
:100150001300000013000000130000001300000053
:100160001300000013000000130000001300000043
:100170001300000013000000130000001300000033
:100180001300000013000000130000001300000023
:100190001300000013000000130000001300000013
:1001A0001300000013000000130000001300000003
:1001B00013000000130000001300000013000000F3
:1001C00013000000130000001300000013000000E3
:1001D00013000000130000001300000013000000D3
:1001E00013000000130000001300000013000000C3
:1001F00013000000130000001300000013000000B3
:10020000130500000B20050417910940130181E13B
:1002100017050040130505DF970500409385C5DEEF
:100220006308B50023200500130545006FF05FFF4C
:1002300017050040130505DD97050040938585DC13
:10024000170600001306461C630CB5008326060043
:100250002320D50013064600130545006FF0DFFE8E
:10026000170500001305051A1301C1FF97050000CB
:1002700093858519630EB500832605001305450097
:100280002320A100E7800600032501006FF01FFE78
:1002900013014100EF0080016F000000B70710F06C
:1002A00023A0A7F06780000067800000B707004028
:1002B00083A70700130760033708004023A4E70063
:1002C000370701001307770023A6E70003A74700BD
:1002D00013030802130500001377D7FF23A2E700DA
:1002E00003A7470013080802930500281377E7FFC8
:1002F00023A2E7009308001E1376F5031316560099
:10030000930608009307000013F7F7013307E60090
:100310002390E6009387170093862600E396B7FEA6
:100320001305150013080850E31815FDB70703F06F
:1003300023A007001307F00523A0E7041307F031FB
:1003400023A2E7041307F00623A4E7041307F02E03
:1003500023A6E7049306100023A8D7041307C020A0
:1003600023AAE7041307B00023ACE7041307B01E69
:1003700023AEE704376709001307F7FF23A2E7005E
:1003800023A4670023A0D7006F000000370701F007
:10039000B707004023A0E7006780000010000000BE
:1003A00000000000017A5200010401011B0D02004F
:1003B0001000000018000000E4FEFFFF0C00000029
:1003C00000000000100000002C000000E0FEFFFF15
:1003D000E0000000000000001000000040000000ED
:1003E000C8FEFFFF04000000000000001000000035
:1003F0005400000098FFFFFF100000000000000004
:040400008C03000069
:0400000300000200F7
:00000001FF
