:1000000013000000130101F8232031002322110006
:10001000232421002326310023284100232A5100D4
:10002000232C6100232E71002320810223229102C0
:100030002324A1022326B1022328C102232AD102AC
:10004000232CE102232EF102232001052322110596
:10005000232421052326310523284105232A510580
:10006000232C6105232E710523208107232291076C
:100070002324A1072326B1072328C107232AD10758
:10008000232CE107232EF107130000000B4500028B
:10009000EF00802113000000130000001300000097
:1000A000832041008321C1000322010183224101F9
:1000B000032381018323C10103240102832441021C
:1000C000032581028325C102032601038326410300
:1000D000032781038327C1030328010483284104E4
:1000E000032981048329C104032A0105832A4105C8
:1000F000032B8105832BC105032C0106832C4106AC
:10010000032D8106832DC106032E0107832E41078F
:10011000032F8107832FC107130101080B00000083
:100120001300000013000000130000001300000083
:100130001300000013000000130000001300000073
:100140001300000013000000130000001300000063
:100150001300000013000000130000001300000053
:100160001300000013000000130000001300000043
:100170001300000013000000130000001300000033
:100180001300000013000000130000001300000023
:100190001300000013000000130000001300000013
:1001A0001300000013000000130000001300000003
:1001B00013000000130000001300000013000000F3
:1001C00013000000130000001300000013000000E3
:1001D00013000000130000001300000013000000D3
:1001E00013000000130000001300000013000000C3
:1001F00013000000130000001300000013000000B3
:10020000130500000B20050417410040130181A1D4
:1002100017050040130505DF970500409385C5DEEF
:100220006308B50023200500130545006FF05FFF4C
:1002300017050040130505DD97050040938585DC13
:100240001706000013060620630CB500832606007F
:100250002320D50013064600130545006FF0DFFE8E
:10026000170500001305C51D1301C1FF9705000008
:100270009385451D630EB5008326050013054500D3
:100280002320A100E7800600032501006FF01FFE78
:1002900013014100EF0080016F000000B70710F06C
:1002A00023A0A7F06780000067800000B707004028
:1002B00083A707001307600323A4E70037070100A3
:1002C0001307770023A6E70083A6470037070040FF
:1002D000930F070293F6D6FF23A2D70003A6470089
:1002E00013070702930600001376E6FF23A2C70058
:1002F000930700602310D70093861600130727008A
:10030000E39AF6FEB70703F023A007001387070060
:1003100083260700B70703F093F62600E39A06FE4C
:100320009305700023A0B704930E500423A2D705B1
:10033000130EF00023A4C7051303F00323A66704DC
:100340001306100023A8C7049308F00223AA170578
:1003500023ACB70413087002371F000023AE070553
:100360001305FFBF23A2A70023A4F70113870700EB
:1003700023A0C7009386070093070F7713000000A0
:100380009387F7FFE39C07FE2320070083270700DE
:1003900093F72700E39C07FE23A0B60423A2D6050B
:1003A00023A4C60523A6660423A8C60423AA16050B
:1003B00023ACB60423AE060523A2A60023A4F601AF
:1003C00023A0C6006FF05FFB370701F0B7070040BE
:1003D00023A0E7006780000010000000000000007C
:1003E000017A5200010401011B0D020010000000FF
:1003F00018000000A8FEFFFF0C0000000000000035
:10040000100000002C000000A4FEFFFF1C010000F3
:100410000000000010000000400000008CFEFFFF04
:100420000400000000000000100000005400000064
:0C04300098FFFFFF10000000000000001B
:04043C00C8030000F1
:0400000300000200F7
:00000001FF
