:1000000013000000130101F8232031002322110006
:10001000232421002326310023284100232A5100D4
:10002000232C6100232E71002320810223229102C0
:100030002324A1022326B1022328C102232AD102AC
:10004000232CE102232EF102232001052322110596
:10005000232421052326310523284105232A510580
:10006000232C6105232E710523208107232291076C
:100070002324A1072326B1072328C107232AD10758
:10008000232CE107232EF107130000000B4500028B
:10009000EF00802113000000130000001300000097
:1000A000832041008321C1000322010183224101F9
:1000B000032381018323C10103240102832441021C
:1000C000032581028325C102032601038326410300
:1000D000032781038327C1030328010483284104E4
:1000E000032981048329C104032A0105832A4105C8
:1000F000032B8105832BC105032C0106832C4106AC
:10010000032D8106832DC106032E0107832E41078F
:10011000032F8107832FC107130101080B00000083
:100120001300000013000000130000001300000083
:100130001300000013000000130000001300000073
:100140001300000013000000130000001300000063
:100150001300000013000000130000001300000053
:100160001300000013000000130000001300000043
:100170001300000013000000130000001300000033
:100180001300000013000000130000001300000023
:100190001300000013000000130000001300000013
:1001A0001300000013000000130000001300000003
:1001B00013000000130000001300000013000000F3
:1001C00013000000130000001300000013000000E3
:1001D00013000000130000001300000013000000D3
:1001E00013000000130000001300000013000000C3
:1001F00013000000130000001300000013000000B3
:10020000130500000B20050417410040130181A1D4
:1002100017050040130505DF970500409385C5DEEF
:100220006308B50023200500130545006FF05FFF4C
:1002300017050040130505DD97050040938585DC13
:100240001706000013068619630CB5008326060006
:100250002320D50013064600130545006FF0DFFE8E
:1002600017050000130545171301C1FF970500008E
:100270009385C516630EB50083260500130545005A
:100280002320A100E7800600032501006FF01FFE78
:1002900013014100EF0080016F000000B70710F06C
:1002A00023A0A7F06780000067800000B707004028
:1002B00083A60700930760033707004023A4F600D6
:1002C000B70701009387770023A6F60083A74600AF
:1002D000930507021307070293F7D7FF23A2F6003F
:1002E00003A64600930700001376E6FF23A2C6008C
:1002F000930600602310F700938717001307270069
:10030000E39AD7FEB70703F023A007001307700096
:1003100023A0E7049306500423A2D7049306F00019
:1003200023A4D7049306F00323A6D7049306100052
:1003300023A8D7041306F00223AAC70423ACE704BA
:100340001307700223AEE704371700001307F7BF47
:1003500023A2E70023A4B70023A0D7006F0000006A
:10036000370701F0B707004023A0E70067800000CF
:100370001000000000000000017A52000104010199
:100380001B0D0200100000001800000010FFFFFF0E
:100390000C00000000000000100000002C00000015
:1003A0000CFFFFFFB4000000000000001000000080
:1003B00040000000F4FEFFFF040000000000000009
:1003C000100000005400000098FFFFFF1000000024
:0403D0000000000029
:0403D40060030000C2
:0400000300000200F7
:00000001FF
