:1000000013000000130101F8232031002322110006
:10001000232421002326310023284100232A5100D4
:10002000232C6100232E71002320810223229102C0
:100030002324A1022326B1022328C102232AD102AC
:10004000232CE102232EF102232001052322110596
:10005000232421052326310523284105232A510580
:10006000232C6105232E710523208107232291076C
:100070002324A1072326B1072328C107232AD10758
:10008000232CE107232EF107130000000B4500028B
:10009000EF00807A1300000013000000130000003E
:1000A000832041008321C1000322010183224101F9
:1000B000032381018323C10103240102832441021C
:1000C000032581028325C102032601038326410300
:1000D000032781038327C1030328010483284104E4
:1000E000032981048329C104032A0105832A4105C8
:1000F000032B8105832BC105032C0106832C4106AC
:10010000032D8106832DC106032E0107832E41078F
:10011000032F8107832FC107130101080B00000083
:100120001300000013000000130000001300000083
:100130001300000013000000130000001300000073
:100140001300000013000000130000001300000063
:100150001300000013000000130000001300000053
:100160001300000013000000130000001300000043
:100170001300000013000000130000001300000033
:100180001300000013000000130000001300000023
:100190001300000013000000130000001300000013
:1001A0001300000013000000130000001300000003
:1001B00013000000130000001300000013000000F3
:1001C00013000000130000001300000013000000E3
:1001D00013000000130000001300000013000000D3
:1001E00013000000130000001300000013000000C3
:1001F00013000000130000001300000013000000B3
:10020000930000001301000093010000130200009E
:100210009302000013030000930300001304000086
:10022000930400001305000093050000130600006E
:100230009306000013070000930700001308000056
:10024000930800001309000093090000130A00003E
:10025000930A0000130B0000930B0000130C000026
:10026000930C0000130D0000930D0000130E00000E
:10027000930E0000130F0000930F000017410004BD
:100280001301C1CAEF000002EF0040061305F00F92
:100290000B200504EF10405F130E100073000000E8
:1002A0006F000000130E1000130500009305D0002E
:1002B00017060000130646022320B6000F100000A8
:1002C00013000000130000001300000013000000E2
:1002D000130000001305150063140500678000007B
:1002E000131E1E00136E1E0073000000371500045D
:1002F000B7370004938787121306C58D130101FFDA
:100300003386C740930500001305C58D23261100D1
:10031000EF20503637050004B71700049387C78DC8
:1003200013060500B72501003386C7409385850471
:1003300013050500EF201022B717000483A5078CD2
:10034000371700048320C1009385150023A0B78CC4
:100350008327C78D37F5000013058568938717003D
:100360001386070013010101232EF78C6F20104321
:100370009307803E130000001300000013000000EC
:100380001300000013000000130000001300000021
:100390001300000013000000130000001300000011
:1003A000130000009387F7FFE39607FC67800000C7
:1003B0006F00C0001305000067800000130101FFFB
:1003C00023261100EFF0DFFA8320C100130500009F
:1003D0001301010167800000130101FF23261100B2
:1003E000EFF01FF98320C100130500001301010184
:1003F00067800000130101FF23261100EFF05FF773
:100400008320C10013050000130101016780000073
:1004100093070500130500006382070213F7170016
:10042000B306B50093D717006304070013850600D1
:1004300093951500E39407FE678000006780000035
:10044000B70600F03707FFFF83A74600B3F7E700C2
:10045000E38C07FEB70700F023A0A7006780000029
:10046000130101FF2324810023261100130405003A
:1004700003450500630A050013041400EFF05FFC58
:1004800003450400E31A05FE8320C1000324810014
:100490001301010167800000130101FF2322910075
:1004A00023202101232611002324810013090600A3
:1004B000B384C500630C06001384050003450400E3
:1004C00013041400EFF0DFF7E39A84FE8320C100E9
:1004D000130509000324810083244100032901003E
:1004E0001301010167800000B70700F023A2070491
:1004F00067800000B70700F003A5070467800000CD
:100500006FF05FFF130101FD13061500232C41015D
:10051000130A0500131526009307250123248102E1
:10052000232611022322910223202103232E3101AD
:10053000232A5101232861012326710193F707FF24
:10054000130401033301F14063480A0A93070100D1
:1005500093060100130700009305007D23A0B60059
:100560001307170093864600E31AC7FE6356400937
:10057000372900001305C5FF931A1A0013090971E2
:10058000B7F90000338BA700938AFAFF93050000A8
:100590009389C969930B090013850A0013060B00A0
:1005A00093060A009304000003270600B38796020F
:1005B0001306C6FF9386F6FF33072703B307F7003A
:1005C00033E7A7022322E600B3C4A7021305E5FF21
:1005D000E39C06FCB3C7740313850900130A2AFFC2
:1005E000130B8BFC938A4AFEB385B700EF20101BD8
:1005F000B3E57403E34240FB130104FD8320C10211
:100600000324810283244102032901028329C101B9
:10061000032A8101832A4101032B0101832BC1009D
:100620001301010367800000130101FE9307A0007E
:100630002324F100930750002326F1008327810033
:100640000327C10037F500001305856AB387E70269
:10065000232E11002324F10083258100EF201014A4
:100660008320C1011301010267800000130101FE14
:100670001307F0FF2320E1009307F0002322F1008D
:100680001307F00F2324E100930700002326F10055
:100690000328010083284100032681008326C1002E
:1006A000232C8100B385C80237F40000130484684A
:1006B0001305C402232E1100338306033307C80237
:1006C000B3866500B337C8022320E100B387F60084
:1006D0002322F10003270100032641008327410064
:1006E00093050700EF20900B0326010083264100AD
:1006F0001305C403EF20900A8320C1010324810164
:100700001301010267800000130101FC232C810208
:1007100037F4000013048468032704058327440585
:10072000232E11022328E100232AF10003250101D1
:10073000832541010326010183264101232A9102D9
:100740002328210323263103EFE00050832784056B
:10075000232CA100232EB1002326F1000325C10084
:100760008325C1008329C1001309C405EFD0006DA2
:10077000930404070324C10093850900EFD0006CA3
:1007800093050400EFD0806B2326A100032501010F
:100790008325410103244101EFE0D04F930505007B
:1007A0001306040013050900EF20407F0326010112
:1007B0008326410113850400EF20407E032581013B
:1007C0008325C1010324C101EFE0D04C13060400CE
:1007D0009305050013050900EF20407C03268101E5
:1007E0008326C10113850400EF20407B8320C103D1
:1007F0000324810383244103032901038329C102C4
:100800001301010467800000130101FF9305050037
:1008100023261100EFD080628320C1001301010163
:10082000678000001375F50F230CA0FE67800000A1
:10083000130510006FF01FFF130101FF2324810037
:10084000370400F0832744002326110093F7071094
:10085000638E0700032504001375F50FEFF05FBEEC
:100860008327440093F70710E39607FE8320C10017
:100870000324810013050000130101016FF09FFAAA
:10088000130101FE232C8100232E1100EFF09FC6DF
:10089000930710002322F100232401009307400650
:1008A000130405002326F1008327C1001387F7FFF7
:1008B0002326E100638E0702832741006388070037
:1008C00013000000130000001300000083278100C4
:1008D000E38C07FC1300000013000000130000006D
:1008E0008327C1001387F7FF2326E100E39607FC67
:1008F000EFF05FC0B305854037F500001305857044
:10090000EF20C0698320C10103248101130101028A
:1009100067800000B70700F023A8A70067800000E9
:10092000B70700F003A5070167800000B70700F0D4
:1009300003A507026780000037F50000130101FDE1
:10094000130585712326110223248102232291029B
:1009500023202103232E3101232C4101232A51017D
:10096000EFF01FB037F40000EFF05FFC1304846871
:10097000B714030013750504938404D4B7FA000078
:1009800037FA0000B7F900001309840B6306050A63
:10099000EF00506AEFF09FF91375F5039357154078
:1009A00093871700B3879702130000009387F7FF20
:1009B000E39C07FEEF0010699307A00213850A72FB
:1009C0002324F100EF20805D8325810013058A72C6
:1009D000EF20C05C9305900013850973EF20005C45
:1009E000EFF0DFF41375F503935715409387170065
:1009F000B3879702130000009387F7FFE39C07FE7D
:100A0000EF0010658327040B8325440B2326F10098
:100A10000325C100EFD08042EFD0D033130605008C
:100A20009386050013050900EF204057EFF01FF0F3
:100A300013750504E31E05F48320C102032481021B
:100A400083244102032901028329C101032A810170
:100A5000832A410113010103678000001305A500EB
:100A6000678000009317E50193D7F701638E0704B1
:100A700037B70400B75602002310B5001303E7FF91
:100A80009386F67F9308F7FF13081000139605016D
:100A90009397170033E6C500B307F500130700006E
:100AA00023A0C7001307170093874700E36AD7FE08
:100AB000B307030163886800939717003305F500B7
:100AC0002310B5006780000037B30400B76602004A
:100AD0009386068093080300130800006FF01FFB45
:100AE000130101FB2324810337FC0000130C8C68E5
:100AF0002322910423202105B70700808324CC0CF6
:100B000003290C0E93C7F7FF232A51032320A103C7
:100B10002326110423248104232E3103232C410393
:100B2000232861032326710323229103232EB1017D
:100B30002324A100130D0000232201002326F1002D
:100B4000930A05009305000013850400EFD04025AB
:100B5000930505002320A100EFD0402E930C050043
:100B6000930900006F00405C93050A0013050A001A
:100B7000EFD0002383250100EFD0402C93850400A3
:100B8000EFD00022130A050093850C0013050B001B
:100B9000EFD0802593050400EFD080209305050059
:100BA000930D0500EFD08029130B050093050A0073
:100BB00013050A00EFD0802893050500930B05006C
:100BC00013050B00EFD0C01D93050900EFD0407056
:100BD000635E056093850D0013850D00EFD0401C0A
:100BE00093050A00EFD080259305050013850400C6
:100BF000EFD0001B130A050093850B0013050B00B3
:100C0000EFD0801E93050400EFD0801993050500F6
:100C1000930D0500EFD08022130B050093050A0009
:100C200013050A00EFD0802193050500930B050002
:100C300013050B00EFD0C01693050900EFD04069F3
:100C4000635C055A93850D0013850D00EFD04015A8
:100C500093050A00EFD0801E93050500138504005C
:100C6000EFD00014130A050093850B0013050B0049
:100C7000EFD0801793050400EFD080129305050094
:100C8000930D0500EFD0801B130B050093050A00A0
:100C900013050A00EFD0801A93050500930B050099
:100CA00013050B00EFD0C00F93050900EFD0406291
:100CB000635A055493850D0013850D00EFD0400E47
:100CC00093050A00EFD080179305050013850400F3
:100CD000EFD0000D130A050093850B0013050B00E0
:100CE000EFD0801093050400EFD0800B9305050032
:100CF000930D0500EFD08014130B050093050A0037
:100D000013050A00EFD0801393050500930B05002F
:100D100013050B00EFD0C00893050900EFD0405B2E
:100D20006358054E93850D0013850D00EFD04007E5
:100D300093050A00EFD08010930505001385040089
:100D4000EFD00006130A050093850B0013050B0076
:100D5000EFD0800993050400EFD0800493050500CF
:100D6000930D0500EFD0800D130B050093050A00CD
:100D700013050A00EFD0800C93050500930B0500C6
:100D800013050B00EFD0C00193050900EFD04054CC
:100D90006356054893850D0013850D00EFD0400084
:100DA00093050A00EFD08009930505001385040020
:100DB000EFC0107F130A050093850B0013050B008D
:100DC000EFD0800293050400EFC0907D93050500ED
:100DD000930D0500EFD08006130B050093050A0064
:100DE00013050A00EFD0800593050500930B05005D
:100DF00013050B00EFC0D07A93050900EFD0404DEA
:100E00006354054293850D0013850D00EFC05079A2
:100E100093050A00EFD080029305050013850400B6
:100E2000EFC01078130A050093850B0013050B0023
:100E3000EFC0907B93050400EFC09076930505000A
:100E4000930D0500EFC0907F130B050093050A007A
:100E500013050A00EFC0907E93050500930B050073
:100E600013050B00EFC0D07393050900EFD0404687
:100E70006352053C93850D0013850D00EFC0507241
:100E800093050A00EFC0907B9305050013850400CD
:100E9000EFC01071130A050093850B0013050B00BA
:100EA000EFC0907493050400EFC0906F93050500A8
:100EB000930D0500EFC09078130B050093050A0011
:100EC00013050A00EFC0907793050500930B05000A
:100ED00013050B00EFC0D06C93050900EFD0403F25
:100EE0006350053693850D0013850D00EFC0506BE0
:100EF00093050A00EFC09074930505001385040064
:100F0000EFC0106A130A050093850B0013050B0050
:100F1000EFC0906D93050400EFC090689305050045
:100F2000930D0500EFC09071130B050093050A00A7
:100F300013050A00EFC0907093050500930B0500A0
:100F400013050B00EFC0D06593050900EFD04038C2
:100F5000635E052E93850D0013850D00EFC0506470
:100F600093050A00EFC0906D9305050013850400FA
:100F7000EFC01063130A050093850B0013050B00E7
:100F8000EFC0906693050400EFC0906193050500E3
:100F9000930D0500EFC0906A130B050093050A003E
:100FA00013050A00EFC0906993050500930B050037
:100FB00013050B00EFC0D05E83250C0EEFD040313F
:100FC000635C052893850D0013850D00EFC0505D0F
:100FD00093050A00EFC09066930505001385040091
:100FE000EFC0105C130A050093850B0013050B007E
:100FF000EFC0905F93050400EFC0905A9305050081
:10100000930D0500EFC09063130B050093050A00D4
:1010100013050A00EFC0906293050500930B0500CD
:1010200013050B00EFC0D05783250C0EEFD0402ADC
:10103000635A052293850D0013850D00EFC05056AD
:1010400093050A00EFC0905F930505001385040027
:10105000EFC01055130A050093850B0013050B0014
:10106000EFC0905893050400EFC09053930505001E
:10107000930D0500EFC0905C130B050093050A006B
:1010800013050A00EFC0905B93050500930B050064
:1010900013050B00EFC0D05083250C0EEFD040237A
:1010A0006358051C93850D0013850D00EFC0504F4C
:1010B00093050A00EFC090589305050013850400BE
:1010C000EFC0104E130A050093850B0013050B00AB
:1010D000EFC0905193050400EFC0904C93050500BC
:1010E000EFC0D0551304050093050A0013050A004C
:1010F000EFC0D0549305050013050400EFC0504A1B
:1011000083250C0EEFD0C01C635A0516130DFD008D
:101110009307E0012390FA009389190093070008D0
:10112000938A2A006388F90613850900EFD0801F8F
:10113000B7F7000083A58775EFC05050B7F70000E0
:1011400083A54776EFC0504A9305000013040500BD
:10115000EFC0104593050500130A0500EFC0104EBF
:1011600093850C00130B0500EFC090439305090015
:10117000EFD00016E34A059E930720002390FA0063
:101180009389190093070008130D1D00938A2A0004
:10119000E39CF9F883274100938717002322F1008D
:1011A0006384370F13850700EFD0C01783250C0D1C
:1011B000EFC0D04883254C0DEFC010438327C100FA
:1011C00083258C0D930405003375F500EFD0401096
:1011D0006354050093040000832781009387075020
:1011E0002324F100938A07006FF0DF95130D2D0083
:1011F000930740006FF01FF2130D3D00930760004E
:101200006FF05FF1130D4D00930780006FF09FF0BA
:10121000130D5D009307A0006FF0DFEF130D6D005D
:101220009307C0006FF01FEF130D7D009307E000E0
:101230006FF05FEE130D8D00930700016FF09FEDCF
:10124000130D9D00930720016FF0DFEC130DAD002F
:10125000930740016FF01FEC130DBD009307600171
:101260006FF05FEB130DCD00930780016FF09FEAE5
:10127000130DDD009307A0016FF0DFE9130DED0002
:101280009307C0016FF01FE98320C10413050D000F
:101290000324810483244104032901048329C10315
:1012A000032A8103832A4103032B0103832BC102F9
:1012B000032C8102832C4102032D0102832DC101E5
:1012C0001301010567800000130101FF9305F00180
:1012D00037051000232611002324810023229100CA
:1012E000EFF04FF8EFF00FA1EFF0CFA0EFF08FA0ED
:1012F0001304050037051000EFF08FFE930405007E
:10130000EFF04F9FB3058540B3C6950213860400E6
:101310008320C100032481008324410037F50000AD
:101320001305C576130101016F105047130101FE2B
:10133000232C8100232E1100232A910093074006BD
:101340002320F50093077000130405002322F50005
:101350008327C40093F71700E39C07FE9307300729
:101360002324F4008327C40013F71700E30C07FEBF
:1013700093D717002304F100930710062324F400E9
:101380008327C40013F71700E30C07FE93D7170059
:10139000A304F1009307C0062324F4008327C400AC
:1013A00013F71700E30C07FE93D717002305F1008E
:1013B000930750072324F4008327C40013F7170072
:1013C000E30C07FE93D71700A305F100930740072E
:1013D0002324F4008327C40013F71700E30C07FE4F
:1013E000B7F4000093D71700930581001385847A22
:1013F0002306F100A3060100EF10503A9307000303
:101400002324F40083278400E39E07FE9307100340
:101410002324F40083278400E39E07FE9307200320
:101420002324F40083278400E39E07FE9307300300
:101430002324F40083278400E39E07FE93074003E0
:101440002324F40083278400E39E07FE37F5000081
:101450001305C57AEF1090340328C4000326C40096
:101460008326C4000327C4008327C4001358180030
:101470001356160093D616001357170093D717006C
:10148000930581001385847A23040101A304C1001C
:101490002305D100A305E1002306F100EF10103071
:1014A0008320C1010324810183244101130101022E
:1014B0006780000013071000B70700F023A2E700C1
:1014C0006FF08F82B70600F01307400623A0E608EE
:1014D0001307700023A2E60883A7C60893F7170036
:1014E000E39C07FE9307300723A4F608370600F0B5
:1014F0008327C60893F61700E38C06FE130101FE4E
:1015000093D717002304F100232E1100232C810010
:10151000232A9100930710062324F608370600F0CB
:101520008327C60893F61700E38C06FE93D71700AF
:10153000A304F1009307C0062324F608370600F041
:101540008327C60893F61700E38C06FE93D717008F
:101550002305F100930750072324F608370600F00F
:101560008327C60893F61700E38C06FE93D717006F
:10157000A305F100930740072324F608B70600F0FF
:1015800083A7C6081384060813F71700E30A07FEAB
:10159000B7F4000093D71700930581001385847A70
:1015A0002306F100A3060100EF10501F930700036C
:1015B0002324F400B70600F003A78608E31E07FE05
:1015C0001307100323A4E608B70600F003A7860854
:1015D000E31E07FE1307200323A4E608B70600F066
:1015E00003A78608E31E07FE1307300323A4E608BB
:1015F000B70600F003A78608E31E07FE13074003A3
:1016000023A4E608370700F0832787081304070898
:10161000E39C07FE37F500001305C57AEF1010189C
:101620008327C400930581001385847A93D717001C
:101630002304F1008327C40093D71700A304F1000B
:101640008327C40093D717002305F1008327C40024
:1016500093D71700A305F1008327C40093D7170081
:101660002306F100EF1090138320C10103248101B0
:10167000832441011301010267800000B70600F0D6
:101680001307400623A0E60A1307700023A2E60A08
:1016900083A7C60A93F71700E39C07FE930730075A
:1016A00023A4F60A370600F08327C60A93F617002C
:1016B000E38C06FE130101FE93D717002304F1000B
:1016C000232E1100232C8100232A9100930710065A
:1016D0002324F60A370600F08327C60A93F617007C
:1016E000E38C06FE93D71700A304F1009307C0060E
:1016F0002324F60A370600F08327C60A93F617005C
:10170000E38C06FE93D717002305F10093075007DB
:101710002324F60A370600F08327C60A93F617003B
:10172000E38C06FE93D71700A305F100930740074B
:101730002324F60AB70600F083A7C60A1384060A14
:1017400013F71700E30A07FEB7F4000093D717005A
:10175000930581001385847A2306F100A306010016
:10176000EF10D003930700032324F400B70600F022
:1017700003A7860AE31E07FE1307100323A4E60A45
:10178000B70600F003A7860AE31E07FE130720032F
:1017900023A4E60AB70600F003A7860AE31E07FEA5
:1017A0001307300323A4E60AB70600F003A7860A4E
:1017B000E31E07FE1307400323A4E60A370700F0E1
:1017C0008327870A1304070AE39C07FE37F5000006
:1017D0001305C57AEF10807C8327C4009305810030
:1017E0001385847A93D717002304F1008327C4005C
:1017F00093D71700A304F1008327C40093D71700E1
:101800002305F1008327C40093D71700A305F10037
:101810008327C40093D717002306F100EF10007848
:101820008320C101032481018324410113010102AA
:10183000678000001307F000B70700F023A8E70057
:1018400067800000B70700F023A80700678000004A
:10185000130101FF23248100370401002326110016
:10186000130540071304848613041400EFE05FBDE2
:1018700003450400E31A05FE8320C1000324810010
:101880001301010167800000130101F6232C810878
:1018900037F4000013048468232E1108232A9108CA
:1018A0002328210923263109EFF0DFC08326040E07
:1018B00003278412130660012322C1008327C41268
:1018C0002324D100832641002328E100232AF100AC
:1018D00013000000130000001300000013000000BC
:1018E00013000000130000001300000013000000AC
:1018F000130000001300000013000000130000009C
:1019000013054000EF00504F9307050093050500B5
:10191000130504132326F100EF1040689305C1005E
:101920001305C413EF108067EFF00F8113058414C3
:10193000EFE01FB3EFE0DFF4EFE09FEFEFE0DFCE8B
:10194000EFE0DFD2EFE05FDC13054415EFE05FB1BD
:1019500083254100930404161385040093855500E4
:10196000EF10C06383254100138504009385250093
:10197000EF10C06203260101832641011305C4173D
:10198000EF10C061032601018326410103270101F5
:101990008327410113058418B385E602B388C70283
:1019A0003338E602B38515013306E602B386050136
:1019B000EF10C05E83244419232491000325810085
:1019C000EFE09FE42324A10003258100832581000B
:1019D000EFC0C046EFC0103813060500938605001F
:1019E00013058419EF10805B032581008325810096
:1019F000EFC0C044EFC01036130605009386050003
:101A00001305841AEF108059EF004027232491001A
:101A100083294100032941008324410003258100DB
:101A200093842400EFC0103393063900B3869602E6
:101A300013070500938705001386A9009305841BEF
:101A40001305C101EF10C0611305C101EFE05FA1F3
:101A5000130000001300000013000000130000003A
:101A6000130000001300000013000000130000002A
:101A7000130000001300000013000000130000001A
:101A80001305441DEFE0DF9DEFE05FEA13751500DD
:101A9000630A0500EFF01FA3EFF05FBEEFF0DF82F7
:101AA0006FF05FFF03258100EFC0D01B8320C109C9
:101AB0000324810983244109032901098329C108D9
:101AC0001301010A67800000B717000403C7978F4E
:101AD000930710046304F700678000008327050064
:101AE000371700040327079093879700B387E740D1
:101AF0002320F50067800000B717000403A6879035
:101B000063080600032706002320E50003A687904C
:101B1000B717000483A507901306C6001305A0009D
:101B20006F00500F130101FF23202101371900041A
:101B30002322910083278990832405002324810098
:101B4000232611001304050013870400938607035E
:101B500003A8070003A5470083A5870003A6C700C5
:101B6000232007012322A7002324B7002326C70030
:101B70009387070113070701E39CD7FC93075000E5
:101B80002326F40023A6F400832704001385040011
:101B900023A0F400EFF05FF683A74400638A0704F4
:101BA00083270400130504001387070303A8070015
:101BB00083A5470003A6870083A6C700232005014D
:101BC0002322B5002324C5002326D50093870701CF
:101BD00013050501E39CE7FC8320C1000324810079
:101BE00083244100032901001301010167800000E3
:101BF0009307600023A6F4000325840093858400E6
:101C0000EF0050138327899003A5C4001386C400F6
:101C100083A707008320C1000324810023A0F400D0
:101C200003290100832441009305A0001301010151
:101C30006F00407EB717000483C7978FB716000464
:101C400003A7C68F9387F7FB93B71700B3E7E700A7
:101C500023AEF68E13072004B7170004238CE78EFB
:101C60006780000013071004B7170004A38CE78EE9
:101C7000B717000423AE078E67800000130101F63A
:101C800013050003232E11082328A1072326B107DB
:101C9000232C8108232A910823282109232631098E
:101CA000232441092322510923206109232E71078E
:101CB000232C8107232A9107EF001014B717000483
:101CC00023A2A79013050003EF001013B717000419
:101CD00083A74790371D00042324AD902320F500EF
:101CE000930720002324F500B70501009307800225
:101CF0002326F5001306F0019385058723220500AE
:101D000013050501EF10000537070100930787E170
:101D1000032E87E103A3470083A8870003A8C70019
:101D200083A5070103A6470183A6870103D7C7013F
:101D300083C7E701B71D000437050100231EE10238
:101D4000230FF10213878D929307A000130545AD71
:101D5000232EF7642320C1032322610223241103CD
:101D6000232601032328B102232AC102232CD102F6
:101D7000EF10C0223705010013050589EF1000227E
:101D8000B7070100138547ADEF104021B7170004D6
:101D900083A7478F63800764370501001305058C0F
:101DA000EF10C01FB7070100138547ADEF10001FEC
:101DB000370501001305C591EF10401EB70701005C
:101DC000138547ADEF10801D370501009305800C8A
:101DD00013054595EF10801CEFE08FF237090100E5
:101DE000832789E3370C0100832C8CE52326F1003F
:101DF000B717000423A8A78EB7370004938787037B
:101E000093091000130989E32324F100B714000497
:101E1000B71B000413042000EFF0DFE4EFF09FE1B4
:101E20008347E90103264901032E49000323890062
:101E30008328C90003280901832689010357C901A2
:101E4000832EC100230FF1049305010493071000B2
:101E500013050102232AC104232EF100232A810045
:101E60002320D1052322C105232461042326110543
:101E700023280105232CD104231EE104EF008063F5
:101E80000326410113351500B717000423AEA78EB2
:101E9000634AC40293172600B387C7009387D7FF0E
:101EA000130506009305300013068101232CF10071
:101EB000EF0040560326410113061600232AC100F5
:101EC000E35AC4FC832681010325810093858D920A
:101ED000130A3000EF00005503258D90EFF09FC4EA
:101EE00003C7848F9307000463FEE708930A100476
:101EF0006F00400183C7848F938A1A0093FAFA0F08
:101F000063E257099305300413850A00EF00405837
:101F10008327C101E310F5FE9305C10113050000FD
:101F2000EF00406193078CE583A8470003A8870072
:101F300003A5C70083A5070103A6470183A6870160
:101F400003D7C70183C7E701938A1A0023209105AD
:101F5000230FF10483C7848F232211052324010555
:101F60002326A1042328B104232AC104232CD1044D
:101F7000231EE10423A03B9193FAFA0F138A090070
:101F8000E3F257F983274101032B81011305410136
:101F9000330AFA0293891900B34A6A03232A5101CA
:101FA000EFF09FB29307900CE398F9E6EFE04FD57E
:101FB000371700042326A78E37050100130545981F
:101FC0002326E100EF00907DB7070100138547ADA0
:101FD000EF00D07C3705010013054599EF00107C18
:101FE000B7070100138547ADEF00507B83A50B9029
:101FF000370501001305C59C37040100EF00107A76
:10200000930550001305849EEF005079B717000424
:1020100083A5C78F37050100130545A0EF00107891
:10202000930510001305849EEF005077B717000446
:1020300083C5978F37050100130505A2EF001076C1
:1020400037090100930510041305C9A3EF001075AB
:1020500083C5848F37050100130585A5EF00107433
:10206000930520041305C9A3EF005073B73700048C
:102070009387879283A5077337050100130545A74A
:10208000EF00D071930570001305849EEF0010716E
:10209000B71700049387879283A5C76537050100AA
:1020A000130505A9EF00906F370501001305C5AAB8
:1020B000EF00D06E37050100130585ADEF00106EFF
:1020C00083268D90B7070100138547AE83A50600D0
:1020D0002324F100370C0100EF00506C370501009C
:1020E000130505B0EF00906B83268D9013054CB35C
:1020F000B70B010083A54600B709010037090100AD
:10210000EF00D069930500001305849EEF0010696D
:1021100083268D9013850BB5B70C010083A586002F
:10212000330A6A41B7040100EF00506793052000AD
:102130001305849EEF00906683268D901385C9B6A3
:10214000B71D000483A5C600EF005065930510017C
:102150001305849EEF00906483258D90130589B844
:1021600093850501EF00906313854CBAEF0010636F
:10217000370501001305C5BDEF005062B717000415
:1021800083A647908327810083A50600138547AE69
:10219000EF00D06037050100130505BFEF001060A8
:1021A000B717000483A7479013054CB383A54700D6
:1021B000EF00D05E930500001305849EEF00105ED3
:1021C000B717000483A7479013850BB583A5870035
:1021D000EF00D05C930510001305849EEF00105CA7
:1021E000B717000483A747901385C9B683A5C70016
:1021F000EF00D05A930520011305849EEF00105A7A
:10220000B717000483A54790130589B89385050186
:10221000EF00D05813854CBAEF0050588325410188
:1022200037050100130505C3EF0050579305500013
:102230001305849EEF00905693173A00B3854741EB
:1022400037050100B38555411305C5C4EF0010558E
:102250009305D0001305849EEF005054832581011F
:1022600037050100130585C6EF0050539305700034
:102270001305849EEF0090528325C10137050100AC
:10228000130545C8EF009051930510001305849E77
:10229000EF00D0503705010093050102130505CA70
:1022A000EF00D04F370501001305C5CBEF00104FED
:1022B0003705010093050104130545CFEF00104ECB
:1022C00037050100130505D1EF00504D138544ADCE
:1022D000EF00D04C0327C1008327C78E37170004B7
:1022E0008325078FB385B74023A4BD8E9307301F86
:1022F00063D0B71037050100130505DAEF00104A67
:1023000003A58D8EB719000437190004EFC08001B2
:10231000130A0500EFC00024B707010003A60774E5
:1023200083A6477437040100EFC0D01CEFD000290A
:10233000B707010023A2A98E03A5877493050A009D
:10234000EFB0104A2320A98E37050100130505DBE5
:10235000EF00D04403A5498EEFC0C01F130605004F
:1023600093860500130504DEEF0050433705010096
:10237000130585DEEF0090420325098EEFC0801D16
:102380001306050093860500130504DEEF001041D7
:10239000138544ADEF0090408320C10903248109D7
:1023A00083244109032901098329C108032A8108DB
:1023B000832A4108032B0108832BC107032C8107C3
:1023C000832C4107032D0107832DC1061301010A48
:1023D00067800000370501001305C58EEF00103C33
:1023E000B7070100138547ADEF00503B6FF05F9CCE
:1023F00037050100130585D4EF00503A3705010079
:10240000130505D8EF009039138544ADEF0010395E
:102410006FF09FF813052500B305B5002320B60023
:1024200067800000130856009307800CB307F8027A
:1024300013162600131728003305E5002320D500C6
:102440002322D500232C05073387C7003387E500F7
:1024500083260701232A0701232C070193861600F0
:102460002328D70037170000130707FA8326050033
:10247000B387E700B385F500B385C50013075000A7
:10248000B717000423AAD50023A0E79067800000B7
:102490001375F50F93F5F50F6306B50013050000EE
:1024A00067800000B7170004A38CA78E13051000E7
:1024B00067800000130101FF232481002322910083
:1024C00023261100130405009384050083C53400FE
:1024D00003452400EFF0DFFBE31A05FE93850400BB
:1024E00013050400EF00D03F6354A0028320C10015
:1024F0001307A000B7170004130510000324810080
:102500008324410023A0E7901301010167800000AC
:102510008320C100130500000324810083244100AF
:1025200013010101678000001305E5FF1335150055
:1025300067800000130101FF232481002322910002
:10254000232611001304050093840500EFF0DFFD3E
:10255000630E050223A08400930710006300F404B7
:102560006306040413072000630EE404930740008D
:102570006314F40023A0E4008320C100032481003D
:10258000832441001301010167800000930730009C
:1025900023A0F40093071000E314F4FCB717000421
:1025A00003A707909307400663DAE7028320C10080
:1025B00023A00400032481008324410013010101AE
:1025C000678000008320C10023A0F4000324810061
:1025D0008324410013010101678000008320C100B2
:1025E0009307300023A0F4000324810083244100DA
:1025F0001301010167800000B7170004930505006F
:1026000003A5078D6F004001B7170004930505006F
:1026100003A5078D6F608058130101FD23229102ED
:10262000232E31012326110223248102232021039A
:10263000232C4101232A5101232861012326710102
:1026400023248101232291019384B5009307600123
:102650009309050063FC971A93F484FF63C4042470
:1026600063E2B424EF00D00E9307701F63FC976CF5
:1026700093D7940093060008130500049305F00314
:10268000639A07223709000413090900939626006C
:10269000B306D90003A44600938686FF638A862288
:1026A000832744001306F00093F7C7FF3387974052
:1026B0006340E602635207220324C400638A862033
:1026C0008327440093F7C7FF33879740E354E6FE20
:1026D0009386050003240901130889006302044757
:1026E000832744001306F00093F7C7FF3387974012
:1026F0006342E644232A0901232809016354071E83
:102700001307F01F6366F73C93D737001386170053
:1027100013163600032749003306C90003250600B7
:1027200093D7274093051000B397F500B3E7E70070
:10273000130786FF2326E4002324A4002322F900A4
:10274000232086002326850013D726401306100079
:102750003316E60063E8C71A3377F60063140702FE
:102760001316160093F6C6FF3377F60093864600DD
:10277000631A0700131616003377F6009386460097
:10278000E30A07FE1305F00093983600B38828018A
:10279000938508001383060003A4C500639A85008F
:1027A0006F00803A6354073C0324C400638E85386D
:1027B0008327440093F7C7FF33879740E354E5FE30
:1027C0008327C4008326840013E614002322C40058
:1027D00023A6F60023A4D700B3049400232A99006B
:1027E000232899009367170023A6040123A404015A
:1027F00023A2F400B384E4001385090023A0E400BD
:10280000EF004075130584006F00800693040001FB
:1028100063EAB408EF00C0739307600093062000DA
:10282000370900041309090093972700B307F9003B
:1028300003A44700138787FF6302E4328327440021
:102840008326C4000326840093F7C7FFB307F40070
:1028500003A747002326D60023A4C600136717004A
:102860001385090023A2E700EF00C06E1305840062
:102870008320C1020324810283244102032901022F
:102880008329C101032A8101832A4101032B01010C
:10289000832BC100032C8100832C41001301010311
:1028A000678000009307C00023A0F9001305000013
:1028B0006FF01FFC13074000636AF71E93D5640096
:1028C0001385950393161500938585036FF09FDBA1
:1028D000930605006FF01FE08326C40003268400E2
:1028E0006FF0DFF6B307F40003A747001385090074
:1028F0001367170023A2E700EF00C06513058400EB
:102900006FF01FF7032489008327440093FAC7FF61
:1029100063E89A00B3879A401307F0006344F71600
:10292000B717000403A74791B71C000483A64C8C7B
:102930003387E4009307F0FF330B5401130A0701B8
:10294000638CF600371A0000130AFA00330A4701B5
:1029500037F7FFFF337AEA0013050A00EFB04001B2
:102960009307F0FF930B0500630EF524636A65255A
:10297000373C0004130C0C1003270C003307EA004B
:102980002320EC0063087B3383A64C8C9307F0FF75
:102990006386F634338B6B413307EB002320EC0066
:1029A00013F77B00B7170000630A0700B38BEB40F7
:1029B00093878700938B8B00B387E740371700001E
:1029C0001307F7FF338A4B01337AEA00338A474112
:1029D00013050A00EFA0D0799307F0FF630AF52EE4
:1029E000B3077541B387470193E7170003270C002E
:1029F0002324790123A2FB003307EA002320EC0003
:102A0000630C24031306F000637E562583264400DE
:102A100093874AFF93F787FF93F61600B3E6F60015
:102A20002322D40093055000B306F40023A2B6007D
:102A300023A4B600636AF62AB717000483A6079199
:102A400063F4E60023A8E790B717000483A6C790B5
:102A50000324890063F4E60023A6E79003274400DB
:102A60001377C7FFB3079740636697001307F0001B
:102A7000634AF70013850900EF00C04D13050000FD
:102A80006FF01FDF13E714002322E400B304940067
:102A90002324990093E717001385090023A2F4006B
:102AA000EF00404B130584006FF09FDC13074001DB
:102AB0006376F70E130740056368F71693D5C400D5
:102AC0001385F506931615009385E5066FF09FBBF9
:102AD00013D7970013064000637AE60C13064001F3
:102AE000636CE61A9305C7051306B70593951500A1
:102AF00093952500B305B90003A70500938585FFCD
:102B00006382E514032647001376C6FF63F6C70009
:102B100003278700E398E5FE8325C7008327490044
:102B20002326B4002324E40023A485002326870061
:102B30006FF09FC193E714002322F4006FF0DFC908
:102B4000832749006FF05FC01303130093773300AE
:102B500093858500E39207C46F00800803A4C70033
:102B600093862600E38887B66FF05FCDB307F40045
:102B700003A747008326C4000326840013671700B9
:102B800023A2E7002326D6001385090023A4C6004C
:102B9000EF00403C130584006FF09FCD1385C705FF
:102BA0009385B705931615006FF0DFAD13D6670058
:102BB0009305960393951500130686036FF05FF354
:102BC000E30824DB03248900032744001377C7FFAD
:102BD0006FF05FE983A788009386F6FF6390F8168D
:102BE00093F73600938888FFE39607FE8327490012
:102BF0001347F6FFB377F7002322F90013161600E8
:102C0000E3E2C7D0E30006D03377F6009306030073
:102C1000E31C07B6131616003377F60093864600BA
:102C2000E30A07FE6FF05FB6130740156362F7040F
:102C300093D5F400138585079316150093857507C2
:102C40006FF05FA483274900130710001356264036
:102C50003316C700B367F6002322F9001387050077
:102C60006FF01FEC9307100023A2FB006FF09FE0B2
:102C7000130740559306E00F1305F0079305E0078F
:102C8000E362F7A093D524011385D50793161500A9
:102C90009385C5076FF01F9F130640056360E60626
:102CA00013D6C7009305F606939515001306E6069E
:102CB0006FF01FE493174B01E39807CC832689003C
:102CC000B3874A0193E7170023A2F6006FF0DFD61F
:102CD00093071000130A00006FF05FD1B7170004CC
:102CE00023A2778D6FF0DFCB930584001385090055
:102CF000EF50D06A03270C006FF01FD41306401565
:102D0000636CE60013D6F7009305860793951500CC
:102D1000130676076FF0DFDD130540559305E00FCE
:102D20001306E007E366E5DC13D627019305D60713
:102D3000939515001306C6076FF09FDB83274900A4
:102D40006FF0DFEB93D6340093871600939717004C
:102D50006FF01FADB3C7A50093F73700B308C500E8
:102D60006392070E9307300063FEC70E937735001A
:102D7000639A070413F8C8FF930708FE13070500BA
:102D80006366F506938605009307070063780703DB
:102D900003A60600938747009386460023AEC7FE2E
:102DA000E3E807FF9347F7FF338807011378C8FF6D
:102DB0001308480033070701B38505016368170945
:102DC000678000001307050083C60500130717007E
:102DD00093773700A30FD7FE93851500E39607FE80
:102DE00013F8C8FF930708FEE37EF7F883A30500F6
:102DF00083A2450083AF850003AFC50083AE050104
:102E000003AE450103A3850103A6C50193854502D1
:102E10001307470283A6C5FF232E77FC232057FE06
:102E20002322F7FF2324E7FF2326D7FF2328C7FF0A
:102E3000232A67FE232CC7FE232ED7FEE368F7FA6A
:102E40006FF05FF4130705006374150383C7050073
:102E50001307170093851500A30FF7FEE36817FF0C
:102E60006780000013070500E36215FF6FF05FF550
:102E7000678000001308F00013070500637EC80296
:102E80009377F7006390070A63920508937606FF2D
:102E90001376F600B386E6002320B7002322B7009E
:102EA0002324B7002326B70013070701E366D7FEE4
:102EB0006314060067800000B306C840939626009E
:102EC00097020000B38656006780C6002307B7004C
:102ED000A306B7002306B700A305B7002305B70074
:102EE000A304B7002304B700A303B7002303B7006C
:102EF000A302B7002302B700A301B7002301B70064
:102F0000A300B7002300B7006780000093F5F50F1A
:102F100093968500B3E5D50093960501B3E5D500FA
:102F20006FF0DFF69396270097020000B3865600F5
:102F300093820000E78006FA93800200938707FFE0
:102F40003307F7403306F600E378C8F66FF0DFF397
:102F50006780000067800000130101FC2324C10288
:102F60002326D102232AF1022328E102232C010384
:102F7000232E110313860500832585009307810204
:102F800093860700232E11002326F100EF10106C0A
:102F90008320C1011301010467800000371300047E
:102FA0000323038D130101FC2324C1022326D10234
:102FB000232AF1022322B1022328E102232C010358
:102FC000232E110383258300930741021306050076
:102FD0009386070013050300232E11002326F1001A
:102FE000EF10D0668320C101130101046780000047
:102FF000130101F5130EC1092322F10A37030080E2
:1030000093078020938E05001343F3FF232ED108EE
:10301000231EF100930501019307F0FF93060E00B4
:1030200023261108231FF1002320E10A2324010B8A
:103030002326110B2328D1012320D103232C610047
:10304000232261022326C101EF00C01A8327010158
:10305000238007008320C1081301010B6780000053
:10306000930E050037150004130101F50325058DA6
:10307000130E81092322F10A370300809307802071
:103080001343F3FF232CC108232ED108231EF10084
:10309000138605009307F0FF9305010193060E00C8
:1030A00023261108231FF1002320E10A2324010B0A
:1030B0002326110B2328D1012320D103232C6100C7
:1030C000232261022326C101EF00C01283270101E0
:1030D000238007008320C1081301010B67800000D3
:1030E0003367B5009303F0FF137737006310070CC5
:1030F000378E7F7F130EFEF70326050083A605009B
:10310000B372C6013363C601B382C201B3E2620087
:103110006392720C6316D6040326450083A645000D
:10312000B372C6013363C601B382C201B3E2620067
:10313000639E72086316D6020326850083A6850067
:10314000B372C6013363C601B382C201B3E2620047
:10315000639872081305C5009385C500E30ED6F881
:103160001317060193970601631EF7001357060114
:1031700093D706013305F7409375F50F6390050269
:10318000678000001357070193D707013305F74005
:103190009375F50F63940500678000001377F70FB0
:1031A00093F7F70F3305F7406780000003460500EB
:1031B00083C6050013051500938515006314D6001A
:1031C000E31606FE3305D640678000001305450070
:1031D00093854500E31CD6FC1305000067800000C2
:1031E0001305850093858500E312D6FC13050000C6
:1031F00067800000130101EC232E1112232C811291
:10320000232C811113040600138C05002322D10204
:10321000232A911223282113232631132324411317
:103220002322511323206113232E7111232A91117C
:103230002328A1112326B1112324A104EF50D06526
:1032400083270500138507002328F104EF70402D24
:103250008357CC00232AA10493F70708638807004B
:1032600083270C01639407006F10005EB70701000D
:10327000938787E72324F102B7070100938BC7FDEB
:10328000032A8104B7070100130D010C370901005F
:103290009387C7032326A109232A010823280108AD
:1032A000232C0102232001042322010413030D0017
:1032B00023260104232C0104232C01001309C9FE39
:1032C000232EF1049304040083C704006388076479
:1032D00013075002138404006396E7006F00400553
:1032E0006388E7001304140083470400E39A07FE91
:1032F000B3099440638E090203274109832701091A
:1033000023209300330737019387170023223301CB
:10331000232AE1082328F108130770001303830010
:10332000634AF70E83278101B3873701232CF1000D
:1033300083470400638E070E9307F0FF9304140085
:10334000A30701069305000013050000232AF100DE
:1033500013070000930900009306800513069000F0
:103360001308A00283CA04009384140093870AFE02
:10337000E3EEF6148328810293972700B3871701A1
:1033800083A707006780070093E909016FF09FFD9D
:103390008327410203A70700938747002322F102F6
:1033A000E35207FC3307E04093E949006FF09FFBCD
:1033B000930700032308F10693078007A308F1068B
:1033C00003264101832741022320E102A3070106CE
:1033D0001387470093E6290083A70700E3440612FA
:1033E00093F9F9F72322E10293E92900E394070C0A
:1033F000B7070100938707022326F104930A800789
:1034000083274101130600006388077E93070000AD
:103410006F0000191306C10893050C0013050A007C
:10342000EF7000196312050213030D006FF09FEF98
:1034300083274109638A0700032581041306C10815
:1034400093050C00EF70C0168357CC000325810153
:1034500093F70704638407006F10C0558320C113DE
:103460000324811383244113032901138329C112E7
:10347000032A8112832A4112032B0112832BC111CB
:10348000032C8111832C4111032D0111832DC110B7
:103490001301011467800000930510001305B002AA
:1034A0006FF05FEC2320E102638405006F10901839
:1034B00093F70901638A0750A30701068327410296
:1034C000832641011387470083A7070063CE065078
:1034D0002322E10293F9F9F7E3960740032741011C
:1034E0001306000093070000631407006F10803E6E
:1034F00013040D0013F777001304F4FF13070703F9
:103500002300E40093D73700E39607FE93F71900F2
:10351000638A070A930700036306F70A1307F4FF99
:10352000A30FF4FEB307ED40232EF10013040700B0
:103530006F00C0092320E102638405006F10901022
:10354000B7070100938707022326F10493F70901C7
:10355000638C0752032741028327070013074700A4
:103560002322E10213F71900E300073663940700F2
:103570006F10000183264101130700032308E106B1
:10358000A3085107A307010613E7290063D4060027
:103590006F10C04F93F9F9F793E929001306000063
:1035A0008326C10413040D0013F7F7003387E600E8
:1035B000034707001304F4FF93D747002300E400F8
:1035C000E39407FEB3078D40232EF1000327C101CA
:1035D00083264101930707006354D70093870600B1
:1035E0002328F100232A0102630806008327010132
:1035F000938717002328F10093F729002326F1026F
:103600006388070083270101938727002328F1009F
:1036100093F749082328F102639607728327010272
:1036200003270101B38DE740635EB0711308000109
:10363000232E710383274109032701096350B8072B
:10364000930C0800130B70006F00C000938D0DFFEA
:1036500063D6BC0593870701130717002320730166
:1036600023229301232AF1082328E108130383006E
:10367000E35EEBFC1306C10893050C0013050A007A
:10368000EF601073E31205DC938D0DFF8327410972
:103690000327010913030D00E3CEBCFB8326C103FE
:1036A000B387FD00130717002320D3002322B301A3
:1036B000232AF1082328E10893067000E3C6E62ECA
:1036C0000346F10613038300630A06020327010978
:1036D0009306F1062320D30093871700930610006A
:1036E000130717002322D300232AF1082328E10817
:1036F0009306700013038300E3C8E6180327C10292
:10370000630A070203270109930601072320D30058
:103710009387270093062000130717002322D30066
:10372000232AF1082328E10893067000130383007D
:10373000E3CCE6168326010313070008E382E602C2
:10374000032741018326C101B30CD7406358900B76
:10375000930D0001232621030327010963DE9D0544
:10376000130B70006F00C000938C0CFF63D69D0597
:103770009387070113071700232023012322B30196
:10378000232AF1082328E10813038300E35EEBFCFE
:103790001306C10893050C0013050A00EF60506181
:1037A000E31405CA938C0CFF832741090327010901
:1037B00013030D00E3CE9DFB8326C102B38797015F
:1037C000130717002320D30023229301232AF10893
:1037D0002328E108930670001303830063D0E602F8
:1037E0001306C10893050C0013050A00EF60505C36
:1037F000E31C05C48327410913030D0013F70910C7
:10380000631607648326C10103270109232083006F
:10381000B387D700130717002322D300232AF10808
:103820002328E1089306700063C2E6601303830057
:1038300093F94900638C090A0327010283260101D9
:103840003304D7406354800A93090001232E710387
:103850000327010963DE8904930A70006F00C0002A
:10386000130404FF63D68904938707011307170025
:103870002320730123223301232AF1082328E1089E
:1038800013038300E3DEEAFC1306C10893050C0072
:1038900013050A00EF60D051E31805BA130404FFC2
:1038A000832741090327010913030D00E3CE89FA99
:1038B0008326C103B3878700130717002320D30093
:1038C00023228300232AF1082328E10893067000AD
:1038D00063DEE6001306C10893050C0013050A0019
:1038E000EF60104DE31205B683274109032701025B
:1038F000832601016354D7001387060083268101C4
:103900003387E600232CE1006394077683C7040025
:103910002328010813030D00E39C079A1384040075
:103920006FF01FA1638405006F10404B93F70901EE
:10393000E398071C93F90904E384091C0327410257
:1039400083270700130747002322E1020357810161
:103950002390E7006FF05F9783CA040093841400FC
:1039600063940A016F108044138E0AFD93070000D0
:103970006374C6016F10C01D9384140083CAF4FFE2
:103980009398170093973700B387F800B387C70160
:10399000138E0AFDE372C6FF63D407006F100002A6
:1039A000232AF1006FF09F9C93E909086FF09F9B19
:1039B0002320E102638405006F10C04293E90901EE
:1039C00093F70901E39A07AE93F70904A3070106E9
:1039D000E38607AE83274102832641011387470010
:1039E00083D70700E3D606AE2322E102639C076E6D
:1039F00013060000130700006F0000332320E102CC
:103A0000638405006F10804293E9090193F709016F
:103A1000E38A0708A30701068327410283264101A1
:103A20001387470083A70700E3CE06082322E1029D
:103A300093F9F9F713060000638C071A1307900037
:103A400013040D009306A0006376F72E33F7D70218
:103A50001304F4FFB3D7D702130707032300E400CE
:103A6000E39607FE6FF01FB62320E1026384050092
:103A70006F10403BB70701009387C7002326F1046E
:103A800093F70901E39807AC93F709040327410270
:103A9000E388072C83570700130747002322E1021E
:103AA0006FF05FAC2320E102032741029306100070
:103AB0002328D10083270700A3070106130600006F
:103AC000230CF108930747002322F102232ED10093
:103AD000232A0100232A0102130481096FF0DFB1B8
:103AE0002320E102E38405F2A307A1066FF01FF291
:103AF000E31A058693051000130500026FF09F86F8
:103B00002320E102638405006F10403193F78900A0
:103B1000E3840722832741029387770093F787FF87
:103B2000138787002322E10203A7070083A747002A
:103B30002320E1042322F104832C0104032B4104FC
:103B40002328610013850C0093050B00EF60007FB4
:103B50001304100003230101E31C851813850C00D6
:103B600093050B001306000093060000EFB00078E9
:103B700003230101E346056E0346F1069307700433
:103B8000E3DC5749370401001304040093073000B5
:103B90002328F10093F9F9F7232EF100232A0100DD
:103BA000232A01026FF05FA493E989006FF08FFB75
:103BB0002320E102638405006F10402593E9090189
:103BC00093F709016382076A0327410283270700ED
:103BD000130747002322E10263C6076A0327410156
:103BE0000346F1066344076E93F9F9F7E39807E497
:103BF00083274101E394070E232A0100232E0100AD
:103C000013040D006FF09F9C832741022320E102E3
:103C1000A307010603A40700138B47008327410174
:103C2000E30C045C23286100E3C6075613860700F3
:103C30009305000013050400EF50C0610323010148
:103C4000E300056EB3078540232EF100E3C007565D
:103C50000346F1062328F10023226103232A0100F1
:103C6000232A01026FF05F982320E102E38A05F422
:103C7000A307A1066FF0DFF493E909046FF08FEE5C
:103C800093E919006FF00FEE13070000138E0AFD81
:103C90009384140083CAF4FF931717001317370097
:103CA0003387E7003307EE00138E0AFDE372C6FF89
:103CB0006FF0CFEB37070100130707021306000070
:103CC0002326E104930A80076FF09F8D2320E102F1
:103CD000638405006F108016638C0AF4930710004C
:103CE0002328F100230C5109A30701061306000045
:103CF000232EF100232A0100232A01021304810943
:103D00006FF09F8F2322E10237070100130707029C
:103D1000938906002326E104930A80076390073CF9
:103D200013060000130720009306100093070000FD
:103D3000E318D74A938707031304F10BA30FF10A83
:103D40006FF05F88832741096FF01F9883268103F6
:103D500013071000938717006354D72C832A010997
:103D6000130710002322E300938A1A002320830004
:103D7000232AF10823285109130770001303830035
:103D8000634657710327410583260105938A1A006C
:103D9000B307F7002322E3002320D300232AF108EE
:103DA0002328510913077000930C83006344577153
:103DB0000325010483254104130600009306000037
:103DC000232AF100EFB0C05283274101032781036A
:103DD000630E053E1307F7FFB387E70013041400D3
:103DE000938A1A0023A2EC0023A08C00232AF10856
:103DF0002328510913077000634A5725938C8C00C0
:103E0000832681051307C107938A1A00B387F6003A
:103E100023A0EC0023A2DC00232AF1082328510967
:103E20001307700013838C00E35457A11306C108D5
:103E300093050C0013050A00EF608077631605E018
:103E40008327410913030D006FF09F9E130750064F
:103E5000E35E57EF032501048325410413060000A8
:103E600093060000232E6100232AF100EFB0804862
:103E7000832741010323C101631A05260327010992
:103E80008326C10593871700130717002320D3004B
:103E9000930610002322D300232AF1082328E108E7
:103EA000930670001303830063C6E66E0327410781
:103EB000832681036346D70013F71900E30A0796A8
:103EC000032701058326410513038300232CE3FE0A
:103ED00003270109B387D700232ED3FE130717004A
:103EE000232AF1082328E10893067000E3C4E610B2
:103EF000032781031304F7FFE35C8092930A000118
:103F0000232621030327010963D88A3C930C700000
:103F10006F00C000130404FF63D08A3C938707013D
:103F2000130717002320230123225301232AF1081A
:103F30002328E10813038300E3DEECFC1306C10829
:103F400093050C0013050A00EF608066631E05CE22
:103F5000832741090327010913030D006FF09FFB1D
:103F60000327010283260101B30CD740635A90FD59
:103F7000930D0001232621030327010963DE9D051C
:103F8000130B70006F00C000938C0CFF63D69D056F
:103F90009387070113071700232023012322B3016E
:103FA000232AF1082328E10813038300E35EEBFCD6
:103FB0001306C10893050C0013050A00EF60405F6B
:103FC000631405C8938C0CFF83274109032701095B
:103FD00013030D00E3CE9DFB8326C102B387970137
:103FE000130717002320D30023229301232AF1086B
:103FF0002328E108930670001303830063D2E6F4DC
:104000001306C10893050C0013050A00EF60405A1F
:10401000631C05C28327410913030D006FF04FF2A3
:10402000B3F6E900E39C06D2832A01092322E300C8
:1040300023208300938A1A00232AF1082328510998
:1040400013077000930C8300E35C57DB1306C10871
:1040500093050C0013050A00EF608055631605BE3A
:1040600083274109832A0109930C0D006FF05FD962
:104070001306C10893050C0013050A00EF604053B6
:10408000E30605886FF04FBC1306C10893050C00CA
:1040900013050A00EF60C051631805BA8327410970
:1040A00013030D006FF08FE51306C10893050C0094
:1040B00013050A00EF60C04F631805B88327410954
:1040C00013030D006FF00FE703274101A30701065B
:1040D000E34607C493F9F9F7638407B213060000B7
:1040E0006FF00FCC130600006FF08FC0832A4107DA
:1040F0006354504D0327410383268103930A07002D
:1041000063D4E600938A060063565003032701092F
:10411000B38757012320830013071700232253017D
:10412000232AF1082328E108930670001303830073
:1041300063CAE66EE3C80A0803274103B30A57417E
:1041400063505023930C0001232621030327010908
:1041500063D65C1D930D70006F00C000938A0AFF48
:1041600063DE5C1B938707011307170023202301DD
:1041700023229301232AF1082328E1081303830053
:10418000E3DEEDFC1306C10893050C0013050A00DD
:10419000EF600042631A05AA83274109032701093A
:1041A00013030D006FF09FFB1306C10893050C006D
:1041B00013050A00EF60C03F631805A80346F10627
:1041C0008327410913030D006FF00FD01304F7FF8D
:1041D000E35880C2930D00012326210363D28D068C
:1041E000130770006F00C000130404FF63DA8D042E
:1041F00093870701938A1A0023A02C0123A2BC01F4
:10420000232AF10823285109938C8C00E35E57FD83
:104210001306C10893050C0013050A00232AE100C8
:10422000EF600039631205A2130404FF83274109DC
:10423000832A0109930C0D0003274101E3CA8DFA7B
:104240000327C102B3878700938A1A0023A0EC00DA
:1042500023A28C00232AF108232851091307700098
:10426000E35E57B96FF09FDE93F70904032741021D
:104270006380073083170700130747002322E102FA
:10428000E3DE07941307D002A307E10603274101E9
:10429000B307F040634C077293F9F9F71306D002A5
:1042A0006FF0CFF993F70904A3070106638607F6B9
:1042B00083274102832641011387470083D70700E4
:1042C00063D606F62322E10213060000130710004E
:1042D000E38C07A46FF08FF68326C102B3878700B3
:1042E000232283002320D30013071700232AF10879
:1042F0002328E1089306700063DAE6D26FF01FB35B
:104300000327410283270700130747002322E10206
:104310000327810123A0E7006FE01FFB8326C10272
:10432000B3875701130717002320D300232253011B
:10433000232AF1082328E108930670001303830061
:1043400063D0E6021306C10893050C0013050A00AA
:10435000EF600026631A058E8327410913030D00C1
:104360008326410303274107B30AD4008326810330
:104370006342D70C93F61900639E060A83268103D5
:104380003304D4003387E640330454416354870038
:10439000130407006356800283260109B387870050
:1043A000232053019386160023228300232AF10839
:1043B0002328D10813067000130383006348D64AEC
:1043C0006348046233048740635480C6930A000143
:1043D0002326210303270109E3D08AF0930C700000
:1043E0006F00C000130404FFE3D88AEE938707012F
:1043F000130717002320230123225301232AF10846
:104400002328E10813038300E3DEECFC1306C10854
:1044100093050C0013050A00EF6080196304050082
:104420006FF08F82832741090327010913030D00D1
:104430006FF05FFB8326010503264105130383000C
:10444000232CD3FE83260109B387C700232EC3FE86
:1044500093861600232AF1082328D108130670003A
:10446000E35ED6F01306C10893050C0013050A009D
:10447000EF600014630405006FE01FFD0327410790
:104480008327410913030D006FF05FEF1306C10886
:1044900093050C0013050A00EF608011630405000A
:1044A0006FE09FFA83274109832A010913030D0056
:1044B0006FF05F8D1306C10893050C0013050A0009
:1044C000EF60000F630405006FE01FF883274109C8
:1044D000832A0109930C0D006FF09F8D9307000054
:1044E000938707031304F10BA30FF10A6FF08F8D6D
:1044F000032501048325410423286100EF50106443
:1045000003230101631A05189307700463D8573910
:104510003704010013048400930730002328F100BE
:1045200093F9F9F70346F106232EF100232A01003F
:10453000232A01026FF04F8B832741029387770074
:1045400093F787FF03A70700938787002320E104E1
:1045500003A7C7FF2322F1022322E1046FF0CFDD7E
:1045600083270700130747002322E1026FE09FFF24
:1045700083270700130747002322E1026FF0CFE5EE
:1045800083274101A307010663CC07F893F9F9F7E4
:104590006FE01FE71306C10893050C0013050A001E
:1045A000EF600001630405006FE01FEA8327410903
:1045B00013030D006FF09F8F032701098326C105A8
:1045C00093871700130717002320D30093061000CA
:1045D0002322D300232AF1082328E1089306700040
:1045E0001303830063C2E62C639A0A000327810346
:1045F0006316070013F71900630C07A203270105D0
:104600008326410513038300232CE3FE03270109BE
:10461000B387F600232ED3FE13071700232AF108D1
:104620002328E1089306700063C4E632B30A5041C0
:1046300063565031930C00012326210363DA5C2B6F
:10464000930D70006F00C000938A0AFF63D25C2B49
:1046500093870701130717002320230123229301C7
:10466000232AF1082328E10813038300E3DEEDFC8D
:104670001306C10893050C0013050A00EF50507390
:10468000630405006FE05FDC83274109032701090C
:1046900013030D006FF05FFB032741019307F0FF49
:1046A00013FBFAFD630CF72C93077004630AFB48B5
:1046B0008327410413E709102326E102832C010418
:1046C00063CC0748938D07002328010093076006F9
:1046D0006380FA4A93076004638EFA5A8327410184
:1046E000130EBBFB133E1E00338EC7019307410818
:1046F0002320F10013860C0093070E0093860D0013
:1047000093088107130841071307200013050A00C7
:1047100023286102232EC101EF2050029307700667
:1047200013040500032EC101032301036388FA3635
:10473000930770043308C501638AFA2E13850C00B1
:1047400093850D00130600009306000023286102E4
:10475000232E0101EFA0103A0328C1010323010316
:1047600093070800630205028327410863FE0701DF
:1047700093060003138717002322E1082380D70044
:1047800083274108E3E807FFB3878740232CF10222
:10479000930770046308FB2A9307500663DC57678E
:1047A000930760066382FA4683274107232AF102B2
:1047B0000327410383268103930707006346D740FD
:1047C00093F9190063940942634E0762032741037A
:1047D000930A7006232EE10003270101631A0728BC
:1047E0000346F1062328F1008329C102232A010090
:1047F0006FE09FDF1306C10893050C0013050A0044
:10480000EF50105B630405006FE01FC4832741096C
:1048100013030D006FF0CFED370401001304C4FF44
:104820006FF0CFB61306C10893050C0013050A00FC
:10483000EF501058630405006FE01FC18327410942
:1048400013030D006FF01F8F0325810493050004EF
:10485000EFD09FDC2320AC002328AC00630A05586E
:1048600093070004232AFC006FE05FA01306C10831
:1048700093050C0013050A00EF50905363040500E4
:104880006FE09FBC032741078326810383274109EB
:1048900013030D003387E6406FF09FB23704010029
:1048A000130444006FF05FC71306C10893050C00A2
:1048B00013050A00EF50D04F630405006FE0DFB826
:1048C000832A41078327410913030D00E3980AD285
:1048D0006FF0DFD193F71900130607006386070A0C
:1048E000930700031304F10BA30FF10A6FE09FCDB0
:1048F0008326C102B3875701130717002320D30073
:1049000023225301232AF1082328E108930670008B
:104910001303830063D4E6021306C10893050C0059
:1049200013050A00EF50D048630405006FE0DFB1C3
:10493000832741090327010913030D0083268103FF
:104940001307170023208300B387F6006FE0DFEC26
:104950001306C10893050C0013050A00EF505045DB
:10496000630405006FE05FAE832A41078327410996
:104970000327010913030D006FF05FCB930760005D
:10498000232AF1006FF0DFD2232E010013040D0063
:104990006FE0DFC313050400EF509038232EA10011
:1049A0009307050003230101635405AA9307000040
:1049B0006FF00FAA1305F0FF6FE05FAA9307F0FFF7
:1049C0006FE01FFE930A00006FF00FF71306D0028E
:1049D00013071000930610006314D7006FF00F86C2
:1049E000930620006304D7006FE09FB06FE05FBBC9
:1049F000130400006FF01F9D130760006374F7003D
:104A000093070700232EF10063CC0732370401001F
:104A10002328F1002322610313060000232A01004A
:104A2000232A0102130444036FE01FBD93F719000A
:104A3000639E072883274108B3878740232CF10210
:104A4000631A5B3D832741071307D0FF63C2E70664
:104A500003274101634EF704232AF1026FF05FD56B
:104A60009307D002A307F1061306D0026FF00F914F
:104A70001307D002A307E1062328F1008329C1020E
:104A80001306D002232A01006FE05FB693090700E6
:104A900013060000130720006FF0DFF393F71900EF
:104AA0003308C501E39C07C8832741086FF0DFCDB9
:104AB000938AEAFF9387F7FF232AF106230E510713
:104AC00063CA07281307B002A30EE106130690007D
:104AD000634EF6149387070313070003A30FF10631
:104AE000230FE106930701081307C107B387E740C7
:104AF00003278103232CF104B387E700232EF10061
:104B00009307100063D0E7268327C101938717001E
:104B1000232EF10063C20726232A01026FF0DFCBA8
:104B2000832741010346F106232261032328F10074
:104B3000232EF100232A0100232A01026FE0DFAABD
:104B400083274101E39607B6232A81006FF05FB601
:104B5000232A01006FE09F8103274104B7070080EB
:104B6000B34DF7009307D0022328F1006FF01FB672
:104B7000930741082320F1008327410113084107CF
:104B800013860C0093860D009308810713073000ED
:104B900013050A00232E6100EF20403A83274101CC
:104BA0000323C101130405003308F500138E070029
:104BB00003470400930700036302F714032E410721
:104BC0003308C8016FF09FB7032741039307100014
:104BD000635CE01603278103B387E700232EF1000F
:104BE00063CE0700930A70066FF01FBF832741034F
:104BF00093871700232EF100E3D607FE93070000EA
:104C0000930A70066FF05FBD83274107232AF102E4
:104C10006358F016032741016312070C93F919003A
:104C2000639E090A232EF1006FF01FBB9305B108A4
:104C3000138705001305A000B3E6A7021307F7FFCB
:104C4000B3C7A702938606032300D700E346F6FE08
:104C50009387070393F7F70F9306F7FFA30FF7FE6A
:104C600063FAB6161306E1076F00800083C70600DB
:104C70001306160093861600A30FF6FEE398B6FE01
:104C80009307C108B387E7401307E107B307F700AD
:104C90006FF09FE5930741082320F100832741012E
:104CA00013860C0093860D009308810713084107B3
:104CB0001307300013050A00232E6100EF2000289F
:104CC000032E41010323C10113040500930760046F
:104CD0003308C401E38EFAEC6FF05FA6832741012D
:104CE0000327410393871700B307F700232EF10032
:104CF000E3D407AE930700006FF01FAE13850C00DE
:104D000093850D001306000093060000232A61021C
:104D100023280103232EC101EFA0805D0328010396
:104D200003234103E30C05E8032EC10193071000A0
:104D3000338EC741232AC1073308C8016FF01FA073
:104D4000930700006FF09FCC93072000B387E740E4
:104D50006FF05FE81307D002B307F040A30EE1063F
:104D60006FF0DFD6B3F9F900E39009DA0327C10148
:104D700093070700E35207DA930700006FF0DFD9CB
:104D800083274101639A070093071000B3F9F900E4
:104D9000232EF100E38209A4832741019387270092
:104DA000232EF100E3DA07A26FF0DFF4832741023C
:104DB00083A80700938747002322F102232A1101C9
:104DC00063C408006FE00FDA9307F0FF232AF100B5
:104DD0006FE04FD99307E1076FF01FD1A307A1063A
:104DE0006FE0DFB4A307A10693E909016FE05FBD9F
:104DF000032781049307C0001305F0FF2320F70069
:104E00006FE0CFE5930700006FF05F9CA307A1065A
:104E10006FE0DFDA832741076FF0DFC9A307A10640
:104E20006FE0DFCEA307A1066FE0DFC4A307A106F2
:104E30006FE09FBDA307A1066FE08FE7A307A10660
:104E40006FE09FE9A307A1066FE08FEF130101EC6C
:104E5000232E1112232C8112232C81112328A1111E
:104E6000138C0500130406002324D102232A911277
:104E700023282113232631132324411323225113E2
:104E800023206113232E7111232A91112326B1119E
:104E9000130D0500EF404020832705001385070010
:104EA0002328F104EF50C067232AA10463060D00F4
:104EB00083278D036384072C8316CC009397060108
:104EC00093D70701139727016346070203268C0631
:104ED000B727000037E7FFFFB3E7F6001307F7FF38
:104EE0003377E6002316FC00939707012324EC0692
:104EF00093D7070113F78700630E071A03270C01E6
:104F0000630A071A93F7A7011307A0006386E71C3B
:104F1000B7070100938707042326F102B7070100B2
:104F2000938B471AB7070100930A010C3709010058
:104F30009387C70323265109232A01082328010840
:104F4000232E0102232201042324010413830A00D7
:104F500023260104232C0104232E01001309491BDD
:104F6000232EF1049304040083C704006384076CB8
:104F700013075002138404006396E7006F00400596
:104F80006388E7001304140083470400E39A07FED4
:104F9000B3099440638E090203274109832701095D
:104FA000232093003307370193871700232233010F
:104FB000232AE1082328F108130770001303830054
:104FC000634CF7128327C101B3873701232EF10009
:104FD00083470400638007149307F0FF93041400D1
:104FE000A30701069305000013050000232CF10020
:104FF0001307000093090000930680051306900034
:105000001308A00203CA04009384140093070AFE45
:10501000E3E6F6208328C10293972700B3871701A0
:1050200083A707006780070093E909016FF09FFDE0
:105030008327810203A70700938747002324F102F7
:10504000E35207FC3307E04093E949006FF09FFB10
:10505000930700032308F10693078007A308F106CE
:1050600003268101832781022322E102A30701068F
:105070001387470093E6290083A70700E34C061C2B
:1050800093F9F9F72324E10293E92900E39C071639
:10509000B7070100938707022326F104130A80074C
:1050A00083278101130600006388077E93070000B1
:1050B0006F00007493050C0013050D00EF10103401
:1050C000630405006F10003E8357CC001307A00057
:1050D00093F7A701E39EE7E28317EC00E3CA07E238
:1050E000832681021306040093050C0013050D00AE
:1050F000EF10D0246F00C0041306C10893050C0004
:1051000013050D00EF60804E6312050213830A0041
:105110006FF05FEB83274109638A07001306C1081C
:1051200093050C0013050D00EF60404C8357CC0035
:1051300093F70704638407006F10C0360325C1018D
:105140008320C113032481138324411303290113F2
:105150008329C112032A8112832A4112032B0112CF
:10516000832BC111032C8111832C4111032D0111BB
:10517000832DC110130101146780000013050D0079
:10518000EF30900C6FF05FD3930510001305B00261
:105190006FF05FE72322E102638405006F10901631
:1051A00093F7090163840756A30701068327810249
:1051B000832681011387470083A7070063C806562B
:1051C0002324E10293F9F9F7639807560327810135
:1051D0001306000093070000631407006F10403AA5
:1051E00013840A0013F777001304F4FF130707036F
:1051F0002300E40093D73700E39607FE93F71900E6
:105200006380074A93070003630CF7481307F4FF12
:10521000A30FF4FEB387EA402320F1021304070032
:105220006F00804803CA04009384140063140A01C9
:105230006F109003130E0AFD930700006374C601FC
:105240006F10005C9384140003CAF4FF9398170056
:1052500093973700B387F800B387C701130E0AFD91
:10526000E372C6FF63D407006F10803E232CF10069
:105270006FF0DFD993E909086FF0DFD8E31405D8A0
:1052800093051000130500026FF0DFD793E91900B2
:105290006FF05FD7832781022322E102A307010673
:1052A00003A40700138B47008327810163140400C4
:1052B0006F10003B232A610063D407006F10003792
:1052C000138607009305000013050400EF30907863
:1052D00003234101631405006F10C045B3078540E7
:1052E0002320F10263D407006F1000360346F10655
:1052F000232AF10023246103232C0100232C010223
:10530000630806008327410193871700232AF100D1
:1053100093F729002328F1026388070083274101BE
:1053200093872700232AF10093F74908232AF102E3
:10533000639E07768327410203274101B38DE7402F
:105340006356B077130800012320710583274109B4
:10535000032701096350B807930C0800130B700072
:105360006F00C000938D0DFF63D6BC0593870701C6
:10537000130717002320730123229301232AF10826
:105380002328E10813038300E35EEBFC1306C10846
:1053900093050C0013050D00EF604025E31805D8B8
:1053A000938D0DFF832741090327010913830A0009
:1053B000E3CEBCFB83260104B387FD00130717006F
:1053C0002320D3002322B301232AF1082328E10854
:1053D00093067000E3CAE6320346F1061303830026
:1053E000630A0602032701099306F1062320D3006E
:1053F0009387170093061000130717002322D3008A
:10540000232AF1082328E108930670001303830080
:10541000E3C0E61E03270103630A0702032701090D
:10542000930601072320D3009387270093062000CB
:10543000130717002322D300232AF1082328E108A9
:105440009306700013038300E3C4E61C8326410324
:1054500013070008E38AE606032781018326010279
:10546000B30CD7406358900B930D00012328210300
:105470000327010963DE9D05130B70006F00C00058
:10548000938C0CFF63D69D059387070113071700C4
:10549000232023012322B301232AF1082328E10832
:1054A00013038300E35EEBFC1306C10893050C00B5
:1054B00013050D00EF608013E31A05C6938C0CFFF3
:1054C000832741090327010913830A00E3CE9DFBCB
:1054D00083260103B3879701130717002320D30006
:1054E00023229301232AF1082328E1089306700060
:1054F0001303830063D0E6021306C10893050C0072
:1055000013050D00EF60800EE31205C283274109E9
:1055100013830A0013F70910631E0768832601022C
:105520000327010923208300B387D700130717003F
:105530002322D300232AF1082328E10893067000D0
:1055400063CAE6641303830093F94900638C090A74
:1055500003274102832641013304D7406354800A64
:1055600093090001232071050327010963DE8904E3
:10557000130A70006F00C000130404FF63D689048F
:105580009387070113071700232073012322330198
:10559000232AF1082328E10813038300E35EEAFCD1
:1055A0001306C10893050C0013050D00EF600004FD
:1055B000E31E05B6130404FF8327410903270109ED
:1055C00013830A00E3CE89FA83260104B387870098
:1055D000130717002320D30023228300232AF10876
:1055E0002328E1089306700063DEE6001306C10875
:1055F00093050C0013050D00EF50507FE31805B222
:105600008327410903274102832641016354D700C0
:10561000138706008326C1013387E600232EE100AD
:10562000639C077A83C704002328010813830A00B8
:10563000E3900794138404006FF09F992322E10202
:10564000638405006F10804B93F709016386071090
:10565000A307010683278102832681011387470060
:1056600083A7070063CA06102324E10293F9F9F720
:1056700013060000638E07201307900013840A00AE
:105680009306A000E372F71433F7D7021304F4FF74
:10569000B3D7D702130707032300E400E39607FEFE
:1056A000B3878A402320F102032701028326810168
:1056B000930707006354D70093870600232AF1005D
:1056C000232C01026FF0DFC313070000130E0AFD45
:1056D0009384140003CAF4FF9317170013173700BD
:1056E0003387E7003307EE00130E0AFDE372C6FFAF
:1056F0006FF0DF912322E102638405006F10403FC9
:1057000093E9090193F70901E39007AA93F70904C4
:10571000A3070106E38C07A8832781028326810162
:105720001387470083D70700E3DC06A82324E102A0
:105730001306000063820734130600006FF05FAAAF
:105740002322E102638405006F10C03993E9090147
:1057500093F70901E39E07EE93F70904A3070106F7
:10576000E38A07EE8327810283268101138747009E
:1057700083D70700E3DA06EE2324E10213060000D4
:10578000E39C07EE930710006F00002F2322E10235
:10579000638405006F108034B70701009387C7004A
:1057A0002326F10493F7090163800712032781027E
:1057B00083270700130747002324E10213F719008A
:1057C00063080766E38C073C832681011307000307
:1057D0002308E106A3084107A307010613E72900F0
:1057E000E3CC066E93F9F9F793E92900130600005C
:1057F0008326C10413840A0013F7F7003387E600F9
:10580000034707001304F4FF93D747002300E40085
:10581000E39407FE6FF0DFE82322E1020327810211
:1058200093061000232AD10083270700A30701064F
:1058300013060000230CF108930747002324F1020C
:105840002320D102232C0100232C010213048109FF
:105850006FF01FAC2322E102638405006F10002B60
:1058600093F7090163800714032781028327070048
:10587000130747002324E102E3C40714032781012F
:105880000346F106E34E07EE93F9F9F7E39607DED8
:105890008327810163980772232C010023200102D2
:1058A00013840A006FF05FE02322E10263840500A5
:1058B0006F10C026B7070100938707022326F10463
:1058C00093F70901E39407EE93F709040327810294
:1058D000E386072A83570700130747002324E102C2
:1058E0006FF0DFED2322E102638405006F10802258
:1058F00093F78900E3800726832781029387770047
:1059000093F787FF138787002324E10203A707008B
:1059100083A747002322E1042324F104832C4104BC
:10592000032B8104232A610013850C0093050B00CF
:10593000EF40D0201304100003234101E312850A35
:1059400013850C0093050B0013060000930600005E
:10595000EF90D01903234101E34805580346F106AF
:1059600093077004E3DC4737370401001304040095
:1059700093073000232AF10093F9F9F72320F1026D
:10598000232C0100232C01026FF09F972322E102B8
:10599000638405006F10C00F93E9090193F70901B3
:1059A000E39407EC93F7090403278102E380071EC1
:1059B00083170700130747002324E1026FF0DFEB92
:1059C00093E989006FF00FE4638405006F10001005
:1059D00093F70901639E070A93F90904638A090A88
:1059E0000327810283270700130747002324E102CE
:1059F0000357C1012390E7006FF00FD793E9090423
:105A00006FF04FE03707010013070702130600008D
:105A10002326E104130A80076FF09FDD2322E102B1
:105A2000638405006F10000A63060AEE93071000F6
:105A3000232AF100230C4109A307010613060000E5
:105A40002320F102232C0100232C010213048109DD
:105A50006FF01F8C2324E1023707010013070702B0
:105A6000938906002326E104130A8007639C073C00
:105A70001306000093072000130710006384E75407
:105A8000130720006384E7E2930700006FF04FF5EF
:105A90000327810283270700130747002324E1021D
:105AA0000327C10123A0E7006FF00FCC8327410932
:105AB0006FF01F938326C10313071000938717000D
:105AC0006354D72C032A0109130710002322E30093
:105AD000130A1A0023208300232AF10823284109EE
