:10010000731005347325203463440514170F000061
:10011000130F4F61F32F10346306FF07170F000012
:10012000130F4FEE63120F02170F0000130F8FED26
:1001300063040F006FF0DFEC6F0080041300000019
:10014000732F2034E35E0FFA730050301300000069
:100150001300000013000000130000001300000053
:100160001300000013000000130000001300000043
:100170001300000013000000130000001300000033
:10018000136E9E5373100E786FF0DFFF13000000A4
:100190001300000013000000130000001300000013
:1001A0001300000013000000130000001300000003
:1001B00013000000130000001300000013000000F3
:1001C000170F0000130F0F56F32F1034E30CFFFB33
:1001D000170F0000130F0FE363040F006FF05FE2CF
:1001E0006FF01FFA1300000013000000130000005E
:1001F00013000000130000001300000013000000B3
:10020000732500F163100500732500F063580500A5
:100210000F00F00F130E10006F008050130E00003F
:1002200097020000938202DE638402007390121032
:100230009302801F73B0023013050008732045300D
:100240007325107013052500731015326F0080029E
:1002500013151500135515001305F5FFE31805EAEE
:1002600073251070130525007310153273250034A3
:1002700073000010970200009382420173901234C1
:10028000732500F17300001097900000938080E3C5
:100290001301A00A2390200083910000930EA00A6E
:1002A000130E2000639ED14597900000938080E15B
:1002B00037B1FFFF130101A023912000839120009B
:1002C000B7BEFFFF938E0EA0130E3000639AD1438A
:1002D00097900000938000DF3711EFBE130101AA51
:1002E0002392200083A14000B71EEFBE938E0EAA7A
:1002F000130E40006396D14197900000938080DCFC
:1003000037A1FFFF1301A100239320008391600018
:10031000B7AEFFFF938EAE00130E50006392D13F35
:10032000979000009380E0DA1301A00A239D20FE3D
:100330008391A0FF930EA00A130E60006392D13D3B
:10034000979000009380E0D837B1FFFF130101A020
:10035000239E20FE8391C0FFB7BEFFFF938E0EA0A9
:10036000130E7000639ED13997900000938060D681
:1003700037110000130101AA239F20FE8391E0FFA3
:10038000B71E0000938E0EAA130E8000639AD13719
:10039000979000009380E0D337A1FFFF1301A100E5
:1003A0002390200083910000B7AEFFFF938EAE0034
:1003B000130E90006396D13597900000938080D102
:1003C0003751341213018167138200FE2310220279
:1003D00083910000B75E0000938E8E67130EA0001D
:1003E0006390D133979000009380C0CE37310000E6
:1003F000130181099380B0FFA3932000179200009E
:10040000130262CD83110200B73E0000938E8E0965
:10041000130EB0006396D12F130EC000130200001C
:10042000B7D0FFFF9380D0CD17910000130181C991
:100430002310110083110100B7DEFFFF938EDECD84
:100440006390D12D1302120093022000E31A52FC94
:10045000130ED00013020000B7C0FFFF9380D0CC72
:1004600017910000130101C61300000023111100B1
:1004700083112100B7CEFFFF938EDECC6392D1298A
:100480001302120093022000E31852FC130EE00046
:1004900013020000B7C0FFFF9380C0BC179100009B
:1004A000130141C2130000001300000023121100C9
:1004B00083114100B7CEFFFF938ECEBC6392D1254E
:1004C0001302120093022000E31652FC130EF000F8
:1004D00013020000B7B0FFFF9380C0BB1300000001
:1004E00017910000130101BE231311008311610055
:1004F000B7BEFFFF938ECEBB6394D12113021200CF
:1005000093022000E31852FC130E000113020000B6
:10051000B7B0FFFF9380B0AB13000000179100004D
:10052000130141BA1300000023141100831181004C
:10053000B7BEFFFF938EBEAB6394D11D13021200B2
:1005400093022000E31652FC130E10011302000068
:10055000B7E0FFFF9380B0AA130000001300000073
:1005600017910000130101B6231511008311A1009A
:10057000B7EEFFFF938EBEAA6394D1191302120047
:1005800093022000E31652FC130E20011302000018
:1005900017910000130101B3B720000093803023AE
:1005A0002310110083110100B72E0000938E3E230B
:1005B0006398D1151302120093022000E31A52FC33
:1005C000130E30011302000017910000130181AFD8
:1005D000B710000093803022130000002311110097
:1005E00083112100B71E0000938E3E22639AD11121
:1005F0001302120093022000E31852FC130E400174
:1006000013020000179100001301C1ABB7100000E6
:100610009380201213000000130000002312110029
:1006200083114100B71E0000938E2E12639AD10DE4
:100630001302120093022000E31652FC130E500125
:1006400013020000179100001301C1A7130000005E
:10065000930020112313110083116100930E2011C8
:100660006390D10B1302120093022000E31C52FC92
:10067000130E60011302000017910000130181A402
:100680001300000093001001130000002314110058
:1006900083118100930E10016394D107130212009D
:1006A00093022000E31A52FC130E700113020000A3
:1006B00017910000130101A11300000013000000B6
:1006C000B730000093801000231511008311A100A2
:1006D000B73E0000938E1E006394D10313021200F4
:1006E00093022000E31652FC37C500001305F5EE17
:1006F000979500009385059D2393A500631CC00179
:100700000F00F00F63000E00131E1E00136E1E007C
:100710006F0000010F00F00F130E10006F0040007B
:08072000730000006FF0DFFF21
:10100000BEBAFECAEFBEADDEBEBAFECAEFBEADDEF0
:10101000BEBAFECAEFBEADDEBEBAFECAEFBEADDEE0
:10102000BEBAFECAEFBEADDEBEBAFECAEFBEADDED0
:10103000BEBAFECAEFBEADDEBEBAFECAEFBEADDEC0
:10104000BEBAFECAEFBEADDEBEBAFECAEFBEADDEB0
:10105000BEBAFECAEFBEADDEBEBAFECAEFBEADDEA0
:10106000BEBAFECAEFBEADDEBEBAFECAEFBEADDE90
:10107000BEBAFECAEFBEADDEBEBAFECAEFBEADDE80
:10108000BEBAFECAEFBEADDEBEBAFECAEFBEADDE70
:10109000BEBAFECAEFBEADDEBEBAFECAEFBEADDE60
:1010A000BEBAFECAEFBEADDEBEBAFECAEFBEADDE50
:1010B000BEBAFECAEFBEADDEBEBAFECAEFBEADDE40
:1010C0000000000000000000000000000000000020
:1010D0000000000000000000000000000000000010
:1010E0000000000000000000000000000000000000
:1010F00000000000000000000000000000000000F0
:1090D000EFBEEFBE00000000000000000000000036
:0400000300000100F8
:00000001FF
